:020000040800F2
:1000000000800120FD280008E5280008E7280008F6
:10001000E9280008EB280008ED280008000000008F
:10002000000000000000000000000000EF280008B1
:10003000F128000800000000F3280008F528000857
:100040004D2900084D2900084D2900084D290008B8
:100050004D2900084D2900084D2900084D290008A8
:100060004D2900084D2900084D2900084D29000898
:100070004D2900084D2900084D2900084D29000888
:100080004D2900084D2900084D29000800000000F6
:100090000000000000000000000000004D290008E2
:1000A0004D2900084D2900084D2900084D29000858
:1000B0009D1E00084D2900084D2900084D29000803
:1000C0004D2900084D2900084D2900084D29000838
:1000D0004D2900084D2900084D29000800000000A6
:1000E0004D2900084D2900084D2900080000000096
:1000F0000000000000000000000000004D29000882
:10010000000000004D2900084D2900084D29000875
:1001100000000000000000000000000000000000DF
:100120004D2900084D2900084D2900084D290008D7
:100130004D29000800000000000000000000000041
:100140000000000000000000000000004D29000831
:100150004D2900084D2900084D2900084D290008A7
:100160004D2900084D290008000000000000000093
:10017000000000000000000000000000000000007F
:10018000000000004D2900080000000000000000F1
:040190004D290008ED
:1001A00010B5054C237833B9044B13B10448AFF3B1
:1001B00000800123237010BD90000020000000008B
:1001C0009032000808B5034B1BB103490348AFF355
:1001D000008008BD0000000094000020903200085C
:1001E00001F0FF01102A2BDB10F0070F08D010F8E8
:1001F000013B013A8B422DD010F0070F42B3F6D1EC
:10020000F0B441EA012141EA014122F007047FF004
:1002100000070023F0E80256083C85EA010586EA5B
:10022000010685FA47F5A3FA87F586FA47F6A5FA97
:1002300087F68EB9EED1F0BC01F0FF0102F00702A3
:1002400032B110F8013B013A83EA010313B1F8D14E
:100250000020704701387047002D06BF354603382F
:10026000073815F0010F07D1013015F4807F02BF68
:10027000013015F4C03F0130F0BC0138704700BFB9
:1002800070B54FF0FF0C4CF4E06C1CEA11541DBF2C
:100290001CEA135594EA0C0F95EA0C0F00F0DEF8F7
:1002A0002C4481EA030621EA4C5123EA4C5350EADC
:1002B000013518BF52EA033541F4801143F480132D
:1002C00038D0A0FB02CE4FF00005E1FB02E506F0BE
:1002D0000042E0FB03E54FF00006E1FB03569CF013
:1002E000000F18BF4EF0010EA4F1FF04B6F5007F19
:1002F00064F5407404D25FEA4E0E6D4146EB06068B
:1003000042EAC62141EA55514FEAC52040EA5E5013
:100310004FEACE2EB4F1FD0C88BFBCF5E06F1ED8BD
:10032000BEF1004F08BF5FEA500E50F1000041EBF4
:10033000045170BD06F0004646EA010140EA0200A1
:1003400081EA0301B4EB5C04C2BFD4EB0C0541EAC3
:10035000045170BD41F480114FF0000E013C00F3D8
:10036000AB8014F1360FDEBF002001F0004170BDFC
:10037000C4F10004203C35DA0C341BDC04F1140415
:10038000C4F1200500FA05F320FA04F001FA05F2A1
:1003900040EA020001F0004221F0004110EBD3706E
:1003A00021FA04F642EB06015EEA430E08BF20EA9A
:1003B000D37070BDC4F10C04C4F1200500FA04F33D
:1003C00020FA05F001FA04F240EA020001F00041CF
:1003D00010EBD37041F100015EEA430E08BF20EA42
:1003E000D37070BDC4F1200500FA05F24EEA020E8A
:1003F00020FA04F301FA05F243EA020321FA04F0B9
:1004000001F0004121FA04F220EA020000EBD3706F
:100410005EEA430E08BF20EAD37070BD94F0000F6F
:100420000FD101F00046400041EB010111F4801FA3
:1004300008BF013CF7D041EA060195F0000F18BF54
:10044000704703F00046520043EB030313F4801F90
:1004500008BF013DF7D043EA0603704794EA0C0F4A
:100460000CEA135518BF95EA0C0F0CD050EA410660
:1004700018BF52EA4306D1D181EA030101F00041DD
:100480004FF0000070BD50EA410606BF1046194605
:1004900052EA430619D094EA0C0F02D150EA013611
:1004A00013D195EA0C0F05D152EA03361CBF104652
:1004B00019460AD181EA030101F0004141F0FE41F1
:1004C00041F470014FF0000070BD41F0FE4141F475
:1004D000780170BD81F0004102E000BF83F000436D
:1004E00030B54FEA41044FEA430594EA050F08BFCF
:1004F00090EA020F1FBF54EA000C55EA020C7FEA93
:10050000645C7FEA655C00F0E2804FEA5454D4EB0F
:100510005555B8BF6D420CDD2C4480EA020281EAD9
:10052000030382EA000083EA010180EA020281EA11
:100530000303362D88BF30BD11F0004F4FEA013163
:100540004FF4801C4CEA113102D0404261EB410172
:1005500013F0004F4FEA03334CEA133302D05242F8
:1005600063EB430394EA050F00F0A780A4F10104B4
:10057000D5F1200E0DDB02FA0EFC22FA05F28018EE
:1005800041F1000103FA0EF2801843FA05F35941D4
:100590000EE0A5F120050EF1200E012A03FA0EFC53
:1005A00028BF4CF0020C43FA05F3C01851EBE3717D
:1005B00001F0004507D54FF0000EDCF1000C7EEB9A
:1005C00000006EEB0101B1F5801F1BD3B1F5001FD8
:1005D0000CD349085FEA30004FEA3C0C04F10104F7
:1005E0004FEA445212F5800F80F09A80BCF1004F20
:1005F00008BF5FEA500C50F1000041EB045141EAA2
:10060000050130BD5FEA4C0C404141EB0101013C6A
:1006100028BFB1F5801FE9D291F0000F04BF014659
:100620000020B1FA81F308BF2033A3F10B03B3F12B
:1006300020020CDA0C3208DD02F1140CC2F10C02BB
:1006400001FA0CF021FA02F10CE002F11402D8BF19
:10065000C2F1200C01FA02F120FA0CFCDCBF41EAE5
:100660000C019040E41AA2BF01EB0451294330BDB4
:100670006FEA04041F3C1CDA0C340EDC04F1140491
:10068000C4F1200220FA04F001FA02F340EA030068
:1006900021FA04F345EA030130BDC4F10C04C4F1AE
:1006A000200220FA02F001FA04F340EA030029468E
:1006B00030BD21FA04F0294630BD94F0000F83F4D8
:1006C000801306BF81F480110134013D4EE77FEABB
:1006D000645C18BF7FEA655C29D094EA050F08BF07
:1006E00090EA020F05D054EA000C04BF19461046E8
:1006F00030BD91EA030F1EBF0021002030BD5FEA2C
:10070000545C05D14000494128BF41F0004130BD53
:1007100014F580043CBF01F5801130BD01F00045A7
:1007200045F0FE4141F470014FF0000030BD7FEA1A
:10073000645C1ABF194610467FEA655C1CBF0B4615
:10074000024650EA013406BF52EA033591EA030F2C
:1007500041F4002130BD00BF90F0000F04BF002124
:10076000704730B54FF4806404F132044FF0000557
:100770004FF0000150E700BF90F0000F04BF0021D0
:10078000704730B54FF4806404F1320410F0004536
:1007900048BF40424FF000013EE700BF42004FEA31
:1007A000E2014FEA31014FEA02701FBF12F07F43AE
:1007B00093F07F4F81F06051704732F07F4208BF65
:1007C000704793F07F4F04BF41F40021704730B56C
:1007D0004FF4607401F0004521F000411CE700BFB8
:1007E00050EA010208BF704730B54FF000050AE03B
:1007F00050EA010208BF704730B511F0004502D53C
:10080000404261EB41014FF4806404F132045FEA3D
:10081000915C3FF4D8AE4FF003025FEADC0C18BFE6
:1008200003325FEADC0C18BF033202EBDC02C2F1D8
:10083000200300FA03FC20FA02F001FA03FE40EA6A
:100840000E0021FA02F11444BDE600BF4FEA410256
:1008500012F5001215D211D56FF47873B3EB625212
:1008600012D94FEAC12343F0004343EA505311F039
:10087000004F23FA02F018BF404270474FF00000CB
:10088000704750EA013005D111F0004008BF6FF009
:10089000004070474FF00000704700BF53B94AB99D
:1008A000002908BF00281CBF4FF0FF314FF0FF3078
:1008B00000F0AAB9ADF1080C6DE904CE00F03CF8E7
:1008C000DDF804E0DDE9022304B0704738B500220A
:1008D000002304460D4600F0F9F928B920462946C0
:1008E000BDE8384000F00AB8204605F1004100F0AC
:1008F00005F8404261EB410138BD00BFD0B50C4B5B
:10090000002206460F46FFF7BBFC00F007FA04463C
:10091000FFF722FF074B0022FFF7B2FC02460B460F
:1009200030463946FFF7DAFD00F0F8F92146D0BD30
:100930000000F03D0000F0412DE9F047089D04461D
:100940008E46002B4DD18A42944669D9B2FA82F282
:1009500052B101FA02F3C2F1200120FA01F10CFABE
:1009600002FC41EA030E94404FEA1C48210CBEFBF6
:10097000F8F61FFA8CF708FB16E341EA034306FB7F
:1009800007F199420AD91CEB030306F1FF3080F00E
:100990001F81994240F21C81023E63445B1AA4B25B
:1009A000B3FBF8F008FB103344EA034400FB07F7FD
:1009B000A7420AD91CEB040400F1FF3380F00A813E
:1009C000A74240F207816444023840EA0640E41B33
:1009D00000261DB1D4400023C5E900433146BDE8DF
:1009E000F0878B4209D9002D00F0EF800026C5E981
:1009F000000130463146BDE8F087B3FA83F6002E99
:100A00004AD18B4202D3824200F2F980841A61EB10
:100A1000030301209E46002DE0D0C5E9004EDDE72E
:100A200002B9FFDEB2FA82F2002A40F09280A1EB16
:100A30000C014FEA1C471FFA8CFE0126200CB1FB6B
:100A4000F7F307FB131140EA01410EFB03F0884264
:100A500008D91CEB010103F1FF3802D2884200F2F1
:100A6000CB804346091AA4B2B1FBF7F007FB101183
:100A700044EA01440EFB00FEA64508D91CEB040421
:100A800000F1FF3102D2A64500F2BB800846A4EB7C
:100A90000E0440EA03409CE7C6F12007B34022FA67
:100AA00007FC4CEA030C20FA07F401FA06F31C4396
:100AB000F9404FEA1C4900FA06F3B1FBF9F8200CA3
:100AC0001FFA8CFE09FB181140EA014108FB0EF0E9
:100AD000884202FA06F20BD91CEB010108F1FF3A39
:100AE00080F08880884240F28580A8F10208614445
:100AF000091AA4B2B1FBF9F009FB101144EA014153
:100B000000FB0EFE8E4508D91CEB010100F1FF34FD
:100B10006CD28E456AD90238614440EA0840A0FB95
:100B20000294A1EB0E01A142C846A64656D353D06B
:100B30005DB1B3EB080261EB0E0101FA07F722FA8F
:100B400006F3F1401F43C5E9007100263146BDE8B8
:100B5000F087C2F12003D8400CFA02FC21FA03F31B
:100B6000914001434FEA1C471FFA8CFEB3FBF7F09C
:100B700007FB10360B0C43EA064300FB0EF69E42C1
:100B800004FA02F408D91CEB030300F1FF382FD25A
:100B90009E422DD9023863449B1B89B2B3FBF7F602
:100BA00007FB163341EA034106FB0EF38B4208D9DB
:100BB0001CEB010106F1FF3816D28B4214D9023E1C
:100BC0006144C91A46EA004638E72E46284605E73A
:100BD0000646E3E61846F8E64B45A9D2B9EB02080B
:100BE00064EB0C0E0138A3E74646EAE7204694E79B
:100BF0004046D1E7D0467BE7023B614432E73046CE
:100C000009E76444023842E7704700BF4FF0FF3CF9
:100C100006E000BF4FF0010C02E000BF4FF0010CF6
:100C20004DF804CD4FEA410C7FEA6C5C4FEA430C6F
:100C300018BF7FEA6C5C1BD001B050EA410C0CBFBE
:100C400052EA430C91EA030F02BF90EA020F002020
:100C5000704710F1000F91EA030F58BF994208BF87
:100C600090422CBFD8176FEAE37040F00100704744
:100C70004FEA410C7FEA6C5C02D150EA013C07D19B
:100C80004FEA430C7FEA6C5CD6D152EA033CD3D0E6
:100C90005DF8040B704700BF8446104662468C46E0
:100CA0001946634600E000BF01B5FFF7B7FF002813
:100CB00048BF10F1000F01BD4DF808EDFFF7F4FF3C
:100CC0000CBF012000205DF808FB00BF4DF808EDC7
:100CD000FFF7EAFF34BF012000205DF808FB00BFEA
:100CE0004DF808EDFFF7E0FF94BF012000205DF80C
:100CF00008FB00BF4DF808EDFFF7CEFF94BF0120C1
:100D000000205DF808FB00BF4DF808EDFFF7C4FFB9
:100D100034BF012000205DF808FB00BF4A0011D25B
:100D200012F5001211D20DD56FF47873B3EB625245
:100D30000ED44FEAC12343F0004343EA505323FA51
:100D400002F070474FF00000704750EA013002D1C6
:100D50004FF0FF3070474FF00000704730B583B060
:100D60000121042001F038F96023009303238DF85A
:100D7000053001258DF804508DF80650154C694654
:100D8000204601F066FB4FF4407300938DF8045049
:100D900000238DF8063002238DF805308DF80750BA
:100DA0006946204601F055FB4FF48071204601F062
:100DB000AAFB4FF40071204601F0A7FB2A46402110
:100DC000204601F0A5FB2A462021204601F0A0FB89
:100DD00003B030BD0008024010B50B4C01222021A9
:100DE000204601F095FB01224021204601F090FBB6
:100DF00000222021204601F08BFB002240212046CA
:100E000001F086FB10BD00BF0008024010B5084C81
:100E100000222021204601F07BFB012240212046B8
:100E200001F076FB01222021204601F071FB10BD6C
:100E30000008024070B50646002413E080222241DB
:100E40000F4D32402021284601F062FB0122402153
:100E5000284601F05DFB00224021284601F058FBA6
:100E60000134E4B2072CE9D9054C01224021204687
:100E700001F04EFB00224021204601F049FB70BDED
:100E80000008024010B50446FFF7A6FF7820FFF7E0
:100E9000D1FF0020FFF7CEFF2046FFF7CBFFFFF783
:100EA000B5FF10BD10B50446FFF796FF7820FFF799
:100EB000C1FF4020FFF7BEFF2046FFF7BBFFFFF753
:100EC000A5FF10BD10B50C4640F0B000FFF7DAFFEB
:100ED000200940F01000FFF7D5FF04F00F00FFF7E6
:100EE000D1FF10BD38B5002509E00020FFF7DAFF7B
:100EF0000134E4B214F0800FF7D00135EDB2072DC4
:100F000005D800212846FFF7DDFF0024F2E738BDB1
:100F1000F8B51546461E7600F6B24F1EFF00FFB22A
:100F200039463046FFF7CEFF002409E0A5F1200343
:100F30000F4A02EB0313185DFFF7B4FF0134E4B26C
:100F4000072CF3D9701C3946C0B2FFF7BBFF002451
:100F50000BE0A5F1200304F10802054901EB03139E
:100F6000985CFFF79FFF0134E4B2072CF1D9F8BD7C
:100F7000A83200080246012002E002FB00F01946F8
:100F80004B1E0029F9D170472DE9F8438046894668
:100F90001E46171E04DB2B22FFF7BAFF00241FE0BA
:100FA0002D22FFF7B5FF7F42F8E704EB0905EDB20C
:100FB000311B01390A20FFF7DDFFB7FBF0F00A4AC9
:100FC000A2FB0032D20802EB8202A0EB42023032D6
:100FD000691CD2B2C9B24046FFF79AFF0134E4B2AD
:100FE000B442E2D3BDE8F883CDCCCCCC08B5002226
:100FF00004E00133B3F57A7FFBD30132B2F57A7F97
:1010000001D20023F6E7FFF7A9FEAE20FFF73AFF73
:10101000D520FFF737FF8020FFF734FFA820FFF728
:1010200031FF3F20FFF72EFFD320FFF72BFF0020DB
:10103000FFF728FF4020FFF725FFA120FFF722FF41
:10104000C820FFF71FFFDA20FFF71CFF1220FFF771
:1010500019FF8120FFF716FFCF20FFF713FFD920DC
:10106000FFF710FFF120FFF70DFFDB20FFF70AFF6E
:101070003020FFF707FFA420FFF704FFA620FFF7AB
:1010800001FF8D20FFF7FEFE1420FFF7FBFEAF20CF
:10109000FFF7F8FEFFF726FF08BD0000F0B587B0A8
:1010A0000121084600F098FF0121042000F094FF80
:1010B0000121102000F0ACFF4FF4007304930226CE
:1010C0008DF8146000248DF816408DF81560012508
:1010D0008DF817501C4F04A9384601F0BAF90722C1
:1010E0000921384601F01AFA802704978DF8145028
:1010F0008DF816408DF815608DF81750134E04A921
:10110000304601F0A6F93946304601F0FCF94FF4BB
:10111000E1330093ADF80440ADF80640ADF8084067
:10112000ADF80C400823ADF80A3004F1804404F512
:1011300088346946204601F00DF92946204601F021
:101140006FF907B0F0BD00BF000002400008024088
:1011500008B50146044801F071F98021024801F008
:1011600071F90028F9D008BD0010014038B50546D6
:10117000002403E0FFF7ECFF0134E4B2285D00280F
:10118000F8D138BD0FB400B59BB01CAA52F8041BAF
:10119000009201A801F016FC01A8FFF7E7FF1BB0C1
:1011A0005DF804EB04B0704770B506460D46144672
:1011B00000F056FB304600F06CFB00F0A4FB284624
:1011C00000F067FB00F09FFB204600F062FB00F0A0
:1011D0009AFB00F053FB70BD08B501226B21D020B3
:1011E000FFF7E2FF00226C21D020FFF7DDFF09228C
:1011F0001921D020FFF7D8FF06221A21D020FFF7AF
:10120000D3FF18221B21D020FFF7CEFF18221C216C
:10121000D020FFF7C9FF02223721D020FFF7C4FFFB
:1012200000226A21D020FFF7BFFF08BD08B5702259
:1012300000213C20FFF7B8FF202201213C20FFF7CE
:10124000B3FF002202213C20FFF7AEFF08BD38B5F6
:1012500004460D4600F004FB204600F01AFB00F0A7
:1012600052FB284600F015FB00F04DFB00F0F8FAA9
:1012700044F0010000F00DFB00F045FB00F01DFB09
:101280000446012000F035FB00F0F8FA204638BD96
:1012900010B5044600F0E4FAEC2000F0FAFA00F091
:1012A00032FB204600F0F5FA00F02DFB00F0E6FAE4
:1012B00010BD10B500F0D4FAEC2000F0EAFA00F00E
:1012C00022FB002000F0E5FA00F01DFB00F0C8FA58
:1012D000ED2000F0DEFA00F016FB00F0EEFA01203F
:1012E00000F007FB00F0E9FA012000F002FB00F03B
:1012F000E4FA0402002000F0FCFA00F0BFFA2046F5
:1013000010BD10B5044600F0ABFAEC2000F0C1FAB5
:1013100000F0F9FA204600F0BCFA00F0F4FA00F010
:101320009FFAED2000F0B5FA00F0EDFA00F0C5FAF2
:10133000012000F0DEFA00F0C0FA0402002000F004
:10134000D8FA00F09BFA04F47F4010BD08B51E20C7
:10135000FFF79EFFA220FFF7D4FFC0031A4B1880AF
:10136000A420FFF7CEFF194B00221A80A620FFF71A
:10137000C8FFFFF701FA0022154BFEF781FF154B5E
:10138000C3E90001A820FFF7BCFFFFF7F5F9002231
:101390004FF07E53FEF774FF0F4BC3E90001AA2004
:1013A000FFF7AFFF00020D4B1880AC20FFF7A9FF3D
:1013B000FFF7E2F900224FF07A53FEF761FF084B86
:1013C000C3E9000108BD00BFD0000020C00000201C
:1013D0000000703FE0000020D8000020F400002052
:1013E000E800002008B500F0F1F9FFF7F5FEFFF77F
:1013F0001DFFFFF7ABFF08BD08B5FFF749FF0A2047
:10140000002101F0A5F8FFF754FF0B4B18600B4BC0
:101410001B88C01A0A4B1860FFF7AEF9094BD3E9D5
:101420000023FEF72DFF0022074BFFF759F8FFF7C7
:101430000DFA064B186008BDB0000020F400002033
:10144000F8000020E800002000409F40F00000204D
:101450002DE9F04786B004464820FFF7CDFF20462F
:10146000FFF716FF0A20002101F072F8FFF721FFB5
:1014700004466F4B18606F4BD3F800A05046FFF73F
:101480007BF906460F466C4BD3E90023FEF7F8FEC6
:1014900080468946694B1888FFF76EF942464B46ED
:1014A000FFF71EF8FFF712FA80460D46644B1860EE
:1014B0005960644BD3E9002330463946FEF7E0FE1D
:1014C00006460F46604B1888FFF756F932463B46F2
:1014D000FFF706F8FFF7FAF907460E465B4B186070
:1014E00059605B4BD3F80090B9F5FA6F49DA0AFB03
:1014F0000AF0FFF741F900224FF07853FEF7C0FEE3
:10150000CDE90401A9F5FA6A0AFB0AFA0AEB8A0A8C
:101510000AEBDA704010FFF72FF9CDE902015046CF
:10152000BAF1000F2ADB8010FFF726F9CDE90001A0
:10153000484B99452DDA09F2DC5A0AFB0AFACAEB44
:10154000CA00FFF719F902460B46DDE90201FEF772
:10155000C7FFCDE902010AEB8A000AEB400A0AEB59
:10156000DA7A4FEA6A00FFF707F902460B46DDE92F
:101570000001FEF7B5FFCDE900010AE00AF1030022
:10158000D1E79FED297B8DED007B8DED027B8DED0D
:10159000047B4846FFF7F0F8DDE90423FEF79EFFE1
:1015A000FFF754F92A4B186040462946FFF720F907
:1015B000DDE90223FEF792FFFFF788F980460D462A
:1015C0001F4B1860596038463146FFF711F9DDE9C5
:1015D0000023FEF783FFFFF779F91C4B1860596071
:1015E000A4FB000304FB0131FFF702F900221A4BB0
:1015F000FEF746FE06460F4640462946FFF7F8F836
:1016000002460B4630463946FEF768FF00224FF08F
:101610007C53FEF735FEFFF719F9104B186006B042
:10162000BDE8F087AFF3008000000000000000007C
:10163000AC000020F8000020D8000020C0000020EE
:10164000B8000020E0000020D0000020C8000020EA
:10165000F000002024FAFFFF0000A03EC40000209C
:1016600070B53B21D020FFF7F2FD04463C21D0208D
:10167000FFF7EDFD50EA042000F19C800011504B73
:101680001B6818803D21D020FFF7E1FD04463E2174
:10169000D020FFF7DCFD50EA042000F18D8000111E
:1016A000474B1B6858803F21D020FFF7D0FD0446F0
:1016B0004021D020FFF7CBFD50EA04207ED400115A
:1016C0003F4C236898804121D020FFF7C0FD05469C
:1016D0004221D020FFF7BBFD03B2226843EA052078
:1016E000D0804321D020FFF7B2FD05464421D02011
:1016F000FFF7ADFD40EA0520324D85FB0023C01702
:10170000C0EBE310236818814521D020FFF79FFD2F
:1017100006464621D020FFF79AFD40EA062085FBC9
:101720000023C017C0EBE310236858814721D02065
:10173000FFF78DFD06464821D020FFF788FD40EADF
:10174000062085FB0035C017C0EBE51023689881A3
:1017500003213C20FFF77BFD054604213C20FFF7D9
:1017600076FD03B2226843EA0520D08105213C20A2
:10177000FFF76DFD054606213C20FFF768FD03B22B
:10178000226843EA0520108207213C20FFF75FFD15
:10179000054608213C20FFF75AFD03B2226843EAC0
:1017A000052050825820FFF753FE2368064A12682E
:1017B0005A6170BD0F3061E70F3070E70F307EE780
:1017C00018000020D34D6210C400002030B583B053
:1017D0000121022000F000FC4FF440750095032326
:1017E0008DF8053001238DF804308DF80630054C56
:1017F0006946204600F02DFE2946204600F083FE73
:1018000003B030BD0004024008B502464FF48071B9
:10181000034800F07DFE0A20002100F025FF08BDEE
:101820000004024008B502464FF40071034800F07E
:101830006FFE0A20002100F017FF08BD00040240DF
:1018400010B54FF40071054800F056FE04460A201A
:10185000002100F009FF204610BD00BF0004024037
:1018600008B50120FFF7DEFF0120FFF7CDFF0020C4
:10187000FFF7D8FF0020FFF7C7FF08BD08B500201D
:10188000FFF7D0FF0120FFF7BFFF0120FFF7CAFFDE
:1018900008BD38B5054600240CE0802020412840D2
:1018A000FFF7C0FF0120FFF7AFFF0020FFF7ACFFFD
:1018B0000134E4B2072CF0D938BD38B50120FFF768
:1018C000B1FF0024254604E00020FFF79DFF01340E
:1018D000E4B2072C0BD80120FFF796FFFFF7B0FF0B
:1018E0000128F1D1802323411D43EDB2ECE72846C6
:1018F00038BD08B5FFF796FF0120FFF785FF0020F0
:10190000FFF782FF08BD10B50120FFF78BFF012014
:10191000FFF77AFFFFF794FF04460020FFF774FFFC
:10192000204610BD00B583B00121084600F054FBED
:101930002023009303238DF8053001238DF8043014
:1019400000238DF806306946024800F082FD03B09E
:101950005DF804FB0000024008B52021014800F0BA
:10196000D2FD08BD000002402DE9F0418AB00121FE
:10197000084600F031FB0121022000F02DFB01217F
:10198000022000F037FBC023089302248DF8244086
:1019900000268DF8266003278DF8257001258DF827
:1019A0002750DFF8D88008A9404600F052FD2246B3
:1019B0000621404600F0B2FD22460721404600F0D5
:1019C000ADFD08978DF824408DF826608DF82570C0
:1019D0008DF82750274F08A9384600F03AFD2246D7
:1019E0003146384600F09AFD22462946384600F036
:1019F00095FDA023ADF81430ADF8166040F2CF731A
:101A00000693ADF81C601C4C05A9204600F00EFBA7
:101A10006023ADF80030ADF80250ADF80C606946B7
:101A2000204600F05DFB6946204600F095FB6946C4
:101A3000204600F0DDFB6946204600F023FC08212B
:101A4000204600F067FC0821204600F06AFC0821CF
:101A5000204600F06FFC0821204600F072FC294669
:101A6000204600F021FB2946204600F02BFB0AB05F
:101A7000BDE8F08100040240000400400000024084
:101A800038B50446084D0146284600F03BFC214687
:101A9000284600F039FC2146284600F037FC214654
:101AA000284600F035FC38BD0004004008B5FFF7BB
:101AB0005BFF08BD08B5632806DC20EAE0706430EF
:101AC00080B2FFF7DDFF08BD6420F8E730B583B0D2
:101AD0000121042000F080FA032300938DF80530E3
:101AE00001248DF804408DF80640084D69462846CB
:101AF00000F0AFFC22462146284600F009FD2246B0
:101B00000221284600F004FD03B030BD0008024069
:101B100010B50B4C01220221204600F0F9FC0122F5
:101B20001146204600F0F4FC00220221204600F07D
:101B3000EFFC00220121204600F0EAFC10BD00BFAE
:101B40000008024010B5084C00220221204600F097
:101B5000DFFC01221146204600F0DAFC01220221BE
:101B6000204600F0D5FC10BD0008024070B50646C6
:101B7000002413E0802222410F4D324002212846EA
:101B800000F0C6FC01221146284600F0C1FC0022EC
:101B90000121284600F0BCFC0134E4B2072CE9D94D
:101BA000054C01221146204600F0B2FC0022012122
:101BB000204600F0ADFC70BD0008024010B50446A0
:101BC000FFF7A6FF7820FFF7D1FF0020FFF7CEFF39
:101BD0002046FFF7CBFFFFF7B5FF10BD10B5044659
:101BE000FFF796FF7820FFF7C1FF4020FFF7BEFF09
:101BF0002046FFF7BBFFFFF7A5FF10BD10B50C4651
:101C000040F0B000FFF7DAFF200940F01000FFF7C6
:101C1000D5FF04F00F00FFF7D1FF10BD38B5002548
:101C200009E00020FFF7DAFF0134E4B214F0800F7E
:101C3000F7D00135EDB2072D05D800212846FFF772
:101C4000DDFF0024F2E738BDF8B51546461E7600E4
:101C5000F6B24F1EFF00FFB239463046FFF7CEFF07
:101C6000002409E0A5F120030F4A02EB0313185DDD
:101C7000FFF7B4FF0134E4B2072CF3D9701C3946E6
:101C8000C0B2FFF7BBFF00240BE0A5F1200304F175
:101C90000802054901EB0313985CFFF79FFF01342D
:101CA000E4B2072CF1D9F8BD98380008F8B507461A
:101CB0000E461546002406E0A119C9B23846FFF7C2
:101CC000C3FF0134E4B22A5D002AF5D1F8BD024613
:101CD000012002E002FB00F019464B1E0029F9D159
:101CE000704700002DE9F8438146884617461E4696
:101CF000002419E004EB0805EDB2311B01390A207C
:101D0000FFF7E5FFB7FBF0F0094AA2FB0032D2086B
:101D100002EB8202A0EB42023032D2B229464846A0
:101D2000FFF792FF0134E4B2B442E3D3BDE8F88395
:101D3000CDCCCCCC08B5002204E00133B3F57A7FDA
:101D4000FBD30132B2F57A7F01D20023F6E7FFF729
:101D5000BDFEAE20FFF732FFD520FFF72FFF80201A
:101D6000FFF72CFFA820FFF729FF3F20FFF726FFF2
:101D7000D320FFF723FF0020FFF720FF4020FFF7CD
:101D80001DFFA120FFF71AFFC820FFF717FFDA2079
:101D9000FFF714FF1220FFF711FF8120FFF70EFF5E
:101DA000CF20FFF70BFFD920FFF708FFF120FFF747
:101DB00005FFDB20FFF702FF3020FFF7FFFEA42026
:101DC000FFF7FCFEA620FFF7F9FE8D20FFF7F6FED9
:101DD0001420FFF7F3FEAF20FFF7F0FEFFF71EFF22
:101DE00008BD00002A4B1A6C42F001021A641A6BFB
:101DF00042F001021A63A3F560531A6842F0080228
:101E00001A609A6842F00C029A601A6A22F0F00294
:101E10001A621A6A42F010021A624FF08043DA6ABC
:101E20006FEA12426FEA0242DA621A8D92B242F00F
:101E30000F021A851A8992B242F060021A811A8939
:101E400092B242F004021A811A8B92B242F480726A
:101E50001A831A8B92B21A831A8C92B242F0100231
:101E60001A849A8992B242F004029A81094A0A4974
:101E7000D160A2F54062902182F81C134FF080518E
:101E800011601A8892B242F001021A80704700BFB6
:101E90000038024000ED00E00005FA054FF08043F5
:101EA0001B8A13F0040F1BD04FF080439B6B9BB237
:101EB000A3F6AC5292B2B2F5FA5F05D8104A0121EE
:101EC0001180104A002111800D4A1288012A08D081
:101ED0004FF08042138A9BB223F004039BB213821B
:101EE000704708490A88084820F81230531C9BB2F2
:101EF0000B80082BECD9024B00221A80E8E700BFC8
:101F0000100100200E010020FC000020034AD2F83E
:101F1000883043F47003C2F88830704700ED00E069
:101F200010B4294B9B6803F00C03042B23D0082B1F
:101F300024D013B1254B036001E0244B0360224CF5
:101F4000A368C3F303132249CB5CDAB20368D3401E
:101F50004360A268C2F382228A5CD2B223FA02F200
:101F60008260A268C2F342328A5CD2B2D340C360BC
:101F70005DF8044B7047174B0360E0E7124B59685C
:101F80005A6802F03F0211F4800F12D0114BB3FBDC
:101F9000F2F30D4A5268C2F3881202FB03F30A4AB5
:101FA0005268C2F3014201325200B3FBF2F3036004
:101FB000C5E7064BB3FBF2F3034A5268C2F388123B
:101FC00002FB03F3EBE700BF003802400024F400FB
:101FD0001C00002040787D0121B1054A136B184395
:101FE00010637047024A136B23EA000010637047C6
:101FF0000038024021B1054A136C18431064704741
:10200000024A136C23EA0000106470470038024053
:1020100021B1054A536C184350647047024A536C0F
:1020200023EA0000506470470038024003889BB2E6
:102030001B4A904212D002F5806290420ED0B0F15D
:10204000804F0BD0A2F58032904207D002F580621B
:10205000904203D002F58062904203D123F07003D6
:102060004A8813430F4A904208D002F5806290429A
:1020700004D023F440739BB20A89134303804B6856
:10208000C3620B880385064B984203D003F5806337
:10209000984201D18B7A038601238382704700BF67
:1020A000000001400010004029B103889BB243F0BA
:1020B00080030380704703889BB223F080039BB2A8
:1020C0000380704729B103889BB243F0010303806A
:1020D000704703889BB223F001039BB203807047D3
:1020E00010B5038C9BB223F001039BB20384038CD5
:1020F0009BB2B0F804E01FFA8EFE028B92B222F07F
:1021000073020C88224323F00203B1F80CC043EAA7
:102110000C0C4B8843EA0C030E4CA04203D004F590
:102120008064A0420FD123F00803CC89234323F01D
:1021300004038C8823432EF4407E0C8A4EEA040E5E
:102140004C8A44EA0E0EA0F804E002838A684263D7
:10215000038410BD0000014000B5038C9BB223F046
:1021600010039BB20384038C9BB2B0F804E01FFA07
:102170008EFEB0F818C01FFA8CFC2CF4E64C0A88CE
:10218000120292B24CEA020C23F020038A89120157
:1021900092B21A434B881B019BB21343134A9042DD
:1021A00003D002F58062904217D123F08003CA89E0
:1021B000120192B2134323F040028B881B019BB2A1
:1021C00013432EF4406E0A8A920092B24EEA020E37
:1021D0004A8A920092B242EA0E0EA0F804E0A0F8F9
:1021E00018C08A68826303845DF804FB0000014024
:1021F00000B5038C9BB223F480739BB20384038CE1
:102200009BB2B0F804E01FFA8EFEB0F81CC01FFAB3
:102210008CFC2CF0730C0A884CEA020C23F400733B
:102220008A89120292B21A434B881B029BB2134353
:10223000134A904203D002F58062904217D123F4F2
:102240000063CA89120292B2134323F480628B881E
:102250001B029BB213432EF4405E0A8A120192B213
:102260004EEA020E4A8A120192B242EA0E0EA0F81B
:1022700004E0A0F81CC08A68C26303845DF804FB14
:102280000000014010B5038C9BB223F480539BB235
:102290000384038C9BB2B0F804E01FFA8EFE828B9D
:1022A00092B222F4E64C0A88120292B24CEA02027E
:1022B00023F40053B1F80CC04FEA0C3C1FFA8CFC1D
:1022C00043EA0C0C4B881B039BB243EA0C030C4CF7
:1022D000A04203D004F58064A04209D12EF4804EC0
:1022E000B1F810C04FEA8C1C1FFA8CFC4EEA0C0EA1
:1022F000A0F804E082838A680264038410BD00BFF2
:10230000000001404163704781637047C1637047BB
:1023100001647047038B9BB223F008030B430383D4
:102320007047038B9BB223F40063090289B20B430D
:1023300003837047838B9BB223F008030B43838393
:102340007047838B9BB223F40063090289B20B436D
:102350008383704730B585B004460D46038A9BB22F
:1023600023F44053CA881343038283899BB223F426
:10237000B05323F00C03898828896A8901430A43F2
:102380001343A381A38A9BB223F44073AA89134306
:10239000A3826846FFF7C4FD1F4B9C4205D003F59E
:1023A00080639C4201D0029B00E0039BA28912F44F
:1023B000004F1FD103EB830303EB83032A689200D2
:1023C000B3FBF2F3154AA2FB031252091101642078
:1023D00002FB1033A28912F4004F14D11B013233D7
:1023E0000E4AA2FB0323C3F343130B439BB2238187
:1023F00005B030BD03EB830303EB83032A6852006F
:10240000B3FBF2F3DEE7DB003233044AA2FB032323
:10241000C3F342130B43E9E7001001401F85EB5162
:1024200029B183899BB243F4005383817047838928
:102430009BB223F400539BB283817047C1F3080120
:10244000818070470388194201D001207047002025
:10245000704700230F2B4ED830B516E0C2681FFA24
:1024600083FE4FEA4E044FF0030E0EFA04FE22EAFA
:102470000E02C260C26891F807E00EFA0CFC42EA54
:102480000C02C26001330F2B34D801229A400C6831
:10249000A243F7D104684FEA430C032202FA0CF27C
:1024A0006FEA020E24EA0202026002680C7904FA62
:1024B0000CF4224302600A79013AD2B2012ACDD843
:1024C00082680EEA0202826082684C7904FA0CF497
:1024D0002243826044689DB24FF0010E0EFA05FE61
:1024E00024EA0E04446044688A79AA4092B22243E6
:1024F0004260B3E730BD70470369194201D0012043
:1025000070470020704781617047090481617047FE
:102510000AB18161704709048161704700B501F01B
:1025200007039B0002FA03FCC908083150F8212078
:102530004FF00F0E0EFA03F322EA030340F82130A6
:1025400050F8212042EA0C0240F821205DF804FBFB
:1025500030B589B004460D4650EA010328D16EE03B
:102560004FF0E022136923F004031361019B3C49FF
:10257000A1FB03135B0A4FF4FA7101FB03F35361F0
:102580004FF0E02300229A611A6942F001021A61B9
:102590004FF0E0231B6913F4803FF9D04FF0E022A5
:1025A000136923F001031361B4F5FA7445F1FF35A3
:1025B00040F2F5139C4275F1000317D36846FFF70C
:1025C000AFFC019A274B9A42CAD24FF0E02213691E
:1025D00043F004031361019B2149A1FB03139B09F1
:1025E0004FF4FA7101FB03F35361C9E704A8FFF745
:1025F00097FC059A1B4B9A4223D24FF0E0221369B5
:1026000043F004031361059B1549A1FB03139B09C8
:1026100003FB04F454614FF0E02300229A611A692D
:1026200042F001021A614FF0E0231B6913F4803F6E
:10263000F9D04FF0E022136923F00103136109B0D0
:1026400030BD4FF0E022136923F004031361059BB2
:102650000349A1FB03135B0A03FB04F45461DAE7AB
:10266000D34D621000127A0050EA01035DD02DE9CB
:10267000F04385B080460C464FF47A720023FEF793
:102680000DF981460F464FF47A72002340462146E9
:10269000FEF704F915461E46B8F57A7F74F100037B
:1026A00005D256EA050307D105B0BDE8F0834846D8
:1026B0003946FFF74DFFF4E76846FFF731FC019A12
:1026C0001A4B9A4222D24FF0E022136943F00403DE
:1026D0001361019B1649A1FB03139B0C03FB05F53A
:1026E00055614FF0E02300229A611A6942F001021D
:1026F0001A614FF0E0231B6913F4803FF9D04FF0CB
:10270000E022136923F001031361CDE74FF0E022CB
:10271000136923F004031361019B0549A1FB031313
:102720005B0D03FB05F55561DBE7704700127A008E
:1027300083DE1B4382B00190019A044B1A60034B65
:102740001B68002BFBD102B0704700BF24010020A2
:1027500008B5564C2046FFF7E3FB6368544AA2FBDA
:1027600003235B09013BB3F1807F0AD24FF0E022E3
:102770005361504BF02183F823100023936107230A
:1027800013610520FFF7D6FFFFF7CCF8FEF72AFE0E
:10279000FEF72CFCFFF7CEFAFEF780FCFFF722FBDA
:1027A000FFF784F9FFF7D8F8FEF75AFF424C0523EC
:1027B000B4F9002001210846FEF7E6FB0523B4F931
:1027C000022001210220FEF7DFFB0523B4F90420DB
:1027D00001210320FEF7D8FB0523B4F908200821C6
:1027E0000120FEF7D1FB0523B4F90A2008210220BD
:1027F000FEF7CAFB0523B4F90C2008210320FEF7DD
:10280000C3FB0523B4F90E2001210420FEF7BCFB15
:102810000523B4F9102008210420FEF7B5FB274A50
:1028200001210846FFF742FA254D05236A88012158
:102830000220FFF757FA0523AA8808210220FFF794
:1028400051FA0523EA8801210320FFF74BFA0523FB
:102850002A8908210320FFF745FA05236A89012107
:102860000420FFF73FFA0523AA8908210420FFF777
:1028700039FAB4F90430B4F90220B4F9001011485F
:10288000FEF780FCB4F90C30B4F90A20B4F9081052
:102890000D48FEF777FCE8880C4BA3FB0030C0081E
:1028A000643840B2FFF706F97EE700BF140100204C
:1028B0001F85EB5100ED00E000000020883E00087D
:1028C000FC000020983E0008A83E0008CDCCCCCCEF
:1028D000034B1B681BB1024A1368013B136070472E
:1028E000240100207047FEE7FEE7FEE7FEE77047A1
:1028F0007047704708B5FFF7EBFF08BDDFF834D02D
:10290000FFF704FB0C480D490D4A002302E0D458A0
:10291000C4500433C4188C42F9D30A4A0A4C002329
:1029200001E013600432A242FBD300F011F8FFF77C
:102930000FFF704700800120000000209000002061
:10294000F83E0008900000203C010020FEE7000057
:1029500070B50D4D0D4C641BA4100026A64209D184
:102960000B4D0C4C00F094FC641BA4100026A642F6
:1029700005D170BD55F8043B98470136EEE755F890
:10298000043B98470136F2E7F03E0008F03E0008AD
:10299000F03E0008F43E000800B59BB000910491A1
:1029A0006FF000410591029105490391694600F0DD
:1029B0006FF8009B00221A701BB05DF804FB00BF8B
:1029C0000802FFFF13460A46014602480068FFF767
:1029D000E3BF00BF2C0000202DE9F0478E689E4227
:1029E00082460C4690461F4638D88A8912F4906F6A
:1029F00032D025680969A5EB0109656905EB450534
:102A000005EBD57501334B446D109D4238BF1D4613
:102A1000530531D5294600F063FB064650B90C2317
:102A2000CAF80030A38943F04003A3814FF0FF3080
:102A3000BDE8F08721694A4600F0BEFAA38923F475
:102A4000906343F08003A381266165614E44A5EB4A
:102A500009052660A5603E46BE4200D93E46206874
:102A60003246414600F0B6FAA3689B1BA360236878
:102A7000334423600020DBE72A4600F0A5FB06462E
:102A80000028E1D12169504600F0BEFAC7E70000F6
:102A90002DE9F04F98468B891B069DB007460D46E1
:102AA00014460ED50B6963B9402100F019FB28606C
:102AB000286120B90C233B604FF0FF30D1E0402368
:102AC0006B610023099320238DF82930CDF80C8009
:102AD0003023DFF8A8818DF82A304FF00109234612
:102AE0009A4613F8012B0AB1252AF9D1BAEB040B47
:102AF0000BD05B46224629463846FFF76DFF013072
:102B000000F0AA80099A5A4409929AF80030002BE2
:102B100000F0A28000234FF0FF32CDE905230AF137
:102B2000010A049307938DF853301A9354460522F3
:102B300014F8011B5148FDF753FB049AD8B9D0068D
:102B400044BF20238DF85330110744BF2B238DF849
:102B500053309AF800302A2B15D0079A544600209B
:102B60004FF00A0C214611F8013B303B092B4ED99E
:102B7000B0B1079214E0A0EB080309FA03F3134382
:102B80000493A246D2E7039B191D1B680391002BF7
:102B9000BBBF5B4242F0020207930793B8BF0492A7
:102BA00023782E2B0CD163782A2B35D1039B1A1D49
:102BB0001B680392002BB8BF4FF0FF33023405931C
:102BC000DFF8C8A0217803225046FDF709FB40B189
:102BD0004023A0EB0A0003FA00F0049B03430134F6
:102BE000049314F8011B26488DF828100622FDF7DF
:102BF000F7FA002838D0234B1BBB039B073323F085
:102C0000070308330393099B3344099367E70CFBDD
:102C100002320C460120A5E7002301340593194632
:102C20004FF00A0C204610F8012B303A092A03D93C
:102C3000002BC5D00591C3E70CFB012104460123FD
:102C4000F0E703AB00932A460F4B04A93846AFF3D5
:102C50000080421C0646D6D1AB895B063FF52CAFFF
:102C600009981DB0BDE8F08F03AB00932A46064BD0
:102C700004A9384600F07AF8EBE700BFB43E00083C
:102C8000BE3E000800000000D9290008BA3E000836
:102C90002DE9F047164699468A680B69DDF82080D1
:102CA0009342B8BF1346336091F8432007460C4661
:102CB0000AB1013333602368990642BF3368023397
:102CC0003360256815F0060506D104F1190AE3689A
:102CD00032689B1AAB4226DC94F84320131E22680C
:102CE00018BF012392062BD404F14302494638460B
:102CF000C04701301ED02368E568326803F0060340
:102D0000042B08BFAD1AA36822690CBF25EAE5753C
:102D100000259342C4BF9B1AED1800261A34B54211
:102D20001AD1002008E00123524649463846C047E0
:102D3000013003D14FF0FF30BDE8F0870135C6E721
:102D4000E1185A1C302081F84300224494F84510C1
:102D500082F843100233C7E701232246494638462A
:102D6000C0470130E6D00136D9E700002DE9FF4722
:102D70000F7E0C9D782F914680460C469A4601F1B5
:102D8000430207D8622F0AD8002F00F0D880582FAE
:102D900000F0A38004F1420584F842703AE0A7F104
:102DA0006303152BF6D801A151F823F0052E000876
:102DB000192E0008952D0008952D0008952D000866
:102DC000952D0008192E0008952D0008952D000856
:102DD000952D0008952D0008252F0008492E000884
:102DE000072F0008952D0008952D0008472F000893
:102DF000952D0008492E0008952D0008952D0008F6
:102E00000F2F00082B681A1D1B682A6004F1420569
:102E100084F842300123A3E020682968060601F106
:102E200004030AD50E682B60002E03DA2D237642A8
:102E300084F843305E480A2319E00E682B6010F0D6
:102E4000400F18BF36B2EFE72B682068191D2960C4
:102E5000010601D51E6802E04606FBD51E885448CF
:102E60006F2F0CBF08230A23002184F843106568E4
:102E7000A560002DA2BF216821F0040121600EB9D8
:102E8000002D4DD01546B6FBF3F103FB1167C75D6E
:102E900005F8017D3746BB420E46F4D9082B0BD10D
:102EA0002368DE0708D5236961689942DEBF3023B5
:102EB00005F8013C05F1FF35521B2261CDF800A059
:102EC0004B4603AA21464046FFF7E2FE01304CD1B3
:102ED0004FF0FF3004B0BDE8F087354881F8457009
:102EE0002968236851F8046B29601D0614D5DF0793
:102EF00044BF43F0200323601EB9236823F020035E
:102F000023601023B0E7236843F020032360782375
:102F1000284884F84530E3E7590648BFB6B2E6E7EB
:102F20001546BBE72B6826686169181D28603506C1
:102F30001B6801D5196002E07006FBD519800023DB
:102F400023611546BAE72B681A1D2A601D6862685E
:102F500000212846FDF744F908B1401B6060636812
:102F60002361002384F84330A8E723692A464946B1
:102F70004046D0470130ABD023689B0713D4E068AC
:102F8000039B9842B8BF1846A4E70123324649463E
:102F90004046D04701309BD00135E36803995B1A66
:102FA000AB42F2DCEBE7002504F11906F5E700BFC0
:102FB000C53E0008D63E00080A44914200F1FF33A6
:102FC00000D1704710B511F8014B03F8014F914241
:102FD000F9D110BD884210B501EB020402D9844238
:102FE000234607D8431EA14208D011F8012B03F84D
:102FF000012FF8E7024401468A4200D110BD13F8C0
:10300000014D02F8014DF7E737B5002944D051F8DA
:10301000043C0190002BA1F10404B8BFE41800F0B7
:1030200013F91E4A0198136833B96360146003B042
:10303000BDE8304000F00EB9A34208D925686119F7
:103040008B4201BF19685B6849192160EDE71A4698
:103050005B680BB1A342FAD911685518A5420BD190
:10306000246821445418A3421160E0D11C685B68B5
:10307000536021441160DAE702D90C230360D6E7DC
:10308000256861198B4204BF19685B68636004BFDF
:10309000491921605460CAE703B030BD28010020FF
:1030A00070B50E4E0C463168054611B900F0BCF8FB
:1030B00030602146284600F0B7F8431C0AD0C41CF3
:1030C00024F00304A04207D0211A284600F0ACF8EF
:1030D000013001D14FF0FF34204670BD2C0100209B
:1030E0002DE9F041CD1C25F0030508350C2D38BF26
:1030F0000C25002D074601DBA94205D90C233B60B6
:1031000000263046BDE8F0812E4E00F09DF8336871
:103110001C4634BB29463846FFF7C2FF431C044611
:103120004DD134682646002E40D1236831463846BA
:1031300004EB030800F078F880453AD121680335A4
:103140006D1A25F0030508350C2D38BF0C252946CE
:103150003846FFF7A5FF01302BD023682B442360AE
:103160000EE02268521B1ED40B2A16D96119A34205
:10317000256018BF5960636808BF316062514B60B9
:10318000384604F10B0600F065F826F00706231D0B
:10319000F21AB6D09B1BA350B3E76268A3420CBFE0
:1031A00032605A60ECE723466468B2E734467668DA
:1031B000B9E70C233B60384600F04CF8A1E72560E6
:1031C000DEE700BF280100202DE9F04180461446CB
:1031D0000E4621B9BDE8F0411146FFF781BF2AB97B
:1031E000FFF712FF25462846BDE8F08100F038F8C9
:1031F0008442074602D8B4EB500F12D8214640460D
:10320000FFF76EFF05460028EDD0BC42224631464E
:1032100028BF3A46FFF7D0FE31464046FFF7F4FE9E
:10322000E1E73546DFE7000038B5064D00230446E8
:1032300008462B6000F01EF8431C02D12B6803B136
:10324000236038BD30010020014800F011B800BFF4
:1032500034010020014800F00CB800BF3401002008
:1032600051F8043C181F002BBCBF0B58C018704706
:1032700070477047044A05491368002B08BF0B4686
:1032800018441060184670473801002040010020A3
:10329000F8B500BFF8BC08BC9E467047F8B500BF43
:0832A000F8BC08BC9E46704713
:1032A8000000000000000000000000000000000016
:1032B800000000F8000000000000003330000000AB
:1032C80000100C06100C06000000000000000000B2
:1032D80040C07840C0784000043F04043F04040024
:1032E800007088FC08300000001820FF211E000034
:1032F800F008F000E018000000211C031E211E0049
:1033080000F00888700000001E21232419272110CE
:1033180010160E0000000000000000000000000071
:10332800000000E018040200000000071820400018
:1033380000020418E0000000004020180700000008
:10334800404080F0804040000202010F010202006C
:10335800000000F0000000000101011F0101010050
:10336800000000000000000080B0700000000000B5
:10337800000000000000000000010101010101013E
:1033880000000000000000000030300000000000D5
:1033980000000000806018040060180601000000AA
:1033A80000E010080810E000000F102020100F00A7
:1033B800001010F8000000000020203F202000002E
:1033C8000070080808887000003028242221300086
:1033D80000300888884830000018202020110E008E
:1033E8000000C02010F8000000070424243F240037
:1033F80000F80888880808000019212020110E000C
:1034080000E0108888180000000F112020110E001D
:1034180000380808C83808000000003F0000000015
:103428000070880808887000001C222121221C00D6
:1034380000E010080810E0000000312222110F00FF
:10344800000000C0C0000000000000303000000094
:103458000000008000000000000080600000000004
:10346800000080402010080000010204081020001D
:103478004040404040404000040404040404040068
:1034880000081020408000000020100804020100FD
:10349800007048080808F0000000003036010000FD
:1034A800C030C828E810E0000718272423140B00B0
:1034B8000000C038E0000000203C2302022738202A
:1034C80008F8888888700000203F202020110E000E
:1034D800C030080808083800071820202010080005
:1034E80008F808080810E000203F202020100F00EE
:1034F80008F88888E8081000203F202023201800BA
:1035080008F88888E8081000203F20000300000021
:10351800C03008080838000007182020221E0200C2
:1035280008F808000008F808203F210101213F2081
:10353800000808F8080800000020203F20200000AC
:1035480000000808F8080800C08080807F0000009C
:1035580008F888C028180800203F200126382000D5
:1035680008F8080000000000203F2020202030003C
:1035780008F8F800F8F80800203F003F003F200056
:1035880008F830C00008F808203F200007183F005E
:10359800E01008080810E0000F10202020100F008D
:1035A80008F808080808F000203F21010101000080
:1035B800E01008080810E0000F18242438504F00C5
:1035C80008F8888888887000203F2000030C302085
:1035D80000708808080838000038202121221C00C3
:1035E800180808F8080818000000203F200000000C
:1035F80008F808000008F808001F202020201F00F5
:103608000878880000C83808000007380E01000054
:10361800F80800F80008F800033C0700073C03001E
:10362800081868808068180820302C03032C302084
:103638000838C800C83808000000203F20000000F3
:1036480010080808C838080020382621202018004B
:10365800000000FE020202000000007F404040001F
:10366800000C30C000000000000000010638C00057
:1036780000020202FE000000004040407F000000FF
:103688000000040202020400000000000000000024
:103698000000000000000000808080808080808022
:1036A800000202040000000000000000000000000A
:1036B80000008080808000000019242222223F2000
:1036C80008F8008080000000003F112020110E0043
:1036D8000000008080800000000E112020201100D2
:1036E800000000808088F800000E112020103F2084
:1036F8000000808080800000001F22222222130008
:10370800008080F0888888180020203F2020000052
:103718000000808080808000006B94949493600007
:1037280008F8008080800000203F210000203F2012
:1037380000809898000000000020203F2020000012
:10374800000000809898000000C08080807F000002
:1037580008F8000080808000203F24022D302000DF
:10376800000808F8000000000020203F202000008A
:103778008080808080808000203F20003F20003FA4
:103788008080008080800000203F210000203F20B2
:103798000000808080800000001F202020201F0063
:1037A800808000808000000080FFA12020110E0092
:1037B8000000008080808000000E112020A0FF8083
:1037C800808080008080800020203F212000010030
:1037D8000000808080808000003324242424190085
:1037E800008080E0808000000000001F2020000092
:1037F8008080000000808000001F202020103F20D3
:10380800808080000080808000010E300806010062
:1038180080800080008080800F300C030C300F0007
:1038280000808000808080000020312E0E31200032
:10383800808080000080808080818E701806010062
:1038480000808080808080000021302C2221300080
:1038580000000000807C020200000000003F4040A1
:1038680000000000FF00000000000000FF00000052
:103878000002027C800000000040403F0000000081
:10388800000601010202040400000000000000001C
:103898000000000000000000000000000000000020
:1038A800000000F8000000000000003330000000B5
:1038B80000100C06100C06000000000000000000BC
:1038C80040C07840C0784000043F04043F0404002E
:1038D800007088FC08300000001820FF211E00003E
:1038E800F008F000E018000000211C031E211E0053
:1038F80000F00888700000001E21232419272110D9
:1039080010160E000000000000000000000000007B
:10391800000000E018040200000000071820400022
:1039280000020418E0000000004020180700000012
:10393800404080F0804040000202010F0102020076
:10394800000000F0000000000101011F010101005A
:10395800000000000000000080B0700000000000BF
:103968000000000000000000000101010101010148
:1039780000000000000000000030300000000000DF
:1039880000000000806018040060180601000000B4
:1039980000E010080810E000000F102020100F00B1
:1039A800001010F8000000000020203F2020000038
:1039B8000070080808887000003028242221300090
:1039C80000300888884830000018202020110E0098
:1039D8000000C02010F8000000070424243F240041
:1039E80000F80888880808000019212020110E0016
:1039F80000E0108888180000000F112020110E0028
:103A080000380808C83808000000003F000000001F
:103A18000070880808887000001C222121221C00E0
:103A280000E010080810E0000000312222110F0009
:103A3800000000C0C000000000000030300000009E
:103A4800000000800000000000008060000000000E
:103A58000000804020100800000102040810200027
:103A68004040404040404000040404040404040072
:103A78000008102040800000002010080402010007
:103A8800007048080808F000000000303601000007
:103A9800C030C828E810E0000718272423140B00BA
:103AA8000000C038E0000000203C23020227382034
:103AB80008F8888888700000203F202020110E0018
:103AC800C03008080808380007182020201008000F
:103AD80008F808080810E000203F202020100F00F8
:103AE80008F88888E8081000203F202023201800C4
:103AF80008F88888E8081000203F2000030000002C
:103B0800C03008080838000007182020221E0200CC
:103B180008F808000008F808203F210101213F208B
:103B2800000808F8080800000020203F20200000B6
:103B380000000808F8080800C08080807F000000A6
:103B480008F888C028180800203F200126382000DF
:103B580008F8080000000000203F20202020300046
:103B680008F8F800F8F80800203F003F003F200060
:103B780008F830C00008F808203F200007183F0068
:103B8800E01008080810E0000F10202020100F0097
:103B980008F808080808F000203F2101010100008A
:103BA800E01008080810E0000F18242438504F00CF
:103BB80008F8888888887000203F2000030C30208F
:103BC80000708808080838000038202121221C00CD
:103BD800180808F8080818000000203F2000000016
:103BE80008F808000008F808001F202020201F00FF
:103BF8000878880000C83808000007380E0100005F
:103C0800F80800F80008F800033C0700073C030028
:103C1800081868808068180820302C03032C30208E
:103C28000838C800C83808000000203F20000000FD
:103C380010080808C8380800203826212020180055
:103C4800000000FE020202000000007F4040400029
:103C5800000C30C000000000000000010638C00061
:103C680000020202FE000000004040407F00000009
:103C7800000004020202040000000000000000002E
:103C8800000000000000000080808080808080802C
:103C98000002020400000000000000000000000014
:103CA80000008080808000000019242222223F200A
:103CB80008F8008080000000003F112020110E004D
:103CC8000000008080800000000E112020201100DC
:103CD800000000808088F800000E112020103F208E
:103CE8000000808080800000001F22222222130012
:103CF800008080F0888888180020203F202000005D
:103D08000000808080808000006B94949493600011
:103D180008F8008080800000203F210000203F201C
:103D280000809898000000000020203F202000001C
:103D3800000000809898000000C08080807F00000C
:103D480008F8000080808000203F24022D302000E9
:103D5800000808F8000000000020203F2020000094
:103D68008080808080808000203F20003F20003FAE
:103D78008080008080800000203F210000203F20BC
:103D88000000808080800000001F202020201F006D
:103D9800808000808000000080FFA12020110E009C
:103DA8000000008080808000000E112020A0FF808D
:103DB800808080008080800020203F21200001003A
:103DC800000080808080800000332424242419008F
:103DD800008080E0808000000000001F202000009C
:103DE8008080000000808000001F202020103F20DD
:103DF800808080000080808000010E30080601006D
:103E080080800080008080800F300C030C300F0011
:103E180000808000808080000020312E0E3120003C
:103E2800808080000080808080818E70180601006C
:103E380000808080808080000021302C222130008A
:103E480000000000807C020200000000003F4040AB
:103E580000000000FF00000000000000FF0000005C
:103E68000002027C800000000040403F000000008B
:103E78000006010102020404000000000000000026
:103E880047726F757033204C43435A44000000005A
:103E98004163633A25642D25642D25640A000000DA
:103EA800473A25642D25642D25640A00232D302BDF
:103EB8002000686C4C006566674546470030313223
:103EC800333435363738394142434445460030317A
:103ED80032333435363738396162636465660000D9
:083EE80050CAFF7F0100000039
:043EF000C501000800
:043EF400A101000820
:103EF80001000200030000000000000000000000B4
:103F08000000000000000000000000200000000089
:103F18000102030401020304060708093000002017
:103F28000000000000000000000000000000000089
:103F38000000000000000000000000000000000079
:103F48000000000000000000000000000000000069
:103F58000000000000000000000000000000000059
:103F68000000000000000000000000000000000049
:103F78000000000000000000000000000000000039
:04000005080028FDCA
:00000001FF
