:020000040800F2
:100000000080012041780008713500087F35000824
:10001000853500088B350008913500080000000088
:1000200000000000000000000000000097350008FC
:10003000A535000800000000AB020008855B000841
:10004000917800089178000891780008917800086C
:10005000917800089178000891780008917800085C
:10006000917800089178000891780008917800084C
:10007000917800089178000891780008917800083C
:10008000917800089178000891780008000000003D
:10009000000000000000000000000000917800084F
:1000A000917800089178000891780008917800080C
:1000B00005250008917800089178000891780008DB
:1000C00091780008917800089178000891780008EC
:1000D00091780008917800089178000800000000ED
:1000E00091780008917800089178000800000000DD
:1000F00000000000000000000000000091780008EF
:1001000000000000917800089178000891780008BC
:1001100000000000000000000000000000000000DF
:10012000917800089178000891780008917800088B
:1001300091780008000000000000000000000000AE
:10014000000000000000000000000000917800089E
:10015000917800089178000891780008917800085B
:10016000917800089178000800000000000000006D
:10017000000000000000000000000000000000007F
:10018000000000009178000800000000000000005E
:04019000917800085A
:1001940010B5054C237833B9044B13B10448AFF3BD
:1001A40000800123237010BD3000002000000000F7
:1001B4000879000808B5034B1BB103490348AFF3A2
:1001C400008008BD00000000340000200879000809
:1001D400EFF3098121B120ED108A51490A681060BA
:1001E4007047B0EC108A4F490A681060704772B6C5
:1001F40002B4EFF3118180F31188BFF34F8FBFF383
:100204006F8F084602BC62B6704772B680F31188DD
:10021400BFF34F8FBFF36F8F62B6704772B64EF65F
:100224002250CEF2000040F2FF01C0F20001017042
:10023400002080F3098841F6E010C2F20000016852
:1002440081F3088805F05CFC37480121017040F215
:100254001A50C2F2000040F21B51C2F200010A78A7
:10026400027040F23070C2F2000040F23871C2F203
:1002740000010A680260106880F30988EFF31480B3
:1002840040F0020080F31488BFF36F8FBDE8F04F95
:100294000FBCBDE8005006BC62B6084723484FF0C7
:1002A40080510160704772B641F6E812C2F2000252
:1002B400116881F31188BFF34F8FBFF36F8F62B65C
:1002C400EFF3098020E9F04F40F23075C2F20005E7
:1002D40029680860744605F013FC40F21A50C2F213
:1002E400000040F21B51C2F200010A78027040F291
:1002F4003871C2F200010A682A6044F0040E1068E2
:10030400B0E8F04F80F309884FF0000272B682F330
:100314001188BFF34F8FBFF36F8F62B67047000031
:1003240030070020380700202805002004ED00E0F5
:10033400F0B400EB4003DFF8880000EBC30000F1E9
:1003440018063069F7687568874232D3B368DC1BD6
:10035400631E934214D37D19D01900BF11F8013BD9
:1003640005F8013B013A05D011F8013B05F8013BC2
:10037400013AF3D1BFF35F8FF0600120F0BC704706
:10038400C018904219D37819121B11F8013B00F8D8
:10039400013B013CF9D1141C05D011F8013B05F8CF
:1003A400013B013AF9D1BFF35F8FF4600120F0BC47
:1003B4007047C01B01389042CDD20020F0BC70477A
:1003C400EC19002081F0004102E000BF83F00043FB
:1003D40030B54FEA41044FEA430594EA050F08BFDC
:1003E40090EA020F1FBF54EA000C55EA020C7FEAA0
:1003F400645C7FEA655C00F0E2804FEA5454D4EB1D
:100404005555B8BF6D420CDD2C4480EA020281EAE6
:10041400030382EA000083EA010180EA020281EA1E
:100424000303362D88BF30BD11F0004F4FEA013170
:100434004FF4801C4CEA113102D0404261EB41017F
:1004440013F0004F4FEA03334CEA133302D0524205
:1004540063EB430394EA050F00F0A780A4F10104C1
:10046400D5F1200E0DDB02FA0EFC22FA05F28018FB
:1004740041F1000103FA0EF2801843FA05F35941E1
:100484000EE0A5F120050EF1200E012A03FA0EFC60
:1004940028BF4CF0020C43FA05F3C01851EBE3718A
:1004A40001F0004507D54FF0000EDCF1000C7EEBA7
:1004B40000006EEB0101B1F5801F1BD3B1F5001FE5
:1004C4000CD349085FEA30004FEA3C0C04F1010404
:1004D4004FEA445212F5800F80F09A80BCF1004F2D
:1004E40008BF5FEA500C50F1000041EB045141EAAF
:1004F400050130BD5FEA4C0C404141EB0101013C78
:1005040028BFB1F5801FE9D291F0000F04BF014666
:100514000020B1FA81F308BF2033A3F10B03B3F138
:1005240020020CDA0C3208DD02F1140CC2F10C02C8
:1005340001FA0CF021FA02F10CE002F11402D8BF26
:10054400C2F1200C01FA02F120FA0CFCDCBF41EAF2
:100554000C019040E41AA2BF01EB0451294330BDC1
:100564006FEA04041F3C1CDA0C340EDC04F114049E
:10057400C4F1200220FA04F001FA02F340EA030075
:1005840021FA04F345EA030130BDC4F10C04C4F1BB
:10059400200220FA02F001FA04F340EA030029469B
:1005A40030BD21FA04F0294630BD94F0000F83F4E5
:1005B400801306BF81F480110134013D4EE77FEAC8
:1005C400645C18BF7FEA655C29D094EA050F08BF14
:1005D40090EA020F05D054EA000C04BF19461046F5
:1005E40030BD91EA030F1EBF0021002030BD5FEA39
:1005F400545C05D14000494128BF41F0004130BD61
:1006040014F580043CBF01F5801130BD01F00045B4
:1006140045F0FE4141F470014FF0000030BD7FEA27
:10062400645C1ABF194610467FEA655C1CBF0B4622
:10063400024650EA013406BF52EA033591EA030F39
:1006440041F4002130BD00BF90F0000F04BF002131
:10065400704730B54FF4806404F132044FF0000564
:100664004FF0000150E700BF90F0000F04BF0021DD
:10067400704730B54FF4806404F1320410F0004543
:1006840048BF40424FF000013EE700BF42004FEA3E
:10069400E2014FEA31014FEA02701FBF12F07F43BB
:1006A40093F07F4F81F06051704732F07F4208BF72
:1006B400704793F07F4F04BF41F40021704730B579
:1006C4004FF4607401F0004521F000411CE700BFC5
:1006D40050EA010208BF704730B54FF000050AE048
:1006E40050EA010208BF704730B511F0004502D549
:1006F400404261EB41014FF4806404F132045FEA4B
:10070400915C3FF4D8AE4FF003025FEADC0C18BFF3
:1007140003325FEADC0C18BF033202EBDC02C2F1E5
:10072400200300FA03FC20FA02F001FA03FE40EA77
:100734000E0021FA02F11444BDE600BF70B54FF07B
:10074400FF0C4CF4E06C1CEA11541DBF1CEA135559
:1007540094EA0C0F95EA0C0F00F0DEF82C4481EAC1
:10076400030621EA4C5123EA4C5350EA013518BFE1
:1007740052EA033541F4801143F4801338D0A0FBCE
:1007840002CE4FF00005E1FB02E506F00042E0FB7B
:1007940003E54FF00006E1FB03569CF0000F18BF81
:1007A4004EF0010EA4F1FF04B6F5007F64F5407429
:1007B40004D25FEA4E0E6D4146EB060642EAC621BC
:1007C40041EA55514FEAC52040EA5E504FEACE2E29
:1007D400B4F1FD0C88BFBCF5E06F1ED8BEF1004F2C
:1007E40008BF5FEA500E50F1000041EB045170BDA8
:1007F40006F0004646EA010140EA020081EA0301EC
:10080400B4EB5C04C2BFD4EB0C0541EA045170BDE7
:1008140041F480114FF0000E013C00F3AB8014F161
:10082400360FDEBF002001F0004170BDC4F10004AA
:10083400203C35DA0C341BDC04F11404C4F120052B
:1008440000FA05F320FA04F001FA05F240EA020086
:1008540001F0004221F0004110EBD37021FA04F6BC
:1008640042EB06015EEA430E08BF20EAD37070BD76
:10087400C4F10C04C4F1200500FA04F320FA05F0D5
:1008840001FA04F240EA020001F0004110EBD370D7
:1008940041F100015EEA430E08BF20EAD37070BD47
:1008A400C4F1200500FA05F24EEA020E20FA04F320
:1008B40001FA05F243EA020321FA04F001F00041CF
:1008C40021FA04F220EA020000EBD3705EEA430E40
:1008D40008BF20EAD37070BD94F0000F0FD101F06F
:1008E4000046400041EB010111F4801F08BF013CA8
:1008F400F7D041EA060195F0000F18BF704703F0E6
:100904000046520043EB030313F4801F08BF013D6C
:10091400F7D043EA0603704794EA0C0F0CEA135528
:1009240018BF95EA0C0F0CD050EA410618BF52EAE2
:100934004306D1D181EA030101F000414FF00000E8
:1009440070BD50EA410606BF1046194652EA4306F6
:1009540019D094EA0C0F02D150EA013613D195EA6A
:100964000C0F05D152EA03361CBF104619460AD1B2
:1009740081EA030101F0004141F0FE4141F47001BC
:100984004FF0000070BD41F0FE4141F4780170BDAC
:1009940070B54FF0FF0C4CF4E06C1CEA11541DBF11
:1009A4001CEA135594EA0C0F95EA0C0F00F0A7F813
:1009B400A4EB050481EA030E52EA03354FEA013140
:1009C40000F088804FEA03334FF0805545EA131353
:1009D40043EA12634FEA022245EA111545EA10651B
:1009E4004FEA00260EF000419D4208BF964244F1B2
:1009F400FD0404F5407402D25B084FEA3202B61AD1
:100A040065EB03055B084FEA32024FF480104FF4A4
:100A1400002CB6EB020E75EB030E22BFB61A754618
:100A240040EA0C005B084FEA3202B6EB020E75EBAB
:100A3400030E22BFB61A754640EA5C005B084FEA13
:100A44003202B6EB020E75EB030E22BFB61A7546E0
:100A540040EA9C005B084FEA3202B6EB020E75EBEB
:100A6400030E22BFB61A754640EADC0055EA060EAC
:100A740018D04FEA051545EA16754FEA06164FEAEF
:100A8400C30343EA52734FEAC2025FEA1C1CC0D19B
:100A940011F4801F0BD141EA00014FF000004FF028
:100AA400004CB6E711F4801F04BF01430020B4F1E9
:100AB400FD0C88BFBCF5E06F3FF6AFAEB5EB030CA1
:100AC40004BFB6EB020C5FEA500C50F1000041EB9E
:100AD400045170BD0EF0004E4EEA113114EB5C046B
:100AE400C2BFD4EB0C0541EA045170BD41F480113E
:100AF4004FF0000E013C90E645EA060E8DE60CEA46
:100B0400135594EA0C0F08BF95EA0C0F3FF43BAF62
:100B140094EA0C0F0AD150EA01347FF434AF95EA19
:100B24000C0F7FF425AF104619462CE795EA0C0FFD
:100B340006D152EA03353FF4FDAE1046194622E7CA
:100B440050EA410618BF52EA43067FF4C5AE50EAA4
:100B540041047FF40DAF52EA43057FF4EBAE12E794
:100B64004FEA410212F5001215D211D56FF47873D1
:100B7400B3EB625212D94FEAC12343F0004343EA74
:100B8400505311F0004F23FA02F018BF404270474F
:100B94004FF00000704750EA013005D111F00040D9
:100BA40008BF6FF0004070474FF00000704700BF6F
:100BB40038B50022002304460D4600F08FF828B90A
:100BC40020462946BDE8384000F00AB8204605F121
:100BD400004100F005F8404261EB410138BD00BF1F
:100BE400D0B50C4B002206460F46FFF7A7FD00F0D8
:100BF4009DF80446FFF728FD074B0022FFF79EFDF2
:100C040002460B4630463946FFF7E0FB00F08EF80B
:100C14002146D0BD0000F03D0000F0414FF0FF3C04
:100C240006E000BF4FF0010C02E000BF4FF0010CE2
:100C34004DF804CD4FEA410C7FEA6C5C4FEA430C5B
:100C440018BF7FEA6C5C1BD001B050EA410C0CBFAA
:100C540052EA430C91EA030F02BF90EA020F00200C
:100C6400704710F1000F91EA030F58BF994208BF73
:100C740090422CBFD8176FEAE37040F00100704730
:100C84004FEA410C7FEA6C5C02D150EA013C07D187
:100C94004FEA430C7FEA6C5CD6D152EA033CD3D0D2
:100CA4005DF8040B704700BF8446104662468C46CC
:100CB4001946634600E000BF01B5FFF7B7FF0028FF
:100CC40048BF10F1000F01BD4DF808EDFFF7F4FF28
:100CD4000CBF012000205DF808FB00BF4DF808EDB3
:100CE400FFF7EAFF34BF012000205DF808FB00BFD6
:100CF4004DF808EDFFF7E0FF94BF012000205DF8F8
:100D040008FB00BF4DF808EDFFF7CEFF94BF0120AC
:100D140000205DF808FB00BF4DF808EDFFF7C4FFA5
:100D240034BF012000205DF808FB00BF4A0011D247
:100D340012F5001211D20DD56FF47873B3EB625231
:100D44000ED44FEAC12343F0004343EA505323FA3D
:100D540002F070474FF00000704750EA013002D1B2
:100D64004FF0FF3070474FF00000704780B582B0FD
:100D740000AF0121042001F0D1FC60233B60032378
:100D84007B7101233B710123BB713B461946154816
:100D940002F046F94FF440733B6001233B7100239A
:100DA400BB7102237B710123FB713B4619460D483D
:100DB40002F036F94FF480710A4802F0DAF94FF480
:100DC4000071084802F0E4F901224021054802F0CC
:100DD400EFF901222021034802F0EAF900BF0837A5
:100DE400BD4680BD0008024080B500AF012220212D
:100DF400094802F0DDF901224021074802F0D8F940
:100E040000222021044802F0D3F9002240210248A4
:100E140002F0CEF900BF80BD0008024080B500AFEB
:100E240000222021074802F0C3F90122402105488D
:100E340002F0BEF901222021024802F0B9F900BFF4
:100E440080BD00BF0008024080B584B000AF0346F7
:100E5400FB710023FB731BE0FB7B802242FA03F34C
:100E64005AB297F9073013405BB2DBB21A4620211D
:100E7400104802F09DF9012240210E4802F098F931
:100E8400002240210B4802F093F9FB7B0133FB73F2
:100E9400FB7B072BE0D901224021064802F088F9A8
:100EA40000224021034802F083F900BF1037BD46F9
:100EB40080BD00BF0008024080B582B000AF034689
:100EC400FB71FFF791FF7820FFF7BEFF0020FFF7CB
:100ED400BBFFFB791846FFF7B7FFFFF79FFF00BF83
:100EE4000837BD4680BD80B582B000AF0346FB71B4
:100EF400FFF77AFF7820FFF7A7FF4020FFF7A4FF52
:100F0400FB791846FFF7A0FFFFF788FF00BF0837FB
:100F1400BD4680BD80B582B000AF03460A46FB7172
:100F24001346BB71FB7963F04F03DBB21846FFF73E
:100F3400C3FFBB791B09DBB243F01003DBB21846D5
:100F4400FFF7BAFFBB7903F00F03DBB21846FFF7D4
:100F5400B3FF00BF0837BD4680BD80B582B000AF87
:100F64000023BB7114E0BB7900211846FFF7D2FFC0
:100F74000023FB7105E00020FFF7B5FFFB79013387
:100F8400FB7197F90730002BF5DABB790133BB719C
:100F9400BB79072BE7D900BF00BF0837BD4680BD2A
:100FA40080B584B000AF0346FB710B46BB7113469A
:100FB4007B71FB79013BDBB25B00DAB2BB79013BAD
:100FC400DBB2DB00DBB219461046FFF7A3FF0023B8
:100FD400FB730EE07B79A3F12002FB7B1C49120119
:100FE4000A4413441B781846FFF77DFFFB7B01334B
:100FF400FB73FB7B072BEDD9FB79013BDBB25B0079
:10100400DBB20133DAB2BB79013BDBB2DB00DBB22A
:1010140019461046FFF77EFF0023FB730FE07B7930
:10102400A3F12002FB7B0833094912010A4413444B
:101034001B781846FFF757FFFB7B0133FB73FB7BE1
:10104400072BECD900BF00BF1037BD4680BD00BFE1
:10105400AC7A000880B485B000AF786039600123B1
:10106400FB6004E0FB687A6802FB03F3FB603B6807
:101074005A1E3A60002BF5D1FB6818461437BD465A
:101084005DF8047B7047000090B585B000AF3A600E
:101094001A460346FB710B46BB7113467B713B68D2
:1010A400002B08DBB979FB792B221846FFF778FF70
:1010B4003B68BB6008E0B979FB792D221846FFF73D
:1010C4006FFF3B685B42BB600023FB7325E0BA798A
:1010D400FB7B1344DBB20133DCB27A79FB7BD31A9A
:1010E400013B19460A20FFF7B5FF0246BB68B3FB74
:1010F400F2F10E4BA3FB0123DA0813469B001344C1
:101104005B00CA1AD3B23033DAB2FB7921461846EF
:10111400FFF746FFFB7B0133FB73FA7B7B799A4233
:10112400D5D300BF00BF1437BD4690BDCDCCCCCCC9
:1011340080B582B000AF00237B600CE000233B60ED
:1011440002E03B6801333B603B68B3F57A7FF8D338
:101154007B6801337B607B68B3F57A7FEED3FFF75E
:1011640005FEAE20FFF7A8FED520FFF7A5FE8020E0
:10117400FFF7A2FEA820FFF79FFE3F20FFF79CFE8B
:10118400D320FFF799FE0020FFF796FE4020FFF7DB
:1011940093FEA120FFF790FEC820FFF78DFEDA2012
:1011A400FFF78AFE1220FFF787FE8120FFF784FEF7
:1011B400CF20FFF781FED920FFF77EFEF120FFF755
:1011C4007BFEDB20FFF778FE3020FFF775FEA420BE
:1011D400FFF772FEA620FFF76FFE8D20FFF76CFE6F
:1011E4001420FFF769FEAF20FFF766FEFFF7B5FE98
:1011F40000BF0837BD4680BD80B586B000AF012171
:10120400012001F08BFA0121042001F087FA012169
:10121400102001F0C3FA4FF400733B6102233B75C5
:101224000023BB7502237B750123FB7507F11003B3
:1012340019461B4801F0F4FE07220921184801F061
:10124400D0FF80233B6101233B750023BB75022340
:101254007B750123FB7507F110031946114801F052
:10126400DFFE80210F4801F084FF4FF4E1333B603F
:101274000023BB800023FB8000233B810023BB8130
:1012840008237B813B461946074801F0EFFD012105
:10129400054801F0A5FE00BF1837BD4680BD00BF5C
:1012A40000000240000802400010014080B500AF79
:1012B40000F068FC00F006F800F030F800F042F8A6
:1012C40000BF80BD80B500AF01226B21D02000F0AB
:1012D400ADF900226C21D02000F0A8F909221921CF
:1012E400D02000F0A3F906221A21D02000F09EF9A4
:1012F40018221B21D02000F099F918221C21D0209B
:1013040000F094F902223721D02000F08FF9002256
:101314006A21D02000F08AF900BF80BD80B500AFFB
:10132400702200213C2000F081F9202201213C2080
:1013340000F07CF9002202213C2000F077F900BF84
:1013440080BD000080B500AF1E2000F0C1F9A220CE
:1013540000F011FA0346DB039AB2224B1A80A42050
:1013640000F009FA204B00221A80A62000F003FAAC
:1013740003461846FFF778F94FF000021B4BFFF7BE
:1013840007FB02460B461A49C1E90023A82000F0D6
:10139400F2F903461846FFF767F94FF00002154BC0
:1013A400FFF7F6FA02460B461349C1E90023AA20C7
:1013B40000F0E1F903461B029AB2104B1A80AC20EC
:1013C40000F0D9F903461846FFF74EF94FF0000232
:1013D4000B4BFFF7DDFA02460B460A49C1E900232D
:1013E40000BF80BD4C0000204E0000200000704073
:1013F40050000020000060405800002060000020E1
:10140400000060416800002080B582B000AF3B213D
:10141400D02000F02EF90346FB803C21D02000F0C0
:1014240028F90346BB80B7F906301A02B7F904302D
:101434001343002B00DA0F331B111A46784B1B6839
:1014440012B21A803D21D02000F013F90346FB802C
:101454003E21D02000F00DF90346BB80B7F90630D9
:101464001A02B7F904301343002B00DA0F331B11AF
:101474001A466B4B1B6812B25A803F21D02000F0F1
:10148400F8F80346FB804021D02000F0F2F8034630
:10149400BB80B7F906301A02B7F904301343002BA6
:1014A40000DA0F331B111A465D4B1B6812B29A8087
:1014B4004121D02000F0DDF80346FB804221D020FA
:1014C40000F0D7F80346BB80B7F906301B0219B207
:1014D400534B1B68BA880A4312B2DA804321D020E6
:1014E40000F0C7F80346FB804421D02000F0C1F887
:1014F4000346BB80B7F906301A02B7F90430134328
:10150400484A82FB0312D211DB17D21A444B1B68E0
:1015140012B21A814521D02000F0ABF80346FB80BB
:101524004621D02000F0A5F80346BB80B7F9063069
:101534001A02B7F9043013433A4A82FB0312D21158
:10154400DB17D21A364B1B6812B25A814721D020BE
:1015540000F08FF80346FB804821D02000F089F882
:101564000346BB80B7F906301A02B7F904301343B7
:101574002C4A82FB0312D211DB17D21A284B1B68A8
:1015840012B29A8103213C2000F073F80346FB80D9
:1015940004213C2000F06DF80346BB80B7F9063007
:1015A4001B0219B21E4B1B68BA880A4312B2DA81B5
:1015B40005213C2000F05DF80346FB8006213C2019
:1015C40000F057F80346BB80B7F906301B0219B286
:1015D400134B1B68BA880A4312B21A8207213C20B3
:1015E40000F047F80346FB8008213C2000F041F856
:1015F4000346BB80B7F906301B0219B2084B1B68BF
:10160400BA880A4312B25A82582000F02FF9044BC8
:101614001B68054A12685A6100BF0837BD4680BD81
:1016240018000020D34D62109000002080B582B0D5
:1016340000AF0346FB710B46BB7113467B7100F090
:1016440001FBFB79184600F01AFB00F07CFBBB7928
:10165400184600F014FB00F076FB7B79184600F086
:101664000EFB00F070FB00F0FDFA00BF0837BD462A
:1016740080BD80B584B000AF03460A46FB711346B3
:10168400BB7100F0DFFAFB79184600F0F8FA00F0BD
:101694005AFBBB79184600F0F2FA00F054FB00F054
:1016A400D1FAFB7943F00103DBB2184600F0E7FA04
:1016B40000F049FB00F009FB0346FB73012000F036
:1016C4002FFB00F0CFFAFB7B18461037BD4680BDD8
:1016D40080B582B000AF0346FB7100F0B3FAEC2092
:1016E40000F0CDFA00F02FFBFB79184600F0C7FAA2
:1016F40000F029FB00F0B6FA00BF0837BD4680BDF4
:1017040080B582B000AF00F09DFAEC2000F0B7FA8B
:1017140000F019FB002000F0B2FA00F014FB00F016
:1017240091FAED2000F0ABFA00F00DFB00F0CDFAD9
:1017340003467B607B681B027B60012000F0F0FAAB
:1017440000F0C3FA03467B607B681B027B600120C8
:1017540000F0E6FA00F0B9FA03467B607B681B02EE
:101764007B60002000F0DCFA00F07CFA7B6818460D
:101774000837BD4680BD80B584B000AF0346FB7119
:1017840000F060FAEC2000F07AFA00F0DCFAFB7961
:10179400184600F074FA00F0D6FA00F053FAED207F
:1017A40000F06DFA00F0CFFA00F08FFA0346FB6008
:1017B400FB681B02FB60012000F0B2FA00F085FA1E
:1017C4000346FB60FB681B02FB60002000F0A8FAE4
:1017D40000F048FAFB689BB218461037BD4680BD3E
:1017E40080B582B000AF0346FB71FB791846FFF762
:1017F4006FFF42F2107001F065FDFFF781FF0346B1
:10180400144A1360134B1B68134A12889B1A1A4616
:10181400124B1A60114B1B681846FEF725FF104B3C
:10182400D3E90023FEF78AFF02460B461046194609
:101834004FF000020B4BFEF7CBFD02460B46104661
:101844001946FFF78DF90346074A136000BF0837AE
:10185400BD4680BD74000020600000207800002098
:101864006800002000409F407C0000202DE9B04F1C
:1018740088B000AF0346FB714820FFF7B1FF4FF07B
:1018840000024FF00003C7E906234FF000024FF0B7
:101894000003C7E904234FF000024FF00003C7E937
:1018A4000223FB791846FFF713FF42F2107001F090
:1018B40009FDFFF725FF0346A44A1360A44B1B88C8
:1018C4001846FEF7D1FE82468B46A24B1B6818468B
:1018D400FEF7CAFEA04BD3E90023FEF72FFF024612
:1018E4000B4650465946FEF773FD02460B4610461A
:1018F4001946FFF75DF902460B469849C1E90023F2
:10190400974B1B881846FEF7AFFE82468B46914BD9
:101914001B681846FEF7A8FE924BD3E90023FEF796
:101924000DFF02460B4650465946FEF751FD02464E
:101934000B4610461946FFF73BF902460B468A4907
:10194400C1E90023894B1B68B3F5FA6F7EDA814B3A
:101954001B68804A126802FB03F31846FEF784FEF4
:101964004FF00002824BFFF713F802460B46C7E91B
:1019740006237E4B1B68A3F5FA637C4A1268A2F522
:10198400FA6203FB02F213469B001344DA0F13447A
:101994005B101846FEF768FE02460B46C7E90423AF
:1019A400724B1B68A3F5FA63704A1268A2F5FA62D7
:1019B40003FB02F213469B001344002B00DA0333AB
:1019C4009B101846FEF750FE02460B46C7E9022359
:1019D400664B1B68674A934238DA644B1B6803F210
:1019E400DC53624A126802F2DC5203FB02F2134631
:1019F400DB009B1A1846FEF737FE02460B46D7E972
:101A04000401FEF7E5FC02460B46C7E90423574BE5
:101A14001B6803F2DC53554A126802F2DC5203FBE2
:101A240002F213469B0013445B001344DA0F134481
:101A34005B101846FEF718FE02460B46D7E9020172
:101A4400FEF7C6FC02460B46C7E90223474B1B6858
:101A54001846FEF709FED7E90623FEF7B7FC02464F
:101A64000B4610461946FFF77BF803463F4A1360BE
:101A74003A4BD3E9002310461946FEF731FED7E965
:101A84000423FEF7A3FC02460B4610461946FFF753
:101A94008FF802460B463149C1E90023324BD3E9A2
:101AA400002310461946FEF71BFED7E90223FEF772
:101AB4008DFC02460B4610461946FFF779F802469C
:101AC4000B462949C1E90023204B1B680022984694
:101AD4009146254BD3E9002302FB09F008FB03F1EF
:101AE4000144A8FB02454B191D4620462946FEF732
:101AF400F7FD4FF00002204BFEF74AFF02460B466B
:101B040014461D46154BD3E9002310461946FEF72B
:101B1400E7FD02460B4620462946FEF757FC0246DF
:101B24000B46104619464FF00002144BFEF730FFE7
:101B340002460B4610461946FFF712F80346104AB0
:101B4400136000BF2037BD46BDE8B08F7000002091
:101B54004E00002078000020580000208000002063
:101B64004C00002050000020880000207C00002051
:101B74000000E04124FAFFFF000040410000E04083
:101B84009000002080B582B000AF0121022000F057
:101B9400C5FD4FF440733B6003237B7101233B710C
:101BA4000123BB713B461946054801F039FA4FF44D
:101BB4004071034801F0DDFA00BF0837BD4680BD1F
:101BC4000004024080B582B000AF0346FB71FB798C
:101BD4001A464FF48071054801F0EAFA0A2001F030
:101BE40071FB00BF0837BD4680BD00BF0004024042
:101BF40080B582B000AF0346FB71FB791A464FF4FF
:101C04000071054801F0D4FA0A2001F05BFB00BF23
:101C14000837BD4680BD00BF0004024080B582B0D5
:101C240000AF4FF40071064801F089FA0346FB71D6
:101C34000A2001F047FBFB7918460837BD4680BDF2
:101C44000004024080B500AF0120FFF7D1FF01205E
:101C5400FFF7B8FF0020FFF7CBFF0020FFF7B2FF2C
:101C640000BF80BD80B500AF0020FFF7C1FF012099
:101C7400FFF7A8FF0120FFF7BBFF00BF80BD80B5C1
:101C840084B000AF0346FB710023FB7315E0FB7BBC
:101C9400802242FA03F35AB297F9073013405BB239
:101CA400DBB21846FFF7A4FF0120FFF78BFF0020EB
:101CB400FFF788FFFB7B0133FB73FB7B072BE6D924
:101CC40000BF00BF1037BD4680BD80B582B000AFF5
:101CD4000023FB710120FFF78BFF0023BB7117E08A
:101CE4000120FFF76FFFFFF799FF0346012B09D18E
:101CF400BB79802242FA03F35AB297F907301343AF
:101D04005BB2FB710020FFF75DFFBB790133BB7150
:101D1400BB79072BE4D9FB7918460837BD4680BD4B
:101D240080B582B000AF0346FB71FB791846FFF71C
:101D34005FFF0120FFF746FF0020FFF743FF00BFCE
:101D44000837BD4680BD80B582B000AF0120FFF7E3
:101D54004FFF0120FFF736FFFFF760FF0346FB71DB
:101D64000020FFF72FFFFB7918460837BD4680BDDA
:101D740080B582B000AF0121012000F0CFFC202308
:101D84003B6003237B7101233B710023BB713B4602
:101D94001946034801F044F900BF0837BD4680BD29
:101DA4000000024080B58AB000AF0121012000F09C
:101DB400B5FC0121022000F0B1FC0121022000F059
:101DC400CDFCC0233B62022387F82430002387F82C
:101DD4002630032387F82530012387F8273007F1BD
:101DE40020031946374801F01BF902220621354821
:101DF40001F0F7F902220721324801F0F2F9032336
:101E04003B62022387F82430002387F8263003231B
:101E140087F82530012387F8273007F12003194676
:101E2400294801F0FDF802220021274801F0D9F9E0
:101E340002220121244801F0D4F9A023BB8200230B
:101E4400FB8240F2CF73BB610023BB8307F1140311
:101E540019461E4800F0C2FC60233B8001237B80AE
:101E64000023BB813B461946184800F063FD3B46FE
:101E74001946164800F0D8FD3B461946134800F0B1
:101E84005BFE3B461946114800F0DCFE08210F4872
:101E940000F078FF08210D4800F090FF08210B485E
:101EA40000F0AAFF0821094800F0C2FF01210748F9
:101EB40000F000FD0121054800F01CFD00BF28379B
:101EC400BD4680BD00000240000402400004004002
:101ED40080B582B000AF0346FB80FB8819460B48EF
:101EE40000F018FFFB881946084800F021FFFB8822
:101EF4001946064800F02AFFFB881946034800F0FB
:101F040033FF00BF0837BD4680BD00BF000400405A
:101F140080B500AFFFF746FF002000F002F800BFD5
:101F240080BD80B582B000AF0346FB7197F90730DE
:101F3400632B05DC97F9073023EAE3735BB200E017
:101F44006423FB7197F907309BB264339BB2184644
:101F5400FFF7BEFF00BF0837BD4680BD80B582B025
:101F640000AF0121042000F0D9FB03233B600323CD
:101F74007B7101233B710123BB713B461946084821
:101F840001F04EF801220121054801F011F9012266
:101F94000221034801F00CF900BF0837BD4680BD9B
:101FA4000008024080B500AF01220221094801F077
:101FB400FFF801220121074801F0FAF8002202216A
:101FC400044801F0F5F800220121024801F0F0F87C
:101FD40000BF80BD0008024080B500AF002202218E
:101FE400074801F0E5F801220121054801F0E0F875
:101FF40001220221024801F0DBF800BF80BD00BFCE
:102004000008024080B584B000AF0346FB71002392
:10201400FB731BE0FB7B802242FA03F35AB297F96D
:10202400073013405BB2DBB21A460221104801F0BC
:10203400BFF8012201210E4801F0BAF80022012163
:102044000B4801F0B5F8FB7B0133FB73FB7B072BDB
:10205400E0D901220121064801F0AAF80022012159
:10206400034801F0A5F800BF1037BD4680BD00BF8E
:102074000008024080B582B000AF0346FB71FFF751
:1020840091FF7820FFF7BEFF0020FFF7BBFFFB792D
:102094001846FFF7B7FFFFF79FFF00BF0837BD469D
:1020A40080BD80B582B000AF0346FB71FFF77AFFB5
:1020B4007820FFF7A7FF4020FFF7A4FFFB7918461D
:1020C400FFF7A0FFFFF788FF00BF0837BD4680BDBC
:1020D40080B582B000AF03460A46FB711346BB715C
:1020E400FB7963F04F03DBB21846FFF7C3FFBB79FC
:1020F4001B09DBB243F01003DBB21846FFF7BAFF4B
:10210400BB7903F00F03DBB21846FFF7B3FF00BF40
:102114000837BD4680BD80B582B000AF0023BB71D7
:1021240014E0BB7900211846FFF7D2FF0023FB71AE
:1021340005E00020FFF7B5FFFB790133FB7197F948
:102144000730002BF5DABB790133BB71BB79072B60
:10215400E7D900BF00BF0837BD4680BD80B584B055
:1021640000AF0346FB710B46BB7113467B71FB79D1
:10217400013BDBB25B00DAB2BB79013BDBB2DB00D3
:10218400DBB219461046FFF7A3FF0023FB730EE0F2
:102194007B79A3F12002FB7B1C4912010A441344FE
:1021A4001B781846FFF77DFFFB7B0133FB73FB7B3A
:1021B400072BEDD9FB79013BDBB25B00DBB20133CA
:1021C400DAB2BB79013BDBB2DB00DBB21946104665
:1021D400FFF77EFF0023FB730FE07B79A3F120025E
:1021E400FB7B0833094912010A4413441B7818463F
:1021F400FFF757FFFB7B0133FB73FB7B072BECD90A
:1022040000BF00BF1037BD4680BD00BF9C800008E2
:1022140080B584B000AF03463A60FB710B46BB71D6
:102224000023FB730EE0BA79FB7B1344D9B2FB7B2A
:102234003A6813441A78FB791846FFF78FFFFB7B43
:102244000133FB73FB7B3A6813441B78002BEAD100
:1022540000BF00BF1037BD4680BD80B485B000AF5D
:10226400786039600123FB6004E0FB687A6802FB54
:1022740003F3FB603B685A1E3A60002BF5D1FB6800
:1022840018461437BD465DF8047B704790B585B099
:1022940000AF3A601A460346FB710B46BB71134606
:1022A4007B710023FB7323E0BA79FB7B1344DCB21C
:1022B4007A79FB7BD31A013B19460A20FFF7CDFF3D
:1022C40002463B68B3FBF2F10E4BA3FB0123DA0891
:1022D40013469B0013445B00CA1AD3B23033DAB2FC
:1022E400FB7921461846FFF739FFFB7B0133FB736B
:1022F400FA7B7B799A42D7D300BF00BF1437BD461F
:1023040090BD00BFCDCCCCCC80B582B000AF002353
:102314007B600CE000233B6002E03B6801333B60E0
:102324003B68B3F57A7FF8D37B6801337B607B68C5
:10233400B3F57A7FEED3FFF711FEAE20FFF79AFED6
:10234400D520FFF797FE8020FFF794FEA820FFF723
:1023540091FE3F20FFF78EFED320FFF78BFE002077
:10236400FFF788FE4020FFF785FEA120FFF782FEDD
:10237400C820FFF77FFEDA20FFF77CFE1220FFF76C
:1023840079FE8120FFF776FECF20FFF773FED92078
:10239400FFF770FEF120FFF76DFEDB20FFF76AFE0A
:1023A4003020FFF767FEA420FFF764FEA620FFF7A6
:1023B40061FE8D20FFF75EFE1420FFF75BFEAF2069
:1023C400FFF758FEFFF7A7FE00BF0837BD4680BDE4
:1023D40080B400AF454B1B6C444A43F001031364C3
:1023E400424B1B6B414A43F001031363404B1B6890
:1023F4003F4A43F0080313603D4B9B683C4A43F05B
:102404000C0393603A4B1B6A394A23F0F0031362BE
:10241400374B1B6A364A43F0100313624FF0804374
:10242400DB6A4FF080426FEA13436FEA0343D362DF
:102434004FF080431B8D9BB24FF0804243F00F035B
:102444009BB213854FF080431B899BB24FF08042AF
:1024540043F060039BB213814FF080431B899BB20E
:102464004FF0804243F004039BB213814FF080434A
:102474001B8B9BB24FF0804243F480739BB2138357
:102484004FF080424FF08043128B92B21A834FF088
:1024940080431B8C9BB24FF0804243F010039BB2ED
:1024A40013844FF080439B899BB24FF0804243F0EA
:1024B40004039BB293810F4B0F4ADA600F4B9022B7
:1024C40083F81C230D4B4FF080521A604FF0804369
:1024D4001B889BB24FF0804243F001039BB21380F0
:1024E40000BFBD465DF8047B704700BF0038024062
:1024F4000000024000ED00E00005FA0500E100E004
:1025040080B483B000AF4FF080431B8A9BB203F0CA
:102514000403002B35D04FF080439B6BFB80FB887A
:1025240040F6AB5293420AD9FB8842F6EC429342FE
:1025340005D8174B01221A80164B00221A80144B1F
:102544001B88012B13D1134B1B881946124AFB8895
:1025540022F811300F4B1B8801339AB20D4B1A80AD
:102564000C4B1B88082B02D9094B00221A804FF010
:1025740080431B8A9BB24FF0804223F004039BB23A
:10258400138200BF0C37BD465DF8047B704700BF63
:10259400A8000020A60000209400002080B400AF12
:1025A400064BD3F88830054A43F47003C2F88830E8
:1025B40000BFBD465DF8047B704700BF00ED00E03E
:1025C40080B489B000AF78600023BB6100237B61D5
:1025D4000023FB6102233B610023FB600223BB60F9
:1025E4004A4B9B6803F00C03BB61BB69082B11D0F9
:1025F400BB69082B44D8BB69002B03D0BB69042BEF
:1026040004D03DE07B68424A1A603DE07B68414A61
:102614001A6039E03D4B5B689B0D03F00103FB60DE
:102624003A4B5B6803F03F03BB60FB68002B0CD0A4
:10263400384ABB68B2FBF3F3344A52689209C2F3D6
:10264400080202FB03F3FB610BE0314ABB68B2FBF7
:10265400F3F32E4A52689209C2F3080202FB03F311
:10266400FB612A4B5B681B0C03F0030301335B0023
:102674003B61FA693B69B2FBF3F27B681A6003E0E1
:102684007B68234A1A6000BF204B9B6803F0F00369
:10269400BB61BB691B09BB611F4ABB6913441B783F
:1026A400DBB27B617B681A687B69DA407B685A60BD
:1026B400164B9B6803F4E053BB61BB699B0ABB6187
:1026C400154ABB6913441B78DBB27B617B685A688B
:1026D4007B69DA407B689A600C4B9B6803F4604327
:1026E400BB61BB695B0BBB610B4ABB6913441B78C1
:1026F400DBB27B617B685A687B69DA407B68DA60AD
:1027040000BF2437BD465DF8047B704700380240A3
:102714000024F40040787D012000002080B483B0C0
:1027240000AF78600B46FB70FB78002B06D00A4B99
:102734001A6B09497B6813430B6306E0064B1A6B5B
:102744007B68DB43044913400B6300BF0C37BD4671
:102754005DF8047B704700BF0038024080B483B04A
:1027640000AF78600B46FB70FB78002B06D00A4B59
:102774001A6C09497B6813430B6406E0064B1A6C18
:102784007B68DB43044913400B6400BF0C37BD4630
:102794005DF8047B704700BF0038024080B483B00A
:1027A40000AF78600B46FB70FB78002B06D00A4B19
:1027B4005A6C09497B6813434B6406E0064B5A6C18
:1027C4007B68DB43044913404B6400BF0C37BD46B0
:1027D4005DF8047B704700BF0038024080B485B0C8
:1027E40000AF786039600023FB817B681B88FB8124
:1027F4007B68294A934213D07B68284A93420FD0BE
:102804007B68B3F1804F0BD07B68254A934207D095
:102814007B68244A934203D07B68234A934208D1BD
:10282400FB8923F07003FB813B685A88FB891343BF
:10283400FB817B681D4A93420CD07B681C4A9342FF
:1028440008D0FB8923F44073FB813B681A89FB8918
:102854001343FB817B68FA891A803B685A687B685A
:10286400DA623B681A887B681A857B680A4A934255
:1028740003D07B68094A934204D13B689B7A9AB29D
:102884007B681A867B6801229A8200BF1437BD4692
:102894005DF8047B704700BF000001400004014064
:1028A4000004004000080040000C004000100040FC
:1028B4000014004080B483B000AF78600B46FB7016
:1028C400FB78002B08D07B681B889BB243F0800305
:1028D4009AB27B681A8007E07B681B889BB223F05E
:1028E40080039AB27B681A8000BF0C37BD465DF83E
:1028F400047B704780B483B000AF78600B46FB70F4
:10290400FB78002B08D07B681B889BB243F0010343
:102914009AB27B681A8007E07B681B889BB223F01D
:1029240001039AB27B681A8000BF0C37BD465DF87C
:10293400047B704780B485B000AF786039600023B1
:102944007B810023FB810023BB817B681B8C9BB2B2
:1029540023F001039AB27B681A847B681B8CFB8189
:102964007B689B88BB817B681B8B7B817B8923F085
:1029740070037B817B8923F003037B813B681A8886
:102984007B8913437B81FB8923F00203FB813B6832
:102994009A89FB891343FB813B685A88FB8913435B
:1029A400FB817B681E4A934203D07B681D4A934295
:1029B40023D1FB8923F00803FB813B68DA89FB8977
:1029C4001343FB81FB8923F00403FB813B689A8852
:1029D400FB891343FB81BB8923F48073BB81BB89CF
:1029E40023F40073BB813B681A8ABB891343BB8100
:1029F4003B685A8ABB891343BB817B68BA899A8036
:102A04007B687A891A833B689A687B685A637B6817
:102A1400FA891A8400BF1437BD465DF8047B7047F9
:102A2400000001400004014080B485B000AF78602C
:102A3400396000237B810023FB810023BB817B68F9
:102A44001B8C9BB223F010039AB27B681A847B68B8
:102A54001B8CFB817B689B88BB817B681B8B7B8188
:102A64007B8923F4E0437B817B8923F440737B815E
:102A74003B681B881B029AB27B8913437B81FB89C9
:102A840023F02003FB813B689B891B019AB2FB89DD
:102A94001343FB813B685B881B019AB2FB89134398
:102AA400FB817B68224A934203D07B68214A93428C
:102AB4002BD1FB8923F08003FB813B68DB891B015D
:102AC4009AB2FB891343FB81FB8923F04003FB810A
:102AD4003B689B881B019AB2FB891343FB81BB892A
:102AE40023F48063BB81BB8923F40063BB813B680F
:102AF4001B8A9B009AB2BB891343BB813B685B8AE8
:102B04009B009AB2BB891343BB817B68BA899A80C4
:102B14007B687A891A833B689A687B689A637B68C6
:102B2400FA891A8400BF1437BD465DF8047B7047E8
:102B3400000001400004014080B485B000AF78601B
:102B4400396000237B810023FB810023BB817B68E8
:102B54001B8C9BB223F480739AB27B681A847B68C3
:102B64001B8CFB817B689B88BB817B689B8B7B81F7
:102B74007B8923F070037B817B8923F003037B81B2
:102B84003B681A887B8913437B81FB8923F4007398
:102B9400FB813B689B891B029AB2FB891343FB812F
:102BA4003B685B881B029AB2FB891343FB817B68F9
:102BB400224A934203D07B68214A93422BD1FB895A
:102BC40023F40063FB813B68DB891B029AB2FB8917
:102BD4001343FB81FB8923F48063FB813B689B885F
:102BE4001B029AB2FB891343FB81BB8923F48053F4
:102BF400BB81BB8923F40053BB813B681B8A1B0147
:102C04009AB2BB891343BB813B685B8A1B019AB2AE
:102C1400BB891343BB817B68BA899A807B687A89B4
:102C24009A833B689A687B68DA637B68FA891A84BA
:102C340000BF1437BD465DF8047B704700000140B7
:102C44000004014080B485B000AF7860396000238F
:102C5400BB8100237B810023FB817B681B8C9BB29F
:102C640023F480539AB27B681A847B681B8C7B8123
:102C74007B689B88FB817B689B8BBB81BB8923F42E
:102C8400E043BB81BB8923F44073BB813B681B8851
:102C94001B029AB2BB891343BB817B8923F4005383
:102CA4007B813B689B891B039AB27B8913437B819D
:102CB4003B685B881B039AB27B8913437B817B68E7
:102CC400124A934203D07B68114A93420AD1FB898A
:102CD40023F48043FB813B681B8A9B019AB2FB89E6
:102CE4001343FB817B68FA899A807B68BA899A834B
:102CF4003B689A687B681A647B687A891A8400BF87
:102D04001437BD465DF8047B704700BF00000140E6
:102D14000004014080B483B000AF786039607B6800
:102D24003A685A6300BF0C37BD465DF8047B7047B0
:102D340080B483B000AF786039607B683A689A6386
:102D440000BF0C37BD465DF8047B704780B483B088
:102D540000AF786039607B683A68DA6300BF0C378B
:102D6400BD465DF8047B704780B483B000AF7860E3
:102D740039607B683A681A6400BF0C37BD465DF859
:102D8400047B704780B485B000AF78600B467B80CD
:102D94000023FB817B681B8BFB81FB8923F00803E9
:102DA400FB81FA897B881343FB817B68FA891A8348
:102DB40000BF1437BD465DF8047B704780B485B00E
:102DC40000AF78600B467B800023FB817B681B8B04
:102DD400FB81FB8923F40063FB817B881B029AB28D
:102DE400FB891343FB817B68FA891A8300BF14377C
:102DF400BD465DF8047B704780B485B000AF786051
:102E04000B467B800023FB817B689B8BFB81FB89CA
:102E140023F00803FB81FA897B881343FB817B68D9
:102E2400FA899A8300BF1437BD465DF8047B704766
:102E340080B485B000AF78600B467B800023FB81B3
:102E44007B689B8BFB81FB8923F40063FB817B887C
:102E54001B029AB2FB891343FB817B68FA899A832C
:102E640000BF1437BD465DF8047B704780B58AB057
:102E740000AF7860396000237B6200233B6200234B
:102E8400FB610023BB617B681B8A9BB27B627B6A0C
:102E940023F440537B623B68DB881A467B6A134306
:102EA4007B627B6A9AB27B681A827B689B899BB23D
:102EB4007B627B6A23F4B05323F00C037B623B6890
:102EC4009A883B681B8913439AB23B685B89134316
:102ED4009BB21A467B6A13437B627B6A9AB27B6815
:102EE4009A817B689B8A9BB27B627B6A23F44073E2
:102EF4007B623B689B891A467B6A13437B627B6ACD
:102F04009AB27B689A8207F108031846FFF758FBC8
:102F14007B68304A934203D07B682F4A934202D1A4
:102F24007B693B6201E03B693B627B689B899BB2A6
:102F34001BB2002B0CDA3A6A13469B0013449A0026
:102F44001A443B681B685B00B2FBF3F3FB610BE0C4
:102F54003A6A13469B0013449A001A443B681B6860
:102F64009B00B2FBF3F3FB61FB691C4AA2FB032346
:102F74005B091B017B627B6A1B09642202FB03F36E
:102F8400FA69D31ABB617B689B899BB21BB2002B85
:102F94000CDABB69DB003233104AA2FB03235B0962
:102FA40003F007037A6A13437B620BE0BB691B01DE
:102FB40032330A4AA2FB03235B0903F00F037A6A44
:102FC40013437B627B6A9AB27B681A8100BF2837FD
:102FD400BD4680BD00100140001401401F85EB5127
:102FE40080B483B000AF78600B46FB70FB78002B95
:102FF40008D07B689B899BB243F400539AB27B68E8
:103004009A8107E07B689B899BB223F400539AB2B0
:103014007B689A8100BF0C37BD465DF8047B70471E
:1030240080B487B000AF7860396000237B610023EF
:103034003B610023FB6000237B6176E001227B6916
:1030440002FA03F33B613B681B683A691340FB6077
:10305400FA683B699A4265D17B681A687B695B00B0
:10306400032101FA03F3DB431A407B681A607B688F
:103074001A683B681B7919467B695B0001FA03F304
:103084001A437B681A603B681B79012B03D03B68A9
:103094001B79022B2ED17B689A687B695B00032124
:1030A40001FA03F3DB431A407B689A607B689A68F1
:1030B4003B685B7919467B695B0001FA03F31A43A9
:1030C4007B689A607B685A687B699BB219460123C6
:1030D4008B40DB431A407B685A607B685B683A68C4
:1030E400927911467A6992B201FA02F292B21A43C3
:1030F4007B685A607B68DA687B699BB25B0003215A
:1031040001FA03F3DB431A407B68DA607B68DA6810
:103114003B68DB7919467B695B0001FA03F31A43C8
:103124007B68DA607B6901337B617B690F2B85D90E
:1031340000BF00BF1C37BD465DF8047B704780B4F8
:1031440085B000AF78600B467B800023FB737B68FF
:103154001A697B881340002B02D00123FB7301E022
:103164000023FB73FB7B18461437BD465DF8047BD4
:10317400704780B483B000AF78600B467B807A8858
:103184007B689A6100BF0C37BD465DF8047B7047CD
:1031940080B483B000AF78600B467B807B881A04D0
:1031A4007B689A6100BF0C37BD465DF8047B7047AD
:1031B40080B483B000AF78600B467B8013467B708D
:1031C4007B78002B03D07A887B689A6103E07B8844
:1031D4001A047B689A6100BF0C37BD465DF8047B16
:1031E400704780B485B000AF78600B467B8013468F
:1031F4007B700023FB600023BB607A787B8803F03C
:1032040007039B0002FA03F3FB607B88DB089BB295
:103214001A467B68083253F822207B8803F00703A0
:103224009B000F2101FA03F3DB437988C90889B2B3
:10323400084602EA03017B6800F1080243F8221001
:103244007B88DB089BB21A467B68083253F822302D
:10325400FA681343BB607B88DB089BB21A467B6821
:103264000832B96843F8221000BF1437BD465DF830
:10327400047B704780B400AF094B1B68084A43F0D5
:1032840080731360074B00221A60074B1B68064AC1
:1032940043F00103136000BFBD465DF8047B704733
:1032A400FCED00E0041000E0001000E080B400AF8A
:1032B400034B1B681846BD465DF8047B704700BF8E
:1032C400041000E080B586B000AF786000233B6155
:1032D400194B1B68194AA2FB03239B0C7A6802FB57
:1032E40003F3FB6000233B61FFF7E0FF7861FFF726
:1032F400DDFFB860BA687B699A42F8D0BA687B6926
:103304009A4206D9BA687B69D31A3A6913443B6175
:1033140006E0BA687B69D21A3B691344013B3B61FE
:10332400BB687B613A69FB689A4200D2DFE700BF61
:1033340000BF1837BD4680BD1C00002083DE1B4340
:1033440080B483B000AF03463960FB7197F907304E
:10335400002B0BDA3B68DAB20C49FB7903F00F035C
:10336400043B1201D2B20B441A7609E03B68DAB28C
:10337400074997F907301201D2B20B4483F80023AE
:1033840000BF0C37BD465DF8047B704700ED00E0DC
:1033940000E100E080B582B000AF78607B68013B5B
:1033A400B3F1807F01D301230FE00A4A7B68013B1C
:1033B40053600F214FF0FF30FFF7C2FF054B00228F
:1033C4009A60044B07221A60002318460837BD464A
:1033D40080BD00BF10E000E080B500AF1348FFF7E8
:1033E400EFF8124B5B681846FFF7D4FFFFF742FF74
:1033F400FEF7BEFCFDF700FFFDF758FFFDF798FE52
:10340400FEF782FFFEF784FDFEF7E2FF00F01EFBED
:1034140002F0F4FF0523064A0021064801F0E2F910
:1034240000F00AFC0023184680BD00BFAC01002058
:10343400A80100203D34000880B582B000AF786058
:10344400FDF7E2FF454BB3F900301A46052301218D
:103454000120FDF719FE414BB3F902301A4605234A
:1034640001210220FDF710FE3C4BB3F904301A464B
:10347400052301210320FDF707FE384BB3F908307B
:103484001A46052308210120FDF7FEFD334BB3F94D
:103494000A301A46052308210220FDF7F5FD2F4BBB
:1034A400B3F90C301A46052308210320FDF7ECFD7F
:1034B4002A4BB3F90E301A46052301210420FDF7E7
:1034C400E3FD264BB3F910301A46052308210420E6
:1034D400FDF7DAFD224A01210120FEF799FE214B76
:1034E4005B881A46052301210220FEF7CFFE1D4BFF
:1034F4009B881A46052308210220FEF7C7FE194BB4
:10350400DB881A46052301210320FEF7BFFE154B75
:103514001B891A46052308210320FEF7B7FE114B29
:103524005B891A46052301210420FEF7AFFE0D4BEB
:103534009B891A46052308210420FEF7A7FE094BA0
:10354400DB88094AA2FB0323DB089BB2DBB2643BA2
:10355400DBB25BB21846FEF7E4FC71E70000002022
:103564002079000894000020CDCCCCCC80B400AFEE
:1035740000BFBD465DF8047B704780B400AFFEE732
:1035840080B400AFFEE780B400AFFEE780B400AFC4
:10359400FEE780B400AF00BFBD465DF8047B704712
:1035A40080B400AF00BFBD465DF8047B70470000E7
:1035B40080B584B000AF0346FB800023FB601B4B47
:1035C4001B78002B01D000232CE04020FCF70FFED9
:1035D400F860174B1B68BB60154B1B68002B04D0AD
:1035E400134B1B685B68124A1360F868FCF70DFE06
:1035F400BB68002B15D0BB6803221A70BB68FA881D
:103604001A81BB6800225A60BB680A4A5A61B868CA
:1036140000F039FDB968BB685B691A462E2002F0D8
:1036240055FEBB6818461037BD4680BD18050020FE
:10363400C00100203079000880B586B000AFF86082
:10364400B9607A6000237B61FB68002B03D17B683F
:1036540004221A70A8E0FB68184603F09DFF034695
:10366400BA681946312003F019FAFB681B78032B5A
:1036740009D07B6801221A707B681B7819463120B7
:1036840003F0A8FD90E04A4B1B78002B09D07B681F
:1036940002221A707B681B781946312003F09AFDC8
:1036A40082E0444B1B78002B09D07B680D221A70F2
:1036B4007B681B781946312003F08CFD74E04020B0
:1036C400FCF795FD7861FB681B89002B12D0FB6821
:1036D4001B89013B9AB2FB681A817869FCF795FD56
:1036E4007B6800221A707B681B781946312003F02E
:1036F40071FD59E0304B1B6893F838202E4B1B6842
:1037040042F00102D2B283F838202B4B1B6800220E
:1037140083F83920284B1B68BA685A63F86800F0AC
:10372400E1FB7869FCF771FD00F038FE4020FCF7FE
:103734005EFD7861204B1B6893F83930002B02D072
:10374400022B04D007E07B6800221A700DE07B682E
:103754000E221A7009E0184B1B68F968184600F02D
:103764001BFC7B680A221A7000BF134B1B680022E3
:1037740083F83820104B1B68002283F839200E4B45
:103784001B680022DA610C4B1B6800221A620A4B88
:103794001B6800225A627869FCF737FD7B681B7846
:1037A4001946312003F016FD1837BD4680BD00BF11
:1037B40018050020190500203007002080B584B0CA
:1037C40000AF78600023FB607B68002B01D10423E9
:1037D40048E07B68184603F0DFFE034619463020B4
:1037E40003F020F97B681B78032B05D001213020DE
:1037F40003F0F0FC012335E04020FCF7F8FCF8600E
:103804007B689B7A002B10D000230122002178686A
:1038140000F0EEFAF868FCF7F8FC00F0BFFD0021B8
:10382400302003F0D7FC00231CE07B681B894FF693
:10383400FF7293420ED07B681B8901339AB27B6876
:103844001A81F868FCF7E1FC0021302003F0C2FC87
:10385400002307E0F868FCF7D8FC3321302003F09C
:10386400B9FC332318461037BD4680BD80B584B0FB
:1038740000AF6021194800F077FD0023FB8118E0B8
:10388400FB890133FB80FA8913465B001344DB0098
:10389400124A1344BB60FA8813465B001344DB00EE
:1038A4000E4A13443B60BB683A681A60FB890133D3
:1038B400FB81FB89022BE3D9FA8913465B0013448D
:1038C400DB00064A1344BB60BB6800221A60044B49
:1038D400024A1A6000BF1037BD4680BDAC100020FC
:1038E400A810002080B584B000AF78600023FB608E
:1038F400234B1B78002B3DD1224B1B78002B3BD153
:103904007B68002B39D04020FCF771FCF8601E4B1B
:103914001B6893F83C30FB72FB7A1C4AD15C1A4B4F
:103924001B6893F83D30DB43DAB2FB7A0A40D1B22C
:10393400164AD154144B1B68184602F071FBFB7AEB
:10394400124AD35C002B0BD10F4B1B6893F83E300B
:10395400DB43DAB20E4B1B781340DAB20C4B1A700D
:10396400094B1B687A685A63F868FCF74EFC00F050
:1039740015FD02E000BF00E000BF1037BD4680BD6A
:10398400180500201905002030070020200500201C
:103994001C05002080B582B000AF00237B6040206E
:1039A400FCF725FC7860054B1B683B607868FCF7E6
:1039B4002CFC3B6818460837BD4680BD101100201A
:1039C40080B586B000AFF860B9607A6000237B618F
:1039D400FB68002B03D17B6804221A7030E0BB68BB
:1039E400002B03D17B680C221A7029E0164B1B783C
:1039F400002B03D07B6812221A7021E0FB681B782D
:103A0400013B032B03D97B6801221A7018E000BF25
:103A14004020FCF7ECFB7861FB68BA685A6178696E
:103A2400FCF7F3FBFB68002B07D0BB68002B04D02A
:103A3400FB68B968184602F001FC7B6800221A7022
:103A44001837BD4680BD00BF1805002080B500AF03
:103A540001F052FE00F07EFB00F0BAFB00F036FCF1
:103A640000F02EFB01F076FA01F0D4FCFFF7FEFE25
:103A740000F0E0FB00F004FC01F0F0FA01F07CFE41
:103A840001F04CFD00BF80BD80B500AF084B1B7832
:103A9400012B0BD1074B1B78FF2B05D0054B1B7853
:103AA4000133DAB2034B1A7003F01AFB00BF80BD76
:103AB400280500201805002080B582B000AF00233F
:103AC4007B60244B1B78012B3FD14020FCF78FFBFC
:103AD4007860214B1B78002B05D01F4B1B78013BD2
:103AE400DAB21D4B1A701C4B1B78002B28D11B4BD0
:103AF4001B78002B21D100F093FC194B1B781A463C
:103B0400184B53F82230184A1360154B1A78174B88
:103B14001B789A420ED0144B1B681A6C01321A643B
:103B2400134B1B680133124A136003F037FBFCF795
:103B3400B5FB07E003F016FB04E003F013FB01E020
:103B440003F010FB7868FCF760FB00BF0837BD4644
:103B540080BD00BF2805002018050020190500209D
:103B64001B05002040070020380700201A0500200C
:103B7400BC01002080B582B000AF00237B600E4BF7
:103B84001B78012B14D14020FCF731FB78600B4BE0
:103B94001B78002B09D10A4B1B78FF2B05D0084B4F
:103BA4001B780133DAB2064B1A707868FCF72DFBE8
:103BB40000BF0837BD4680BD280500201805002039
:103BC4001905002080B582B000AF00237B60174B3D
:103BD4001B78012B26D14020FCF709FB7860144B9D
:103BE4001B78002B1BD1134B1B78002B13D0114BCC
:103BF4001B78013BDAB20F4B1A700E4B1B78002B6B
:103C040005D17868FCF701FB00F0C8FB0AE078688E
:103C1400FCF7FBFA06E07868FCF7F7FA02E078684C
:103C2400FCF7F3FA00BF0837BD4680BD2805002025
:103C3400180500201905002080B500AF0C4B1B7837
:103C4400002B13D100F0ECFB0A4B1A780A4B1A70C4
:103C5400084B1B781A46094B53F82230084A136064
:103C6400074B1B68074A1360FCF7D8FA00BF80BDF6
:103C7400280500201B0500201A050020400700200D
:103C8400380700203007002080B584B000AF00233F
:103C94007B6001F05DFF4020FCF7A9FA78604A4B95
:103CA4001B680133484A1360474B1B68194621209F
:103CB40002F0B8FE7868FCF7A8FA444B1B78012B95
:103CC4007ED1434B1B78022B0CD0022B10DC002B33
:103CD40002D0012B03D00BE00123FB720EE0002382
:103CE400FB720BE00123FB72394B01221A7005E0D1
:103CF4000123FB72364B00221A7000BFFB7A002BA3
:103D04005DD0344B1B68FB6053E04020FCF76FFA36
:103D14007860FB685B6B002B45D0FB685B6B5A1EBD
:103D2400FB685A63FB685B6B002B3CD1FB6893F820
:103D3400383003F03703002B0DD0FB6893F838308C
:103D440023F03703DAB2FB6883F83820FB680122DA
:103D540083F8392003E0FB68002283F83920FB68EC
:103D640093F8383003F00803002B1CD1FB6893F858
:103D74003E20194B1B781343DAB2174B1A70FB68B9
:103D840093F83C301A46154B9A5CFB6893F83D3027
:103D9400F96891F83C101343DAB2104B5A54FB689B
:103DA400184602F011F9FB685B69FB607868FCF760
:103DB4002CFAFB6893F83A303F2BA6D100E000BF01
:103DC4001037BD4680BD00BF10110020280500201B
:103DD400281000203C0700201C050020200500209E
:103DE40080B400AF00BFBD465DF8047B704700009F
:103DF40080B586B000AFF860B96011461A460B462C
:103E0400FB711346BB71FB689B7A1A46314B9B5C72
:103E1400FB75FB7DFA681344DB7A1A462D4B9B5CD9
:103E2400BB75FB7DDB00DAB2BB7D13447B757B7D08
:103E3400294A52F823303B613B6900225A633B69AB
:103E4400BA689A623B6993F83820FB79DB43DBB2AA
:103E54001340DAB23B6983F838203B69BA7983F8B6
:103E640039203B6993F8383003F00803002B17D14D
:103E74003B6993F83E20194B1B781343DAB2174B76
:103E84001A70FB7D164AD15C3B6993F83D20FB7D9B
:103E94000A43D1B2124AD1543B69184602F094F84D
:103EA400F968386900F078F83B691B6A002B0BD07D
:103EB4003B691B6A1946386900F0A1F83B69002286
:103EC4001A623B69FA685A627B7D18461837BD4608
:103ED40080BD00BF8C860008400700201C05002020
:103EE4002005002080B584B000AF7860274B1B68A4
:103EF4007A68DA61254B1B6893F83C301A467B6874
:103F04001344DA7A214B1B6893F83D301F49096842
:103F140091F83C101343DAB27B680B44DA727B6885
:103F24009A7A1A4B1B6893F83E301343DAB27B68D3
:103F34009A72164B1B6893F83C30FB73FB7B144A54
:103F4400D15C124B1B6893F83D30DB43DAB2FB7B48
:103F54000A40D1B20E4AD1540C4B1B68184602F0E9
:103F64005FF8FB7B0A4AD35C002B0BD1074B1B6821
:103F740093F83E30DB43DAB2064B1B781340DAB2D7
:103F8400044B1A7000BF1037BD4680BD30070020B7
:103F9400200500201C05002080B485B000AF7860A7
:103FA40039607B6893F83C30FB73FB7B3A681344BD
:103FB400D97A7B6893F83D30DB43DAB2FB7B0A4065
:103FC400D1B23A6813440A46DA72FB7B3A68134466
:103FD400DB7A002B0AD13B689A7A7B6893F83E30EF
:103FE400DB43DBB21340DAB23B689A727B6800228F
:103FF400DA6100BF1437BD465DF8047B704780B4B6
:1040040087B000AF786039607B6893F83C30FB730D
:104014007B6893F83E30BB737B6893F83D307B73C9
:104024003B687B617B691B683B6122E0FB7B3A69EF
:104034001344D97A7B7BDB43DAB2FB7B0A40D1B2EF
:104044003A6913440A46DA72FB7B3A691344DB7A11
:10405400002B08D13B699A7ABB7BDB43DBB213406C
:10406400DAB23B699A727B6904337B617B691B68B2
:104074003B613B69002BD9D100BF00BF1C37BD4653
:104084005DF8047B704780B485B000AF78607B68CE
:1040940000229A720023FB7307E0FB7B7A681344C7
:1040A4000022DA72FB7B0133FB73FB7B072BF4D911
:1040B40000BF00BF1437BD465DF8047B70470000A5
:1040C40080B584B000AFF0211F4800F04DF9002303
:1040D400FB811EE0FB890133FB80FA8913465B00F8
:1040E4001344DB00184A1344BB60FA8813465B0090
:1040F4001344DB00144A13443B60BB6800221A706B
:10410400BB683A685A60BB68104A5A61FB8901333C
:10411400FB81FB89082BDDD9FA8913465B00134424
:10412400DB00094A1344BB60BB6800221A70BB68F9
:1041340000225A60BB68054A5A61054B024A1A605C
:1041440000BF1037BD4680BDC4010020347900088B
:10415400C001002080B400AF124B00221A60124B41
:1041640000221A70114B00221A70114B00221A708F
:10417400104B00221A70104B00221A600F4B0022C1
:104184001A600F4B00221A600E4B00221A600E4B6D
:1041940000221A700D4B00221A7000BFBD465DF854
:1041A400047B704710110020180500201905002019
:1041B4002905002028050020BC0100202C05002032
:1041C400100300200C030020140300200C11002015
:1041D40080B483B000AF114B00221A700023FB712E
:1041E40006E0FB790E4A0021D154FB790133FB71BF
:1041F400FB79072BF5D90B4B00221A700A4B0022CE
:104204001A700A4B00221A60094B00221A6000BF80
:104214000C37BD465DF8047B704700BF1C050020C9
:10422400200500201A0500201B0500203807002067
:104234003007002080B588B006AF03230493002321
:104244000393802302930A4B01934FF6FF73009369
:104254003F23084A0021084800F054FBFB1D1A467E
:1042640006493F2000F0E4FC00BF0837BD4680BD8E
:10427400300500202C0700206D4400083879000820
:1042840080B588B006AF03230493002303938023EF
:1042940002930A4B01934FF6FE7300933E23084AA0
:1042A4000021084800F02EFBFB1D1A4606493E205B
:1042B40000F0BEFC00BF0837BD4680BD18030020D7
:1042C400140500209D4400084879000880B584B096
:1042D40000AF4FF4FD611F4800F046F84FF48071C1
:1042E4001D4800F041F80023FB7319E0FB7B013308
:1042F400FB71FB7B5C2202FB03F3164A1344BB6095
:10430400FB795C2202FB03F3124A13443B60BB6853
:104314003A685A61BB68114A5A65FB7B0133FB73E7
:10432400FB7B142BE2D9FB7B5C2202FB03F3094ADF
:104334001344BB60BB6800225A61BB68074A5A65D4
:10434400074B00221A60074B024A1A6000BF10375D
:10435400BD4680BD40080020400700203479000895
:104364003C0700203407002080B483B000AF78609D
:104374000B467B8007E07B685A1C7A6000221A7027
:104384007B88013B7B807B88002BF4D100BF00BF7E
:104394000C37BD465DF8047B7047000080B582B0E1
:1043A40000AF00237B604020FBF721FF7860154BB2
:1043B4001B78002B1FD1144B1B78002B1BD100F052
:1043C4002FF8124B1B781A46114B53F82230114A1E
:1043D40013600E4B1A78104B1B789A420BD00D4B7E
:1043E4001B681A6C01321A640C4B1B6801330B4AAC
:1043F4001360FBF753FF7868FBF707FF00BF08372C
:10440400BD4680BD18050020190500201B050020AD
:1044140040070020380700201A050020BC010020B6
:1044240080B483B000AF0C4B1B781A460B4B9B5CDB
:10443400FB71FB79DB00DAB2FB790949CB5C1946E5
:10444400064B5B5C1344DAB2064B1A7000BF0C37A0
:10445400BD465DF8047B70471C0500208C8600086F
:10446400200500201B05002080B584B000AF7860D3
:104474000023FB604020FBF7BAFEF860054B1B6885
:104484000133044A1360F868FBF7BFFE01F091F9A9
:10449400F0E700BF2C05002080B584B000AF786041
:1044A4000023FB6002E01420FFF71CFA304B1B785A
:1044B400002BF8D02F4B1B682F4AA2FB03235B0968
:1044C4002C4A13602B4B1B68002B05D12B4B00226D
:1044D4001A70FF2000F084FC4020FBF788FEF8608F
:1044E400244B1B68642202FB03F3254A1360F8681B
:1044F400FBF78BFE0120FFF7F5F94020FBF777FE71
:10450400F8601F4B00221A60F868FBF77EFE0A2051
:10451400FFF7E8F94020FBF76AFEF860184B1B68C8
:10452400184A1360F868FBF770FE164B1A68114BB3
:104534001B68B2FBF3F3DBB2C3F16403DBB2FB72BF
:1045440097F90B30002B03DBFA7A0C4B1A700AE054
:104554000A4B00221A700B4B1B68074AA2FB032369
:104564005B09044A136001F035F900F00DF8C1E766
:10457400140300200C0300201F85EB5108030020C6
:104584002C0500201003002080B584B000AF002368
:10459400FB7323E03A46FB7B1146184600F0B2FB5E
:1045A4000346BB73BB7B002B15D1FB7B0F4A52F830
:1045B4002330BB60BB68002B0DD0BB68012B0AD035
:1045C400BB689A68BB68DB689B001A44BB68DA6402
:1045D4007A68BB681A65FB7B0133FB73FB7B3F2B5B
:1045E400D8D900BF00BF1037BD4680BD40070020AA
:1045F40080B588B000AFB9607A601A460346FB7391
:104604001346BB810023BB614020FBF7F0FDB8617A
:104614006D4B1B687B617B69002B00F0CD807B694F
:104624005B69694A1360B869FBF7EFFD7B69BA6897
:104634001A607B69FA7B83F83A207B69002283F84D
:1046440038207B69002283F839207B6900225A6371
:104654007B69FA6A5A607B69BA6ADA607B697A684C
:104664009A607B693A8E1A827B69BA895A827B691D
:10467400002283F83F20FB7BDB08DAB27B6983F8F6
:104684003C20FB7B03F00703DAB27B6983F83B2011
:104694007B6993F83C301A4601239340DAB27B6974
:1046A40083F83E207B6993F83B301A4601239340FC
:1046B400DAB27B6983F83D207B690022DA617B6989
:1046C40000221A627B6900225A627B690022DA6244
:1046D4007B6900229A627B6900221A647B6900224A
:1046E4009A647B6900225A647B690022DA647B69DC
:1046F40000221A657B69354A5A650023FB7708E076
:10470400FA7F7B691632002143F82210FB7F0133C4
:10471400FB77FB7F002BF3D0786901F00DFA402082
:10472400FBF765FDB861FB7B29497A6941F82320D1
:10473400B869FBF76AFD786901F025F84020FBF7BA
:1047440056FDB861234B1A687B695A617B69002264
:104754009A61204B1B68002B03D01E4B1B687A699F
:104764009A611C4A7B6913607B6993F83E201A4B5B
:104774001B781343DAB2184B1A707B6993F83C30F8
:104784001A46164B9A5C7B6993F83D30796991F827
:104794003C101343DAB2114B5A54114B1B780133BA
:1047A400DAB20F4B1A707B69184601F00DFCB86938
:1047B400FBF72BFD002303E0B869FBF726FD42233A
:1047C40018462037BD4680BD3407002034790008E0
:1047D400400700203C0700201C0500202005002085
:1047E40029050020B0B58CB004AFF860B9607A60D8
:1047F400FB700023FB61FB783F2B01D92A2377E070
:104804004020FBF7F4FCF8613B4B1B78002B04D0F1
:10481400F869FBF7FAFC3C236AE0FB78374A52F864
:104824002330002B60D1FB78344A012142F8231055
:10483400F869FBF7EAFC00237A68B968F86800F0C5
:10484400CFFFB861F878002302930023019300237B
:10485400009300230022B969FFF7CAFE0346FB75E3
:10486400FB7D002B32D1FB78244A52F82330002BF5
:1048740025D0FB78214A52F82330184602F01EFD59
:10488400FB781E4A52F823301D46FB781B4A52F827
:104894002330596DFB78194A52F8233093F83A20A3
:1048A400FB78164850F823309868FB78134C54F87A
:1048B4002330DB6800930346284601F0C7FB104B06
:1048C4001B78012B0ED1FFF769FD0BE04020FBF7AD
:1048D4008EFCF861FB78094A002142F82310F8693C
:1048E400FBF793FCFB7D03E0F869FBF78EFC2823C0
:1048F40018462037BD46B0BD1805002040070020EB
:1049040028050020B0B58CB004AFF860B9607A60B7
:10491400FB700023FB61FB783F2B01D92A2381E044
:104924004020FBF764FCF861404B1B78002B04D05B
:10493400F869FBF76AFC3C2374E0FB783C4A52F8C4
:104944002330002B6AD1FB78394A012142F8231025
:10495400F869FBF75AFCB7F840301A46B96B786B24
:1049640000F0D4FAB7F840307A68B968F86800F013
:1049740037FFB8613A8EF878B7F840300293FB6B92
:104984000193BB6B009313467A6BB969FFF730FE52
:104994000346FB75FB7D002B32D1FB78244A52F889
:1049A4002330002B25D0FB78214A52F823301846B7
:1049B40002F084FCFB781E4A52F823301D46FB7833
:1049C4001B4A52F82330596DFB78194A52F82330A8
:1049D40093F83A20FB78164850F823309868FB780F
:1049E400134C54F82330DB6800930346284601F047
:1049F4002DFB104B1B78012B0ED1FFF7CFFC0BE0E6
:104A04004020FBF7F4FBF861FB78094A002142F8E7
:104A14002310F869FBF7F9FBFB7D03E0F869FBF76A
:104A2400F4FB282318462037BD46B0BD18050020E6
:104A3400400700202805002080B586B000AF03465B
:104A4400FB7100237B616F4B1B78002B01D040234B
:104A5400D4E0FB793F2B01D13E23CFE0FB793E2B01
:104A640004D9FB79FF2B01D02A23C7E04020FBF7B0
:104A7400BEFB7861FB79FF2B04D1634B1B6893F871
:104A84003A30FB71FB79614A52F823303B613B6950
:104A9400002B04D17869FBF7B8FB4323AEE03B69F4
:104AA400012B04D17869FBF7B0FB3D23A6E03B69F9
:104AB40093F83C301A46564B9A5C3B6993F83D3068
:104AC400DB43DBB2396991F83C101340DAB2504B46
:104AD4005A543B69184601F0A3FA3B6993F83C30F9
:104AE4001A464B4B9B5C002B0AD13B6993F83E3032
:104AF400DB43DAB2474B1B781340DAB2454B1A70EA
:104B04003B69DB69002B05D03B69DB6919463869D1
:104B1400FFF742FA3B691B6A002B05D03B691B6A0D
:104B240019463869FFF76BFA3B69DB6AFB60FB687F
:104B3400002B02D0F86800F04FFA3B6900225A6358
:104B44003B69002283F838203B69002283F839202E
:104B5400314B1B78FF2B05D02F4B1B780133DAB276
:104B64002D4B1A707869FBF750FBFFF739F9402099
:104B7400FBF73DFB7861284B1B78002B05D0264BB7
:104B84001B78013BDAB2244B1A70386900F006FE38
:104B9400224B1B78013BDAB2204B1A70FB791B4A7B
:104BA400002142F823103B699B69002B08D13B6923
:104BB4005B6900229A613B695B69194A136009E0E9
:104BC4003B699B693A6952695A613B695B693A6915
:104BD40092699A61134B1A683B695A61114A3B699D
:104BE40013603B69104A5A657869FBF70EFB0F4B5B
:104BF4001B78012B01D1FFF7D1FB0023184618378E
:104C0400BD4680BD18050020300700204007002065
:104C1400200500201C05002019050020290500207E
:104C24003C0700203407002058790008280500209C
:104C340090B589B002AF0346B9607A60FB73002374
:104C44007B61FB7B3F2B06D9FB7BFF2B03D07B686F
:104C54002A221A704DE0BB68002B03D17B680C221A
:104C64001A7046E0244B1B78002B03D07B68122279
:104C74001A703EE04020FBF7BAFA7861FB7BFF2B09
:104C840004D11E4B1B6893F83A30FB73FB7B1C4A20
:104C940052F823303B613B69002B06D17869FBF75E
:104CA400B4FA7B6843221A7023E03B69012B06D1D6
:104CB4007869FBF7AAFA7B6843221A7019E03B690A
:104CC400BA685A653B69002B0DD038693B69596D48
:104CD4003B6993F83A203B699C683B69DB68009325
:104CE400234601F019FA7869FBF78FFA7B680022F2
:104CF4001A701C37BD4690BD1805002030070020EF
:104D04004007002080B588B000AF03463960FB71CE
:104D140000237B61FB793F2B04D9FB79FF2B01D066
:104D24002A2354E03B68002B01D109234FE03B6860
:104D340000221A603B6800225A604020FBF757FAB1
:104D44007861FB79FF2B04D1234B1B6893F83A302D
:104D5400FB71FB79214A52F823303B613B69002BFC
:104D640004D17869FBF751FA432330E03B69012B06
:104D740004D17869FBF749FA432328E03B691B8A8D
:104D840003F00103002B04D17869FBF73EFA4523B5
:104D94001DE00023BB613B69DB68FB603B699B68EA
:104DA400FB617869FBF731FA02E0BB690133BB614F
:104DB400FB691A1DFA611B68002BF6D03B68BA69BF
:104DC4001A60FA68BB69D21A3B685A600023184615
:104DD4002037BD4680BD00BF3007002040070020BB
:104DE40080B586B000AF0346FB7100233B61FB79BD
:104DF4003F2B01D147236EE0FB793E2B04D9FB798D
:104E0400FF2B01D02A2366E04020FBF7F0F938613C
:104E1400FB79FF2B07D1324B1B6893F83A30FB71B7
:104E24000123FB750BE02E4B1B6893F83A30FA799B
:104E34009A4202D10123FB7501E00023FB75FB7943
:104E4400284A52F82330FB60FB68002B04D13869F0
:104E5400FBF7DBF948233EE0FB68012B04D13869FA
:104E6400FBF7D3F9432336E0FB6893F83C30FB723D
:104E7400FB7A1D4AD15CFB6893F83D30DB43DAB220
:104E8400FB7A0A40D1B2184AD154FB7A164AD35C51
:104E9400002B0AD1FB6893F83E30DB43DAB2134BA4
:104EA4001B781340DAB2114B1A70FB6893F8383050
:104EB40043F00803DAB2FB6883F838203869FBF75B
:104EC400A4F9FB68184601F0ABF8FB7D012B01D176
:104ED400FFF764FA002318461837BD4680BD00BFAB
:104EE4003007002040070020200500201C0500207A
:104EF40080B500AF044B1B68184600F060FCFF202F
:104F0400FFF79AFD00BF80BD3007002080B485B054
:104F140000AFF860B9601346FB80FB8803F001031F
:104F2400002B10D0FB8803F00203002B0BD007E00A
:104F3400BB68013BBB60FB681A1DFA6000221A6063
:104F4400BB68002BF4D100BF1437BD465DF8047B69
:104F54007047000080B584B000AF50211B48FFF7B4
:104F640003FA0023FB8118E0FB890133FB80FB89F2
:104F74001B01164A1344BB60FB881B01134A1344EC
:104F84003B60BB6800221A70BB683A685A60BB6811
:104F94000F4ADA60FB890133FB81FB89032BE3D9D8
:104FA400FB891B01094A1344BB60BB6800221A70C9
:104FB400BB6800225A60BB68054ADA60054B034AA5
:104FC4001A6000BF1037BD4680BD00BFB402002088
:104FD4005C7900080403002080B487B000AF7860D7
:104FE4007B685B687B617B681B683B617B69002B2A
:104FF4000CD17B68DB68FB60FB683A695A603B69EB
:10500400002B0CD03B6900225A6008E07B693A69A6
:105014001A603B69002B02D03B697A695A607B684D
:105024009B68BB60BB680022DA6200BF1C37BD46C8
:105034005DF8047B7047000080B582B000AF064B7A
:105044001B681846FEF7BAFB0346FB71FB7918464A
:105054000837BD4680BD00BF2011002080B586B052
:1050640000AF4FF420713848FFF77EF938213748F4
:10507400FFF77AF90023FB8222E0FB8A0133FB81EC
:10508400FA8A13469B001344DB002F4A13443B6106
:10509400FA8913469B001344DB002B4A1344BB607C
:1050A4003B6964221A703B69002283F825203B691E
:1050B400BA68DA603B69264A1A62FB8A0133FB82CA
:1050C400FB8A0E2BD9D9FA8A13469B001344DB00C2
:1050D4001D4A13443B613B6964221A703B690022F8
:1050E40083F825203B690022DA603B69184A1A627A
:1050F400184B00221A60184B00221A80174B1022FA
:105104001A80174B104A1A600120FEF751FA034621
:10511400144A13600020FEF74BFA0346124A136048
:10512400104B1B68FA1D11491846FEF749FC0E4B3B
:105134001B68FA1D0E491846FEF742FC00F01AF8E7
:1051440000BF1837BD4680BD24110020A8150020DB
:105154006079000818110020161100201411002095
:10516400A41300201C1100202011002064790008E1
:105174007879000880B588B006AF03230493002330
:105184000393802302930A4B01934FF6FD7300931C
:105194003D23084A00210848FFF7B4FBFB1D1A46CB
:1051A40006493D20FFF744FD00BF0837BD4680BDDA
:1051B400A8130020A4150020455300088C7900088A
:1051C40080B487B000AF78600B46FB707B68032225
:1051D40083F82520FB78012B07D17B68DA692B4BF8
:1051E4001B681A447B685A6112E07B689B69002B38
:1051F40007D17B68DA69254B1B681A447B685A61BE
:1052040006E07B689A69214B1B681A447B685A61E3
:105214007B685A691E4BA3FB0213D11A49080B443D
:1052240099080B46DB005B1AD11A0B46FB82FB8AFA
:10523400DB00184A13443B613B691B68002B09D10E
:105244003B697A681A607B680022DA603B69012254
:105254009A8011E03B691B68FB603B697A681A60BD
:105264007B68FA68DA60FB687A681A613B699B8834
:1052740001339AB23B699A807B6800221A6100BFAD
:105284001C37BD465DF8047B704700BF1811002031
:1052940025499224A815002080B487B000AF786017
:1052A4007B685A69244BA3FB0213D11A49080B44A7
:1052B40099080B46DB005B1AD11A0B46FB82FB8A6A
:1052C400DB001E4A13443B613B691B687A689A42BF
:1052D4000CD17B68DB68FB603B69FA681A60FB6889
:1052E400002B12D0FB6800221A610EE07B681B6958
:1052F400FB607B68DB68BB60FB68BA68DA60BB682C
:10530400002B02D0BB68FA681A617B68012283F81B
:1053140025207B680022DA607B6800221A613B69E1
:105324009B88013B9AB23B699A8000BF1C37BD46FB
:105334005DF8047B704700BF25499224A81500201E
:1053440080B588B000AF78602E4B1B6807F10B0264
:1053540000211846FEF770F9FEF70CFC2A4B1B6877
:105364000133294A1360284B1A68284BA3FB021304
:10537400D11A49080B4499080B46DB005B1AD11A71
:105384000B467B837B8BDB00214A13447B617B6967
:105394001B68FB6130E0FB69DB683B61FB695A69B0
:1053A400194B1B689A4225D1FB69184602F0F4F8A0
:1053B40003461946432001F035FBF869FFF76CFFFB
:1053C400FB6993F82430022B04D10121F869FFF71B
:1053D400F7FE03E0FB69022283F82520FB695B6882
:1053E400FB60FB68002B05D0FB699A68FB681146DB
:1053F400F86998473B69FB61FB69002BCBD1FEF749
:10540400E1FBA1E720110020181100202549922476
:10541400A815002080B582B000AF78211A48FEF7A5
:10542400A3FF0023FB8017E0FA8813465B001344B4
:10543400DB00154A13443B60FB885A1C13465B008F
:105444001344DB00104A1A443B685A603B680F4A15
:105454005A61FB880133FB80FB88032BE4D9FA886B
:1054640013465B001344DB00074A13443B603B686C
:1054740000225A603B68054A5A61054B024A1A6089
:1054840000BF0837BD4680BD30100020A879000851
:105494002C10002080B483B000AF786000BF0C37BC
:1054A400BD465DF8047B704780B483B000AF78607C
:1054B40000BF0C37BD465DF8047B704780B400AF75
:1054C40000BFBD465DF8047B704780B400AF00BFE9
:1054D400BD465DF8047B704780B483B000AF78604C
:1054E40000BF0C37BD465DF8047B704780B400AF45
:1054F40000BFBD465DF8047B704780B483B000AF45
:10550400786000BF0C37BD465DF8047B704780B4FB
:1055140000AF00BFBD465DF8047B704780B483B024
:1055240000AF3C4B7B603C4B7B603C4B7B603C4B1B
:105534007B603C4B7B603C4B7B603C4B7B603C4BDF
:105544007B603C4B7B603C4B7B603C4B7B603C4BCF
:105554007B603C4B7B603C4B7B603C4B7B603C4BBF
:105564007B603C4B7B603C4B7B603C4B7B603C4BAF
:105574007B603C4B7B603C4B7B603C4B7B603C4B9F
:105584007B603C4B7B603C4B7B603C4B7B603C4B8F
:105594007B603C4B7B603C4B7B603C4B7B603C4B7F
:1055A4007B603C4B7B603C4B7B603C4B7B603C4B6F
:1055B4007B603C4B7B603C4B7B603C4B7B603C4B5F
:1055C4007B603C4B7B603C4B7B603C4B7B603C4B4F
:1055D4007B603C4B7B603C4B7B603C4B7B603C4B3F
:1055E4007B603C4B7B603C4B7B603C4B7B603C4B2F
:1055F4007B603C4B7B603C4B7B603C4B7B603C4B1F
:105604007B603C4B7B6000BF0C37BD465DF8047B80
:10561400704700BF8C8700089087000896870008B1
:1056240098870008948700089A8700089C870008D8
:105634009E870008A0870008A2870008A4870008A6
:10564400A6870008A8870008AA870008AC87000876
:10565400AE870008B0870008B2870008B487000846
:10566400B6870008B8870008BA870008BC87000816
:10567400BE870008C0870008C2870008C4870008E6
:10568400C6870008C8870008CA870008CC870008B6
:10569400CE870008D0870008D2870008D487000886
:1056A400D6870008D8870008DA870008DC87000856
:1056B400DE870008E0870008E2870008E487000826
:1056C400E687000824110020A8150020EA870008B6
:1056D400EC870008EE870008F0870008F2870008CE
:1056E400F4870008F6870008F8870008FA8700089E
:1056F400E8870008FC87000880B485B000AF184B29
:10570400BB604FF48073FB6007E0FB68013BFB6008
:10571400BB681A1DBA6000221A60FB68002BF4D122
:10572400104B114A1A600F4B1B6823F007031A46EB
:105734000C4B1A600D4B1B687B607B6803F0404385
:10574400B3F1404F00D0FEE7094B00221A80094B09
:1057540040221A6000BF1437BD465DF8047B7047D1
:10576400E0150020E0190020E019002034EF00E0EB
:10577400E4190020E819002080B400AF00BFBD4642
:105784005DF8047B704780B582B000AF78607868BC
:10579400FFF780FE00BF0837BD4680BD80B582B0EC
:1057A40000AF78607868FFF77FFE00BF0837BD461A
:1057B40080BD80B500AFFFF781FE00BF80BD80B51E
:1057C40082B000AF78607868FFF786FE00BF0837C4
:1057D400BD4680BD80B500AFFFF777FE00BF80BD3A
:1057E40080B487B000AFF860B9607A607B807B6872
:1057F40004337B617B6923F007037B617B69043B92
:105804007B617B69043B7B617B694FF000721A60AA
:105814007B69043B7B617B69934A1A607B69043B27
:105824007B617B69914A1A607B69043B7B617B697C
:105834008F4A1A607B69043B7B617B698D4A1A60DD
:105844007B69043B7B617B698B4A1A607B69043BFF
:105854007B617B69894A1A607B69043B7B617B6954
:10586400874A1A607B69043B7B617B694FF0824203
:105874001A607B69043B7B617B69824A1A607B699D
:10588400043B7B617B69804A1A607B69043B7B61D2
:105894007B697E4A1A607B69043B7B617B694FF0BC
:1058A40081421A607B69043B7B617B69784A1A6098
:1058B4007B69043B7B617B694FF080421A607B69A2
:1058C400043B7B617B694FF07E521A607B69043B29
:1058D4007B617B6900221A607B69043B7B617B6985
:1058E4004FF080721A607B69043B7B61FA687B69C4
:1058F4001A607B69043B7B61664A7B691A607B6939
:10590400043B7B617B694FF012321A607B69043B74
:105914007B617B694FF003321A607B69043B7B61D6
:105924007B694FF002321A607B69043B7B617B69BF
:105934004FF001321A607B69043B7B61BA687B6972
:105944001A607B69043B7B617B696FF012021A6009
:105954007B69043B7B617B694FF011321A607B6980
:10596400043B7B617B694FF010321A607B69043B16
:105974007B617B694FF009321A607B69043B7B6170
:105984007B694FF008321A607B69043B7B617B6959
:105994004FF007321A607B69043B7B617B694FF0EF
:1059A40006321A607B69043B7B617B694FF00532E8
:1059B4001A607B69043B7B617B694FF004321A6097
:1059C4007B69043B7B617B69334A1A607B69043BD6
:1059D4007B617B69314A1A607B69043B7B617B692B
:1059E4002F4A1A607B69043B7B617B692D4A1A60EC
:1059F4007B69043B7B617B692B4A1A607B69043BAE
:105A04007B617B69294A1A607B69043B7B617B6902
:105A1400274A1A607B69043B7B617B69254A1A60CB
:105A24007B69043B7B617B69234A1A607B69043B85
:105A34007B617B69214A1A607B69043B7B617B69DA
:105A44001F4A1A607B69043B7B617B691D4A1A60AB
:105A54007B69043B7B617B691B4A1A607B69043B5D
:105A64007B617B6932E000BF00007041000060414F
:105A7400000050410000404100003041000020413E
:105A8400000010410000E0400000C0400000A040C1
:105A940000004040F54E00080000F8410000F041CD
:105AA4000000E8410000E0410000D8410000D0417E
:105AB4000000C8410000C0410000B8410000B041EE
:105AC4000000A8410000A041000098410A4A1A6061
