:020000040800F2
:100000000080012049090008ED080008FB080008ED
:1000100001090008070900080D0900080000000098
:1000200000000000000000000000000013090008AC
:1000300021090008000000002F0900083D09000800
:100040009909000899090008990900089909000808
:1000500099090008990900089909000899090008F8
:1000600099090008990900089909000899090008E8
:1000700099090008990900089909000899090008D8
:100080009909000899090008990900080000000072
:1000900000000000000000000000000099090008B6
:1000A00099090008990900089909000899090008A8
:1000B0003102000899090008990900089909000807
:1000C0009909000899090008990900089909000888
:1000D0009909000899090008990900080000000022
:1000E0009909000899090008990900080000000012
:1000F0000000000000000000000000009909000856
:1001000000000000990900089909000899090008F1
:1001100000000000000000000000000000000000DF
:100120009909000899090008990900089909000827
:100130009909000800000000000000000000000015
:100140000000000000000000000000009909000805
:1001500099090008990900089909000899090008F7
:10016000990900089909000800000000000000003B
:10017000000000000000000000000000000000007F
:1001800000000000990900080000000000000000C5
:0401900099090008C1
:1001940010B5054C237833B9044B13B10448AFF3BD
:1001A40000800123237010BD100000200000000017
:1001B400E409000808B5034B1BB103490348AFF336
:1001C400008008BD0000000014000020E4090008BD
:1001D40080B582B000AF0121012000F035F9202361
:1001E4003B6003237B7101233B710023BB713B46BE
:1001F4001946034800F048F900BF0837BD4680BDE2
:100204000000024080B500AF2021024800F0CBF985
:1002140000BF80BD0000024080B500AF202102482D
:1002240000F0D0F900BF80BD0000024080B483B06C
:1002340000AF4FF080431B8A9BB203F00403002BF2
:1002440035D04FF080439B6BFB80FB8840F6AB526C
:1002540093420AD9FB8842F6EC42934205D8174BE5
:1002640001221A80164B00221A80144B1B88012B82
:1002740013D1134B1B881946124AFB8822F81130FC
:100284000F4B1B8801339AB20D4B1A800C4B1B8801
:10029400082B02D9094B00221A804FF080431B8A95
:1002A4009BB24FF0804223F004039BB2138200BF41
:1002B4000C37BD465DF8047B704700BF400000204A
:1002C4003E0000202C00002080B400AF064BD3F881
:1002D4008830054A43F47003C2F8883000BFBD4635
:1002E4005DF8047B704700BF00ED00E080B489B086
:1002F40000AF78600023BB6100237B610023FB61B6
:1003040002233B610023FB600223BB604A4B9B68D2
:1003140003F00C03BB61BB69082B11D0BB69082B2C
:1003240044D8BB69002B03D0BB69042B04D03DE047
:100334007B68424A1A603DE07B68414A1A6039E0B2
:100344003D4B5B689B0D03F00103FB603A4B5B681C
:1003540003F03F03BB60FB68002B0CD0384ABB683A
:10036400B2FBF3F3344A52689209C2F3080202FB67
:1003740003F3FB610BE0314ABB68B2FBF3F32E4A93
:1003840052689209C2F3080202FB03F3FB612A4B91
:100394005B681B0C03F0030301335B003B61FA69E8
:1003A4003B69B2FBF3F27B681A6003E07B68234A83
:1003B4001A6000BF204B9B6803F0F003BB61BB696C
:1003C4001B09BB611F4ABB6913441B78DBB27B6109
:1003D4007B681A687B69DA407B685A60164B9B68B5
:1003E40003F4E053BB61BB699B0ABB61154ABB695B
:1003F40013441B78DBB27B617B685A687B69DA4003
:100404007B689A600C4B9B6803F46043BB61BB69D7
:100414005B0BBB610B4ABB6913441B78DBB27B618A
:100424007B685A687B69DA407B68DA6000BF2437EE
:10043400BD465DF8047B7047003802400024F40098
:1004440040787D010000002080B483B000AF786064
:100454000B46FB70FB78002B06D00A4B1A6B09493C
:100464007B6813430B6306E0064B1A6B7B68DB4324
:10047400044913400B6300BF0C37BD465DF8047B91
:10048400704700BF0038024080B487B000AF786086
:10049400396000237B6100233B610023FB60002360
:1004A4007B6176E001227B6902FA03F33B613B68DE
:1004B4001B683A691340FB60FA683B699A4265D14C
:1004C4007B681A687B695B00032101FA03F3DB4351
:1004D4001A407B681A607B681A683B681B79194666
:1004E4007B695B0001FA03F31A437B681A603B687B
:1004F4001B79012B03D03B681B79022B2ED17B681F
:100504009A687B695B00032101FA03F3DB431A4019
:100514007B689A607B689A683B685B7919467B695B
:100524005B0001FA03F31A437B689A607B685A689C
:100534007B699BB2194601238B40DB431A407B68DD
:100544005A607B685B683A68927911467A6992B21C
:1005540001FA02F292B21A437B685A607B68DA6845
:100564007B699BB25B00032101FA03F3DB431A406E
:100574007B68DA607B68DA683B68DB7919467B69FB
:100584005B0001FA03F31A437B68DA607B69013389
:100594007B617B690F2B85D900BF00BF1C37BD462B
:1005A4005DF8047B704780B483B000AF78600B467D
:1005B4007B807A887B689A6100BF0C37BD465DF802
:1005C400047B704780B483B000AF78600B467B80B7
:1005D4007B881A047B689A6100BF0C37BD465DF8BE
:1005E400047B7047B0B58AB000AFC7E90001D7E912
:1005F4000023134300F096804AE007F108031846ED
:10060400FFF774FEFB68494A934211D2484B1B68BA
:10061400474A43F004031360FB68464AA2FB0323E2
:100624009B09434A4FF4FA7101FB03F3536010E052
:100634003F4B1B683E4A23F004031360FB683D4AAA
:10064400A2FB03235B0A3A4A4FF4FA7101FB03F35A
:100654005360374B00229A60354B1B68344A43F091
:100664000103136000BF324B1B6803F48033B3F5FE
:10067400803FF8D12E4B1B682D4A23F001031360F1
:10068400D7E90023B2F5FA7443F1FF35C7E9004511
:10069400D7E9002340F2F5118A4273F10003ACD28A
:1006A40007F118031846FFF721FEFB691F4A93421E
:1006B40010D21F4B1B681E4A43F004031360FB69EE
:1006C4001C4AA2FB03239B093A68194902FB03F362
:1006D4004B600FE0164B1B68154A23F004031360AC
:1006E400FB69144AA2FB03235B0A3A68104902FB24
:1006F40003F34B600E4B00229A600D4B1B680C4AAF
:1007040043F00103136000BF094B1B6803F48033FB
:10071400B3F5803FF8D1064B1B68054A23F001036B
:10072400136000E000BF2837BD46B0BD00127A0058
:1007340010E000E0D34D621080B483B000AF0346F4
:100744003960FB7197F90730002B0BDA3B68DAB29A
:100754000C49FB7903F00F03043B1201D2B20B44A2
:100764001A7609E03B68DAB2074997F907301201B3
:10077400D2B20B4483F8002300BF0C37BD465DF8AA
:10078400047B704700ED00E000E100E080B582B03A
:1007940000AF78607B68013BB3F1807F01D3012314
:1007A4000FE00A4A7B68013B53600F214FF0FF3092
:1007B400FFF7C2FF054B00229A60044B07221A6020
:1007C400002318460837BD4680BD00BF10E000E096
:1007D40080B584B000AF2D48FFF788FD2B4B5B68D4
:1007E4002B4AA2FB03235B091846FFF7CFFF052022
:1007F40000F052F8FFF7ECFCFFF704FD01210120A3
:10080400FFF722FE06237B6003237B7201233B72E6
:100814000023BB723B1D19461E48FFF735FE00231B
:10082400FB60FB680133FB6002211A48FFF7BBFE43
:10083400FB68472B0BD0FB684C2B08D0FB684D2B77
:1008440005D0FB68522B02D0FB68532B06D1042140
:100854001048FFF7B7FEFFF7DFFC05E004210D4861
:10086400FFF7A1FEFFF7CEFC4FF00A004FF00001A6
:10087400FFF7B8FE02210748FFF7A4FE4FF00A0075
:100884004FF00001FFF7AEFECBE700BF48000020A9
:100894001F85EB510000024080B483B000AF786044
:1008A4007B68074A136000BF054B1B68002BFBD114
:1008B40000BF00BF0C37BD465DF8047B704700BF26
:1008C4004400002080B400AF064B1B68002B04D00A
:1008D400044B1B68013B034A136000BFBD465DF82F
:1008E400047B70474400002080B400AF00BFBD46C5
:1008F4005DF8047B704780B400AFFEE780B400AFBE
:10090400FEE780B400AFFEE780B400AFFEE780B43A
:1009140000AF00BFBD465DF8047B704780B400AFF4
:1009240000BFBD465DF8047B704780B400AF00BFD4
:10093400BD465DF8047B704780B500AFFFF7C2FF8A
:1009440000BF80BDDFF834D0FFF7BEFC0C480D4972
:100954000D4A002302E0D458C4500433C4188C4216
:10096400F9D30A4A0A4C002301E013600432A2427C
:10097400FBD300F011F8FFF72BFF70470080012034
:100984000000002010000020040A000810000020CD
:1009940058000020FEE7000070B50D4D0D4C641B9F
:1009A400A4100026A64209D10B4D0C4C00F018F8F7
:1009B400641BA4100026A64205D170BD55F8043B63
:1009C40098470136EEE755F8043B98470136F2E7BD
:1009D400FC090008FC090008FC090008000A0008DA
:1009E400F8B500BFF8BC08BC9E467047F8B500BF18
:0809F400F8BC08BC9E467047E8
:0409FC00B901000835
:040A00009501000854
:100A040000000000010203040102030406070809B0
:04000005080009499D
:00000001FF
