:020000040800F2
:1000000000800120692100085121000853210008C7
:100010005521000857210008592100080000000060
:100020000000000000000000000000005B2100084C
:100030005D210008000000005F2100086121000828
:10004000B9210008B9210008B9210008B921000828
:10005000B9210008B9210008B9210008B921000818
:10006000B9210008B9210008B9210008B921000808
:10007000B9210008B9210008B9210008B9210008F8
:10008000B9210008B9210008B921000800000000CA
:10009000000000000000000000000000B92100087E
:1000A000B9210008B9210008B9210008B9210008C8
:1000B000F9150008B9210008B9210008B921000884
:1000C000B9210008B9210008B9210008B9210008A8
:1000D000B9210008B9210008B9210008000000007A
:1000E000B9210008B9210008B9210008000000006A
:1000F000000000000000000000000000B92100081E
:1001000000000000B9210008B9210008B921000849
:1001100000000000000000000000000000000000DF
:10012000B9210008B9210008B9210008B921000847
:10013000B9210008000000000000000000000000DD
:10014000000000000000000000000000B9210008CD
:10015000B9210008B9210008B9210008B921000817
:10016000B9210008B92100080000000000000000CB
:10017000000000000000000000000000000000007F
:1001800000000000B921000800000000000000008D
:04019000B921000889
:1001940010B5054C237833B9044B13B10448AFF3BD
:1001A40000800123237010BD100000200000000017
:1001B4000422000808B5034B1BB103490348AFF3FD
:1001C400008008BD00000000140000200422000884
:1001D40070B54FF0FF0C4CF4E06C1CEA11541DBFD9
:1001E4001CEA135594EA0C0F95EA0C0F00F0DEF8A4
:1001F4002C4481EA030621EA4C5123EA4C5350EA89
:10020400013518BF52EA033541F4801143F48013D9
:1002140038D0A0FB02CE4FF00005E1FB02E506F06A
:100224000042E0FB03E54FF00006E1FB03569CF0BF
:10023400000F18BF4EF0010EA4F1FF04B6F5007FC5
:1002440064F5407404D25FEA4E0E6D4146EB060637
:1002540042EAC62141EA55514FEAC52040EA5E50C0
:100264004FEACE2EB4F1FD0C88BFBCF5E06F1ED86A
:10027400BEF1004F08BF5FEA500E50F1000041EBA1
:10028400045170BD06F0004646EA010140EA02004E
:1002940081EA0301B4EB5C04C2BFD4EB0C0541EA70
:1002A400045170BD41F480114FF0000E013C00F385
:1002B400AB8014F1360FDEBF002001F0004170BDA9
:1002C400C4F10004203C35DA0C341BDC04F11404C2
:1002D400C4F1200500FA05F320FA04F001FA05F24E
:1002E40040EA020001F0004221F0004110EBD3701B
:1002F40021FA04F642EB06015EEA430E08BF20EA47
:10030400D37070BDC4F10C04C4F1200500FA04F3E9
:1003140020FA05F001FA04F240EA020001F000417B
:1003240010EBD37041F100015EEA430E08BF20EAEE
:10033400D37070BDC4F1200500FA05F24EEA020E36
:1003440020FA04F301FA05F243EA020321FA04F065
:1003540001F0004121FA04F220EA020000EBD3701C
:100364005EEA430E08BF20EAD37070BD94F0000F1C
:100374000FD101F00046400041EB010111F4801F50
:1003840008BF013CF7D041EA060195F0000F18BF01
:10039400704703F00046520043EB030313F4801F3D
:1003A40008BF013DF7D043EA0603704794EA0C0FF7
:1003B4000CEA135518BF95EA0C0F0CD050EA41060D
:1003C40018BF52EA4306D1D181EA030101F000418A
:1003D4004FF0000070BD50EA410606BF10461946B2
:1003E40052EA430619D094EA0C0F02D150EA0136BE
:1003F40013D195EA0C0F05D152EA03361CBF1046FF
:1004040019460AD181EA030101F0004141F0FE419D
:1004140041F470014FF0000070BD41F0FE4141F421
:10042400780170BD81F0004102E000BF83F0004319
:1004340030B54FEA41044FEA430594EA050F08BF7B
:1004440090EA020F1FBF54EA000C55EA020C7FEA3F
:10045400645C7FEA655C00F0E2804FEA5454D4EBBC
:100464005555B8BF6D420CDD2C4480EA020281EA86
:10047400030382EA000083EA010180EA020281EABE
:100484000303362D88BF30BD11F0004F4FEA013110
:100494004FF4801C4CEA113102D0404261EB41011F
:1004A40013F0004F4FEA03334CEA133302D05242A5
:1004B40063EB430394EA050F00F0A780A4F1010461
:1004C400D5F1200E0DDB02FA0EFC22FA05F280189B
:1004D40041F1000103FA0EF2801843FA05F3594181
:1004E4000EE0A5F120050EF1200E012A03FA0EFC00
:1004F40028BF4CF0020C43FA05F3C01851EBE3712A
:1005040001F0004507D54FF0000EDCF1000C7EEB46
:1005140000006EEB0101B1F5801F1BD3B1F5001F84
:100524000CD349085FEA30004FEA3C0C04F10104A3
:100534004FEA445212F5800F80F09A80BCF1004FCC
:1005440008BF5FEA500C50F1000041EB045141EA4E
:10055400050130BD5FEA4C0C404141EB0101013C17
:1005640028BFB1F5801FE9D291F0000F04BF014606
:100574000020B1FA81F308BF2033A3F10B03B3F1D8
:1005840020020CDA0C3208DD02F1140CC2F10C0268
:1005940001FA0CF021FA02F10CE002F11402D8BFC6
:1005A400C2F1200C01FA02F120FA0CFCDCBF41EA92
:1005B4000C019040E41AA2BF01EB0451294330BD61
:1005C4006FEA04041F3C1CDA0C340EDC04F114043E
:1005D400C4F1200220FA04F001FA02F340EA030015
:1005E40021FA04F345EA030130BDC4F10C04C4F15B
:1005F400200220FA02F001FA04F340EA030029463B
:1006040030BD21FA04F0294630BD94F0000F83F484
:10061400801306BF81F480110134013D4EE77FEA67
:10062400645C18BF7FEA655C29D094EA050F08BFB3
:1006340090EA020F05D054EA000C04BF1946104694
:1006440030BD91EA030F1EBF0021002030BD5FEAD8
:10065400545C05D14000494128BF41F0004130BD00
:1006640014F580043CBF01F5801130BD01F0004554
:1006740045F0FE4141F470014FF0000030BD7FEAC7
:10068400645C1ABF194610467FEA655C1CBF0B46C2
:10069400024650EA013406BF52EA033591EA030FD9
:1006A40041F4002130BD00BF90F0000F04BF0021D1
:1006B400704730B54FF4806404F132044FF0000504
:1006C4004FF0000150E700BF90F0000F04BF00217D
:1006D400704730B54FF4806404F1320410F00045E3
:1006E40048BF40424FF000013EE700BF42004FEADE
:1006F400E2014FEA31014FEA02701FBF12F07F435B
:1007040093F07F4F81F06051704732F07F4208BF11
:10071400704793F07F4F04BF41F40021704730B518
:100724004FF4607401F0004521F000411CE700BF64
:1007340050EA010208BF704730B54FF000050AE0E7
:1007440050EA010208BF704730B511F0004502D5E8
:10075400404261EB41014FF4806404F132045FEAEA
:10076400915C3FF4D8AE4FF003025FEADC0C18BF93
:1007740003325FEADC0C18BF033202EBDC02C2F185
:10078400200300FA03FC20FA02F001FA03FE40EA17
:100794000E0021FA02F11444BDE600BF53B94AB970
:1007A400002908BF00281CBF4FF0FF314FF0FF3075
:1007B40000F074B9ADF1080C6DE904CE00F006F850
:1007C400DDF804E0DDE9022304B070472DE9F047C9
:1007D400089D04468E46002B4DD18A42944669D921
:1007E400B2FA82F252B101FA02F3C2F1200120FA04
:1007F40001F10CFA02FC41EA030E94404FEA1C4852
:10080400210CBEFBF8F61FFA8CF708FB16E341EA4D
:10081400034306FB07F199420AD91CEB030306F1D3
:10082400FF3080F01F81994240F21C81023E6344F4
:100834005B1AA4B2B3FBF8F008FB103344EA034498
:1008440000FB07F7A7420AD91CEB040400F1FF33AD
:1008540080F00A81A74240F207816444023840EAEA
:100864000640E41B00261DB1D4400023C5E9004323
:100874003146BDE8F0878B4209D9002D00F0EF80A6
:100884000026C5E9000130463146BDE8F087B3FAD9
:1008940083F6002E4AD18B4202D3824200F2F980C1
:1008A400841A61EB030301209E46002DE0D0C5E9C4
:1008B400004EDDE702B9FFDEB2FA82F2002A40F010
:1008C4009280A1EB0C014FEA1C471FFA8CFE012613
:1008D400200CB1FBF7F307FB131140EA01410EFBB7
:1008E40003F0884208D91CEB010103F1FF3802D25E
:1008F400884200F2CB804346091AA4B2B1FBF7F058
:1009040007FB101144EA01440EFB00FEA64508D97A
:100914001CEB040400F1FF3102D2A64500F2BB80B7
:100924000846A4EB0E0440EA03409CE7C6F1200706
:10093400B34022FA07FC4CEA030C20FA07F401FA4C
:1009440006F31C43F9404FEA1C4900FA06F3B1FBD5
:10095400F9F8200C1FFA8CFE09FB181140EA01413A
:1009640008FB0EF0884202FA06F20BD91CEB0101D7
:1009740008F1FF3A80F08880884240F28580A8F12F
:1009840002086144091AA4B2B1FBF9F009FB101181
:1009940044EA014100FB0EFE8E4508D91CEB01011F
:1009A40000F1FF346CD28E456AD90238614440EAC2
:1009B4000840A0FB0294A1EB0E01A142C846A64642
:1009C40056D353D05DB1B3EB080261EB0E0101FACB
:1009D40007F722FA06F3F1401F43C5E90071002628
:1009E4003146BDE8F087C2F12003D8400CFA02FC7E
:1009F40021FA03F3914001434FEA1C471FFA8CFE8E
:100A0400B3FBF7F007FB10360B0C43EA064300FB7D
:100A14000EF69E4204FA02F408D91CEB030300F11B
:100A2400FF382FD29E422DD9023863449B1B89B2D2
:100A3400B3FBF7F607FB163341EA034106FB0EF35B
:100A44008B4208D91CEB010106F1FF3816D28B4208
:100A540014D9023E6144C91A46EA004638E72E46D4
:100A6400284605E70646E3E61846F8E64B45A9D2CC
:100A7400B9EB020864EB0C0E0138A3E74646EAE73B
:100A8400204694E74046D1E7D0467BE7023B6144E9
:100A940032E7304609E76444023842E7704700BF52
:100AA40030B583B00121042000F042FE602300939E
:100AB40003238DF8053001258DF804508DF8065078
:100AC400154C6946204601F05DF84FF440730093DD
:100AD4008DF8045000238DF8063002238DF805307C
:100AE4008DF807506946204601F04CF84FF48071A8
:100AF400204601F0A1F84FF40071204601F09EF861
:100B04002A464021204601F09CF82A46202120460E
:100B140001F097F803B030BD0008024010B50B4C4B
:100B240001222021204601F08CF801224021204698
:100B340001F087F800222021204601F082F80022EB
:100B44004021204601F07DF810BD00BF000802409E
:100B540010B5084C00222021204601F072F8012231
:100B64004021204601F06DF801222021204601F0A9
:100B740068F810BD0008024070B50646002413E072
:100B8400802222410F4D32402021284601F059F89D
:100B940001224021284601F054F800224021284631
:100BA40001F04FF80134E4B2072CE9D9054C0122D5
:100BB4004021204601F045F800224021204601F062
:100BC40040F870BD0008024010B50446FFF7A6FFC8
:100BD4007820FFF7D1FF0020FFF7CEFF2046FFF774
:100BE400CBFFFFF7B5FF10BD10B50446FFF796FF26
:100BF4007820FFF7C1FF4020FFF7BEFF2046FFF734
:100C0400BBFFFFF7A5FF10BD10B50C4640F0B000C8
:100C1400FFF7DAFF200940F01000FFF7D5FF04F0DA
:100C24000F00FFF7D1FF10BD38B5002509E0002003
:100C3400FFF7DAFF0134E4B214F0800FF7D0013586
:100C4400EDB2072D05D800212846FFF7DDFF00246B
:100C5400F2E738BDF8B51546461E7600F6B24F1ECB
:100C6400FF00FFB239463046FFF7CEFF002409E00B
:100C7400A5F120030F4A02EB0313185DFFF7B4FF3D
:100C84000134E4B2072CF3D9701C3946C0B2FFF723
:100C9400BBFF00240BE0A5F1200304F10802054981
:100CA40001EB0313985CFFF79FFF0134E4B2072CB8
:100CB400F1D9F8BD1C2200080246012002E002FB23
:100CC40000F019464B1E0029F9D170472DE9F8436D
:100CD400804689461E46171E04DB2B22FFF7BAFF07
:100CE40000241FE02D22FFF7B5FF7F42F8E704EB55
:100CF4000905EDB2311B01390A20FFF7DDFFB7FB0F
:100D0400F0F00A4AA2FB0032D20802EB8202A0EB06
:100D140042023032691CD2B2C9B24046FFF79AFF90
:100D24000134E4B2B442E2D3BDE8F883CDCCCCCCF8
:100D340008B5002204E00133B3F57A7FFBD3013216
:100D4400B2F57A7F01D20023F6E7FFF7A9FEAE20C1
:100D5400FFF73AFFD520FFF737FF8020FFF734FF76
:100D6400A820FFF731FF3F20FFF72EFFD320FFF726
:100D74002BFF0020FFF728FF4020FFF725FFA120CD
:100D8400FFF722FFC820FFF71FFFDA20FFF71CFF41
:100D94001220FFF719FF8120FFF716FFCF20FFF77E
:100DA40013FFD920FFF710FFF120FFF70DFFDB2021
:100DB400FFF70AFF3020FFF707FFA420FFF704FF27
:100DC400A620FFF701FF8D20FFF7FEFE1420FFF79A
:100DD400FBFEAF20FFF7F8FEFFF726FF08BD00007B
:100DE400F0B587B00121084600F0A2FC01210420DF
:100DF40000F09EFC0121102000F0B6FC4FF40073BB
:100E0400049302268DF8146000248DF816408DF8A2
:100E1400156001258DF817501C4F04A9384600F0C1
:100E2400B1FE07220921384600F011FF80270497FC
:100E34008DF814508DF816408DF815608DF8175004
:100E4400134E04A9304600F09DFE3946304600F0AA
:100E5400F3FE4FF4E1330093ADF80440ADF80640DF
:100E6400ADF80840ADF80C400823ADF80A3004F1A1
:100E7400804404F588346946204600F00FFE294674
:100E8400204600F071FE07B0F0BD00BF0000024034
:100E94000008024070B506460D46144600F024F9D9
:100EA400304600F03AF900F072F9284600F035F9BE
:100EB40000F06DF9204600F030F900F068F900F018
:100EC40021F970BD08B501226B21D020FFF7E2FFA4
:100ED40000226C21D020FFF7DDFF09221921D02048
:100EE400FFF7D8FF06221A21D020FFF7D3FF1822DC
:100EF4001B21D020FFF7CEFF18221C21D020FFF7A2
:100F0400C9FF02223721D020FFF7C4FF00226A2143
:100F1400D020FFF7BFFF08BD08B5702200213C2098
:100F2400FFF7B8FF202201213C20FFF7B3FF002286
:100F340002213C20FFF7AEFF08BD10B5044600F0C7
:100F4400D3F8EC2000F0E9F800F021F9204600F095
:100F5400E4F800F01CF900F0D5F810BD10B5044613
:100F640000F0C2F8EC2000F0D8F800F010F92046A8
:100F740000F0D3F800F00BF900F0B6F8ED2000F023
:100F8400CCF800F004F900F0DCF8012000F0F5F8EA
:100F940000F0D7F80402002000F0EFF800F0B2F8F7
:100FA40004F47F4010BD000008B51E20FFF7C5FF04
:100FB400A220FFF7D3FFC0031A4B1880A420FFF729
:100FC400CDFF194B00221A80A620FFF7C7FFFFF7B9
:100FD4007BFB0022154BFFF7FBF8154BC3E900011F
:100FE400A820FFF7BBFFFFF76FFB00224FF07E53F3
:100FF400FFF7EEF80F4BC3E90001AA20FFF7AEFF9D
:1010040000020D4B1880AC20FFF7A8FFFFF75CFB34
:1010140000224FF07A53FFF7DBF8084BC3E90001D5
:1010240008BD00BF2E0000202C0000200000703FEF
:10103400380000203000002048000020400000203C
:1010440008B500F007F8FFF73DFFFFF765FFFFF76E
:10105400ABFF08BD30B583B00121022000F068FB6E
:101064004FF44075009503238DF8053001238DF866
:1010740004308DF80630054C6946204600F082FDA8
:101084002946204600F0D8FD03B030BD00040240DC
:1010940008B502464FF48071034800F0D2FD0A20DF
:1010A400002100F075FF08BD0004024008B50246A7
:1010B4004FF40071034800F0C4FD0A20002100F041
:1010C40067FF08BD0004024010B54FF400710548E5
:1010D40000F0ABFD04460A20002100F059FF204631
:1010E40010BD00BF0004024008B50120FFF7DEFF79
:1010F4000120FFF7CDFF0020FFF7D8FF0020FFF706
:10110400C7FF08BD08B50020FFF7D0FF0120FFF797
:10111400BFFF0120FFF7CAFF08BD38B5054600240C
:101124000CE0802020412840FFF7C0FF0120FFF79A
:10113400AFFF0020FFF7ACFF0134E4B2072CF0D975
:1011440038BD38B50120FFF7B1FF0024254604E07F
:101154000020FFF79DFF0134E4B2072C0BD80120D7
:10116400FFF796FFFFF7B0FF0128F1D18023234159
:101174001D43EDB2ECE7284638BD08B5FFF796FFEE
:101184000120FFF785FF0020FFF782FF08BD10B59F
:101194000120FFF78BFF0120FFF77AFFFFF794FF91
:1011A40004460020FFF774FF204610BD00B583B04D
:1011B4000121084600F0BCFA2023009303238DF894
:1011C400053001238DF8043000238DF8063069467C
:1011D400024800F0D7FC03B05DF804FB00000240B5
:1011E40008B52021014800F027FD08BD0000024099
:1011F4002DE9F0418AB00121084600F099FA012155
:10120400022000F095FA0121022000F09FFAC02389
:10121400089302248DF8244000268DF826600327C5
:101224008DF8257001258DF82750DFF8D88008A99E
:10123400404600F0A7FC22460621404600F007FD88
:1012440022460721404600F002FD08978DF824400D
:101254008DF826608DF825708DF82750274F08A942
:10126400384600F08FFC22463146384600F0EFFC49
:1012740022462946384600F0EAFCA023ADF8143093
:10128400ADF8166040F2CF730693ADF81C601C4CA9
:1012940005A9204600F076FA6023ADF80030ADF8D9
:1012A4000250ADF80C606946204600F0C5FA694664
:1012B400204600F0FDFA6946204600F045FB6946E9
:1012C400204600F08BFB0821204600F0C7FB0821D4
:1012D400204600F0CAFB0821204600F0CFFB08217D
:1012E400204600F0D2FB2946204600F089FA294620
:1012F400204600F093FA0AB0BDE8F08100040240F1
:10130400000400400000024008B5FFF771FF08BD6B
:1013140030B583B00121042000F00AFA03230093BE
:101324008DF8053001248DF804408DF80640084DF1
:101334006946284600F026FC22462146284600F04D
:1013440080FC22460221284600F07BFC03B030BD1D
:101354000008024010B50B4C01220221204600F087
:1013640070FC01221146204600F06BFC0022022191
:10137400204600F066FC00220121204600F061FCBA
:1013840010BD00BF0008024010B5084C0022022125
:10139400204600F056FC01221146204600F051FC84
:1013A40001220221204600F04CFC10BD000802403E
:1013B40070B50646002413E0802222410F4D3240CE
:1013C4000221284600F03DFC01221146284600F087
:1013D40038FC00220121284600F033FC0134E4B239
:1013E400072CE9D9054C01221146204600F029FCBE
:1013F40000220121204600F024FC70BD00080240B8
:1014040010B50446FFF7A6FF7820FFF7D1FF0020B0
:10141400FFF7CEFF2046FFF7CBFFFFF7B5FF10BD68
:1014240010B50446FFF796FF7820FFF7C1FF402070
:10143400FFF7BEFF2046FFF7BBFFFFF7A5FF10BD78
:1014440010B50C4640F0B000FFF7DAFF200940F079
:101454001000FFF7D5FF04F00F00FFF7D1FF10BD18
:1014640038B5002509E00020FFF7DAFF0134E4B2C3
:1014740014F0800FF7D00135EDB2072D05D8002107
:101484002846FFF7DDFF0024F2E738BD08B5002247
:1014940004E00133B3F57A7FFBD30132B2F57A7FEE
:1014A40001D20023F6E7FFF733FFAE20FFF7A8FFD2
:1014B400D520FFF7A5FF8020FFF7A2FFA820FFF7A4
:1014C4009FFF3F20FFF79CFFD320FFF799FF0020E9
:1014D400FFF796FF4020FFF793FFA120FFF790FF4F
:1014E400C820FFF78DFFDA20FFF78AFF1220FFF7ED
:1014F40087FF8120FFF784FFCF20FFF781FFD920EA
:10150400FFF77EFFF120FFF77BFFDB20FFF778FF7B
:101514003020FFF775FFA420FFF772FFA620FFF726
:101524006FFF8D20FFF76CFF1420FFF769FFAF20DA
:10153400FFF766FFFFF794FF08BD00002A4B1A6C03
:1015440042F001021A641A6B42F001021A63A3F515
:1015540060531A6842F008021A609A6842F00C025A
:101564009A601A6A22F0F0021A621A6A42F01002B1
:101574001A624FF08043DA6A6FEA12426FEA02425B
:10158400DA621A8D92B242F00F021A851A8992B267
:1015940042F060021A811A8992B242F004021A815E
:1015A4001A8B92B242F480721A831A8B92B21A8303
:1015B4001A8C92B242F010021A849A8992B242F0C2
:1015C40004029A81094A0A49D160A2F54062902135
:1015D40082F81C134FF0805111601A8892B242F0C5
:1015E40001021A80704700BF0038024000ED00E09D
:1015F4000005FA054FF080431B8A13F0040F1BD03B
:101604004FF080439B6B9BB2A3F6AC5292B2B2F5FF
:10161400FA5F05D8104A01211180104A0021118077
:101624000D4A1288012A08D04FF08042138A9BB2D7
:1016340023F004039BB21382704708490A880848C0
:1016440020F81230531C9BB20B80082BECD9024BB0
:1016540000221A80E8E700BF600000205E0000203E
:101664004C000020034AD2F8883043F47003C2F8D7
:101674008830704700ED00E010B4294B9B6803F0FC
:101684000C03042B23D0082B24D013B1254B036067
:1016940001E0244B0360224CA368C3F303132249E3
:1016A400CB5CDAB20368D3404360A268C2F38222FF
:1016B4008A5CD2B223FA02F28260A268C2F3423296
:1016C4008A5CD2B2D340C3605DF8044B7047174BB9
:1016D4000360E0E7124B59685A6802F03F0211F4C4
:1016E400800F12D0114BB3FBF2F30D4A5268C2F3D0
:1016F400881202FB03F30A4A5268C2F30142013220
:101704005200B3FBF2F30360C5E7064BB3FBF2F3FD
:10171400034A5268C2F3881202FB03F3EBE700BFEB
:10172400003802400024F4000000002040787D01CD
:1017340021B1054A136B184310637047024A136BB7
:1017440023EA0000106370470038024021B1054AC3
:10175400136C184310647047024A136C23EA0000A8
:10176400106470470038024021B1054A536C184395
:1017740050647047024A536C23EA00005064704777
:101784000038024003889BB21B4A904212D002F5F3
:10179400806290420ED0B0F1804F0BD0A2F580321F
:1017A400904207D002F58062904203D002F5806235
:1017B400904203D123F070034A8813430F4A9042A6
:1017C40008D002F58062904204D023F440739BB2A7
:1017D4000A89134303804B68C3620B880385064B55
:1017E400984203D003F58063984201D18B7A038633
:1017F40001238382704700BF0000014000100040B5
:1018040029B103889BB243F08003038070470388A7
:101814009BB223F080039BB20380704729B10388F5
:101824009BB243F001030380704703889BB223F00B
:1018340001039BB20380704710B5038C9BB223F065
:1018440001039BB20384038C9BB2B0F804E01FFA3B
:101854008EFE028B92B222F073020C88224323F094
:101864000203B1F80CC043EA0C0C4B8843EA0C03A6
:101874000E4CA04203D004F58064A0420FD123F0A3
:101884000803CC89234323F004038C8823432EF4D8
:10189400407E0C8A4EEA040E4C8A44EA0E0EA0F8EE
:1018A40004E002838A684263038410BD000001409F
:1018B40000B5038C9BB223F010039BB20384038C0A
:1018C4009BB2B0F804E01FFA8EFEB0F818C01FFAFD
:1018D4008CFC2CF4E64C0A88120292B24CEA020CFC
:1018E40023F020038A89120192B21A434B881B0108
:1018F4009BB21343134A904203D002F58062904294
:1019040017D123F08003CA89120192B2134323F042
:1019140040028B881B019BB213432EF4406E0A8A4B
:10192400920092B24EEA020E4A8A920092B242EABF
:101934000E0EA0F804E0A0F818C08A68826303843D
:101944005DF804FB0000014000B5038C9BB223F456
:1019540080739BB20384038C9BB2B0F804E01FFA3B
:101964008EFEB0F81CC01FFA8CFC2CF0730C0A8895
:101974004CEA020C23F400738A89120292B21A43CD
:101984004B881B029BB21343134A904203D002F5C7
:101994008062904217D123F40063CA89120292B282
:1019A400134323F480628B881B029BB213432EF4EF
:1019B400405E0A8A120192B24EEA020E4A8A12016B
:1019C40092B242EA0E0EA0F804E0A0F81CC08A68A5
:1019D400C26303845DF804FB0000014010B5038C6E
:1019E4009BB223F480539BB20384038C9BB2B0F864
:1019F40004E01FFA8EFE828B92B222F4E64C0A882F
:101A0400120292B24CEA020223F40053B1F80CC061
:101A14004FEA0C3C1FFA8CFC43EA0C0C4B881B036A
:101A24009BB243EA0C030C4CA04203D004F580643F
:101A3400A04209D12EF4804EB1F810C04FEA8C1C9C
:101A44001FFA8CFC4EEA0C0EA0F804E082838A682C
:101A54000264038410BD00BF00000140038B9BB2ED
:101A640023F008030B4303837047038B9BB223F4D7
:101A74000063090289B20B4303837047838B9BB2D3
:101A840023F008030B4383837047838B9BB223F4B7
:101A94000063090289B20B438383704730B585B074
:101AA40004460D46038A9BB223F44053CA88134369
:101AB400038283899BB223F4B05323F00C038988F7
:101AC40028896A8901430A431343A381A38A9BB2E9
:101AD40023F44073AA891343A3826846FFF7CCFD1D
:101AE4001F4B9C4205D003F580639C4201D0029BAE
:101AF40000E0039BA28912F4004F1FD103EB830380
:101B040003EB83032A689200B3FBF2F3154AA2FBAA
:101B1400031252091101642002FB1033A28912F44A
:101B2400004F14D11B0132330E4AA2FB0323C3F32B
:101B340043130B439BB2238105B030BD03EB8303F6
:101B440003EB83032A685200B3FBF2F3DEE7DB0006
:101B54003233044AA2FB0323C3F342130B43E9E7E2
:101B6400001001401F85EB5129B183899BB243F4D6
:101B740000538381704783899BB223F400539BB243
:101B84008381704700230F2B4ED830B516E0C2680E
:101B94001FFA83FE4FEA4E044FF0030E0EFA04FEC2
:101BA40022EA0E02C260C26891F807E00EFA0CFC49
:101BB40042EA0C02C26001330F2B34D801229A404E
:101BC4000C68A243F7D104684FEA430C032202FADB
:101BD4000CF26FEA020E24EA0202026002680C7937
:101BE40004FA0CF4224302600A79013AD2B2012ABF
:101BF400CDD882680EEA0202826082684C7904FAC7
:101C04000CF42243826044689DB24FF0010E0EFA38
:101C140005FE24EA0E04446044688A79AA4092B21C
:101C240022434260B3E730BD70470369194201D0D3
:101C34000120704700207047816170470904816169
:101C440070470AB18161704709048161704700B52A
:101C540001F007039B0002FA03FCC908083150F89D
:101C640021204FF00F0E0EFA03F322EA030340F88B
:101C7400213050F8212042EA0C0240F821205DF87E
:101C840004FB000028B1064A136843F48063136020
:101C94007047034A136823F480631360704700BFDE
:101CA400003C0240054B1B69002B00DB7047034BD3
:101CB400034A5A6002F188325A60F7E7003C024056
:101CC40023016745024A136943F0004313617047D7
:101CD400003C0240124BDB6813F4803F15D1104BDB
:101CE400DB6813F0100F12D10D4BDB6813F4807F07
:101CF4000FD10B4BDB6813F0E00F0CD1084BDB6802
:101D040013F0020F09D00820704701207047062005
:101D1400704702207047072070470920704700BFB2
:101D2400003C024000B583B009238DF80730FFF76B
:101D3400D1FF8DF8070003E0FFF7CCFF8DF8070013
:101D44009DF80730DBB2012BF6D09DF8070003B0F5
:101D54005DF804FB70B5044649B101290DD0022990
:101D640002D04FF4407603E04FF4007600E0002602
:101D7400FFF7D8FF092803D070BD4FF48076F7E74A
:101D84000F4D2B6923F440732B612B691E432E6185
:101D94002B6923F0F8032B612869204340F00200EB
:101DA40028612B6943F480332B61FFF7BBFF2B6958
:101DB40023F002032B612B6923F0F8032B61DBE78B
:101DC400003C024070B505460C46FFF7ABFF0928FE
:101DD40000D070BD0A4E336923F440733361336914
:101DE40043F400733361336943F0010333612C60BE
:101DF400FFF798FF336923F001033361E9E700BF7C
:101E0400003C024030B4064C064D0FCD0FC40FCD3C
:101E14000FC495E8030084E8030030BC704700BF9A
:101E2400640000200000060838B5FFF73BFF0020DF
:101E3400FFF728FF02213820FFF78CFF092811D073
:101E44000120FFF71FFFFFF73DFF38BD04340435C1
:101E5400064B9C42F4D829682046FFF7B3FF0928B3
:101E6400F4D0EDE7024D034CF2E700BF270006086B
:101E7400640000200000060830B589B004460D4611
:101E840050EA010328D16EE04FF0E022136923F0F9
:101E940004031361019B3C49A1FB03135B0A4FF448
:101EA400FA7101FB03F353614FF0E02300229A61BE
:101EB4001A6942F001021A614FF0E0231B6913F41E
:101EC400803FF9D04FF0E022136923F0010313613E
:101ED400B4F5FA7445F1FF3540F2F5139C4275F1FF
:101EE400000317D36846FFF7C7FB019A274B9A42B2
:101EF400CAD24FF0E022136943F004031361019B3B
:101F04002149A1FB03139B094FF4FA7101FB03F36D
:101F14005361C9E704A8FFF7AFFB059A1B4B9A422C
:101F240023D24FF0E022136943F004031361059BAD
:101F34001549A1FB03139B0903FB04F454614FF0FF
:101F4400E02300229A611A6942F001021A614FF0FB
:101F5400E0231B6913F4803FF9D04FF0E0221369AA
:101F640023F00103136109B030BD4FF0E02213697F
:101F740023F004031361059B0349A1FB03135B0ACC
:101F840003FB04F45461DAE7D34D621000127A00C3
:101F940050EA01035DD02DE9F04385B080460C463C
:101FA4004FF47A720023FEF7F9FB81460F464FF493
:101FB4007A72002340462146FEF7F0FB15461E4682
:101FC400B8F57A7F74F1000305D256EA050307D108
:101FD40005B0BDE8F08348463946FFF74DFFF4E706
:101FE4006846FFF749FB019A1A4B9A4222D24FF0F6
:101FF400E022136943F004031361019B1649A1FB1A
:1020040003139B0C03FB05F555614FF0E0230022FD
:102014009A611A6942F001021A614FF0E0231B69C8
:1020240013F4803FF9D04FF0E022136923F0010349
:102034001361CDE74FF0E022136923F00403136129
:10204400019B0549A1FB03135B0D03FB05F55561DA
:10205400DBE7704700127A0083DE1B4338B5044681
:102064000D4607E04FF47A700021FFF705FF013CAD
:1020740045F1FF3554EA0503F4D138BD82B001902F
:10208400019A044B1A60034B1B68002BFBD102B06E
:10209400704700BF9C00002010B5234C2046FFF77A
:1020A400EBFA6368214AA2FB03235B09013BB3F10A
:1020B400807F0AD24FF0E02253611D4BF02183F858
:1020C400231000239361072313610520FFF7D6FF34
:1020D400FFF76CF8FEF7B4FFFEF72AFEFFF7D6F918
:1020E400FEF77EFEFFF72AFAFFF70EF9FFF778F8FE
:1020F400FFF788FE0F4C0623226801210846FEF7ED
:10210400E5FD03200021FFF7A9FF44F6FE23236029
:10211400FFF78AFEFFF776FE0623226801210846B0
:10212400FEF7D4FD002010BD8C0000201F85EB516C
:1021340000ED00E064000020034B1B681BB1024A61
:102144001368013B136070479C0000207047FEE752
:10215400FEE7FEE7FEE770477047704708B5FFF7F4
:10216400EBFF08BDDFF834D0FFF77CFA0C480D49CB
:102174000D4A002302E0D458C4500433C4188C42DE
:10218400F9D30A4A0A4C002301E013600432A24244
:10219400FBD300F011F8FFF77FFF704700800120A8
:1021A40000000020100000201C280008100000205F
:1021B400A0000020FEE7000070B50D4D0D4C641B1F
:1021C400A4100026A64209D10B4D0C4C00F018F8BF
:1021D400641BA4100026A64205D170BD55F8043B2B
:1021E40098470136EEE755F8043B98470136F2E785
:1021F40014280008142800081428000818280008C7
:10220400F8B500BFF8BC08BC9E467047F8B500BFDF
:08221400F8BC08BC9E467047AF
:10221C0000000000000000000000000000000000B2
:10222C00000000F800000000000000333000000047
:10223C0000100C06100C060000000000000000004E
:10224C0040C07840C0784000043F04043F040400C0
:10225C00007088FC08300000001820FF211E0000D0
:10226C00F008F000E018000000211C031E211E00E5
:10227C0000F00888700000001E212324192721106B
:10228C0010160E000000000000000000000000000E
:10229C00000000E0180402000000000718204000B5
:1022AC0000020418E00000000040201807000000A5
:1022BC00404080F0804040000202010F0102020009
:1022CC00000000F0000000000101011F01010100ED
:1022DC00000000000000000080B070000000000052
:1022EC0000000000000000000001010101010101DB
:1022FC000000000000000000003030000000000072
:10230C000000000080601804006018060100000046
:10231C0000E010080810E000000F102020100F0043
:10232C00001010F8000000000020203F20200000CA
:10233C000070080808887000003028242221300022
:10234C0000300888884830000018202020110E002A
:10235C000000C02010F8000000070424243F2400D3
:10236C0000F80888880808000019212020110E00A8
:10237C0000E0108888180000000F112020110E00BA
:10238C0000380808C83808000000003F00000000B2
:10239C000070880808887000001C222121221C0073
:1023AC0000E010080810E0000000312222110F009C
:1023BC00000000C0C0000000000000303000000031
:1023CC0000000080000000000000806000000000A1
:1023DC0000008040201008000001020408102000BA
:1023EC004040404040404000040404040404040005
:1023FC00000810204080000000201008040201009A
:10240C00007048080808F000000000303601000099
:10241C00C030C828E810E0000718272423140B004C
:10242C000000C038E0000000203C230202273820C6
:10243C0008F8888888700000203F202020110E00AA
:10244C00C0300808080838000718202020100800A1
:10245C0008F808080810E000203F202020100F008A
:10246C0008F88888E8081000203F20202320180056
:10247C0008F88888E8081000203F200003000000BE
:10248C00C03008080838000007182020221E02005F
:10249C0008F808000008F808203F210101213F201E
:1024AC00000808F8080800000020203F2020000049
:1024BC0000000808F8080800C08080807F00000039
:1024CC0008F888C028180800203F20012638200072
:1024DC0008F8080000000000203F202020203000D9
:1024EC0008F8F800F8F80800203F003F003F2000F3
:1024FC0008F830C00008F808203F200007183F00FB
:10250C00E01008080810E0000F10202020100F0029
:10251C0008F808080808F000203F2101010100001C
:10252C00E01008080810E0000F18242438504F0061
:10253C0008F8888888887000203F2000030C302021
:10254C0000708808080838000038202121221C005F
:10255C00180808F8080818000000203F20000000A8
:10256C0008F808000008F808001F202020201F0091
:10257C000878880000C83808000007380E010000F1
:10258C00F80800F80008F800033C0700073C0300BB
:10259C00081868808068180820302C03032C302021
:1025AC000838C800C83808000000203F2000000090
:1025BC0010080808C83808002038262120201800E8
:1025CC00000000FE020202000000007F40404000BC
:1025DC00000C30C000000000000000010638C000F4
:1025EC0000020202FE000000004040407F0000009C
:1025FC0000000402020204000000000000000000C1
:10260C0000000000000000008080808080808080BE
:10261C0000020204000000000000000000000000A6
:10262C0000008080808000000019242222223F209C
:10263C0008F8008080000000003F112020110E00DF
:10264C000000008080800000000E1120202011006E
:10265C00000000808088F800000E112020103F2020
:10266C000000808080800000001F222222221300A4
:10267C00008080F0888888180020203F20200000EF
:10268C000000808080808000006B949494936000A4
:10269C0008F8008080800000203F210000203F20AF
:1026AC0000809898000000000020203F20200000AF
:1026BC00000000809898000000C08080807F00009F
:1026CC0008F8000080808000203F24022D3020007C
:1026DC00000808F8000000000020203F2020000027
:1026EC008080808080808000203F20003F20003F41
:1026FC008080008080800000203F210000203F204F
:10270C000000808080800000001F202020201F00FF
:10271C00808000808000000080FFA12020110E002E
:10272C000000008080808000000E112020A0FF801F
:10273C00808080008080800020203F2120000100CC
:10274C000000808080808000003324242424190021
:10275C00008080E0808000000000001F202000002E
:10276C008080000000808000001F202020103F206F
:10277C00808080000080808000010E3008060100FF
:10278C0080800080008080800F300C030C300F00A4
:10279C0000808000808080000020312E0E312000CF
:1027AC00808080000080808080818E7018060100FF
:1027BC0000808080808080000021302C222130001D
:1027CC0000000000807C020200000000003F40403E
:1027DC0000000000FF00000000000000FF000000EF
:1027EC000002027C800000000040403F000000001E
:1027FC0000060101020204040000000000000000B9
:08280C00C4DFFF7F01000000A2
:04281400B9010008FE
:04281800950100081E
:10281C00000000000102030401020304060708097A
:020000040806EC
:1000000052BF0100000000000000000000000000DE
:100010000000000000000000000000000000803F21
:080020000000003F0000803FDA
:040000050800216965
:00000001FF
