:020000040800F2
:100000000080012065500008A14F0008A34F0008A0
:10001000A54F0008A74F0008A94F000800000000E6
:10002000000000000000000000000000AB4F0008CE
:10003000AD4F000800000000AF4F0008B14F0008AE
:10004000B1500008B1500008B1500008B15000088C
:10005000B1500008B1500008B1500008B15000087C
:10006000B1500008B1500008B1500008B15000086C
:10007000B1500008B1500008B1500008B15000085C
:10008000B1500008B1500008B15000080000000055
:10009000000000000000000000000000B150000857
:1000A000B1500008B1500008B1500008B15000082C
:1000B000191E0008B1500008B1500008B1500008E6
:1000C000B1500008B1500008B1500008B15000080C
:1000D000B1500008B1500008B15000080000000005
:1000E000B1500008B1500008B150000800000000F5
:1000F000000000000000000000000000B1500008F7
:1001000000000000B1500008B1500008B1500008D4
:1001100000000000000000000000000000000000DF
:10012000B1500008B1500008B1500008B1500008AB
:10013000B1500008000000000000000000000000B6
:10014000000000000000000000000000B1500008A6
:10015000B1500008B1500008B1500008B15000087B
:10016000B1500008B150000800000000000000007D
:10017000000000000000000000000000000000007F
:1001800000000000B1500008000000000000000066
:04019000B150000862
:1001A00010B5054C237833B9044B13B10448AFF3B1
:1001B00000800123237010BDC0000020000000005B
:1001C000D86D000808B5034B1BB103490348AFF3D2
:1001D000008008BD00000000C4000020D86D0008A9
:1001E00001F0FF01102A2BDB10F0070F08D010F8E8
:1001F000013B013A8B422DD010F0070F42B3F6D1EC
:10020000F0B441EA012141EA014122F007047FF004
:1002100000070023F0E80256083C85EA010586EA5B
:10022000010685FA47F5A3FA87F586FA47F6A5FA97
:1002300087F68EB9EED1F0BC01F0FF0102F00702A3
:1002400032B110F8013B013A83EA010313B1F8D14E
:100250000020704701387047002D06BF354603382F
:10026000073815F0010F07D1013015F4807F02BF68
:10027000013015F4C03F0130F0BC0138704700BFB9
:1002800081F0004102E000BF83F0004330B54FEA47
:1002900041044FEA430594EA050F08BF90EA020FB4
:1002A0001FBF54EA000C55EA020C7FEA645C7FEA47
:1002B000655C00F0E2804FEA5454D4EB5555B8BF6A
:1002C0006D420CDD2C4480EA020281EA030382EADB
:1002D000000083EA010180EA020281EA0303362D6D
:1002E00088BF30BD11F0004F4FEA01314FF4801C40
:1002F0004CEA113102D0404261EB410113F0004F52
:100300004FEA03334CEA133302D0524263EB430308
:1003100094EA050F00F0A780A4F10104D5F1200EA6
:100320000DDB02FA0EFC22FA05F2801841F1000101
:1003300003FA0EF2801843FA05F359410EE0A5F1D5
:1003400020050EF1200E012A03FA0EFC28BF4CF006
:10035000020C43FA05F3C01851EBE37101F00045BC
:1003600007D54FF0000EDCF1000C7EEB00006EEBC9
:100370000101B1F5801F1BD3B1F5001F0CD3490853
:100380005FEA30004FEA3C0C04F101044FEA4452AA
:1003900012F5800F80F09A80BCF1004F08BF5FEA31
:1003A000500C50F1000041EB045141EA050130BD11
:1003B0005FEA4C0C404141EB0101013C28BFB1F523
:1003C000801FE9D291F0000F04BF01460020B1FA6E
:1003D00081F308BF2033A3F10B03B3F120020CDA41
:1003E0000C3208DD02F1140CC2F10C0201FA0CF01F
:1003F00021FA02F10CE002F11402D8BFC2F1200C84
:1004000001FA02F120FA0CFCDCBF41EA0C01904039
:10041000E41AA2BF01EB0451294330BD6FEA040482
:100420001F3C1CDA0C340EDC04F11404C4F120026D
:1004300020FA04F001FA02F340EA030021FA04F37F
:1004400045EA030130BDC4F10C04C4F1200220FAD6
:1004500002F001FA04F340EA0300294630BD21FA14
:1004600004F0294630BD94F0000F83F4801306BFDA
:1004700081F480110134013D4EE77FEA645C18BFCE
:100480007FEA655C29D094EA050F08BF90EA020F65
:1004900005D054EA000C04BF1946104630BD91EA5D
:1004A000030F1EBF0021002030BD5FEA545C05D160
:1004B0004000494128BF41F0004130BD14F580049F
:1004C0003CBF01F5801130BD01F0004545F0FE4113
:1004D00041F470014FF0000030BD7FEA645C1ABF48
:1004E000194610467FEA655C1CBF0B46024650EA7F
:1004F000013406BF52EA033591EA030F41F40021AB
:1005000030BD00BF90F0000F04BF0021704730B530
:100510004FF4806404F132044FF000054FF0000105
:1005200050E700BF90F0000F04BF0021704730B5C6
:100530004FF4806404F1320410F0004548BF40429B
:100540004FF000013EE700BF42004FEAE2014FEAF0
:1005500031014FEA02701FBF12F07F4393F07F4FCB
:1005600081F06051704732F07F4208BF704793F0CE
:100570007F4F04BF41F40021704730B54FF46074E1
:1005800001F0004521F000411CE700BF50EA0102E4
:1005900008BF704730B54FF000050AE050EA01028D
:1005A00008BF704730B511F0004502D5404261EBFD
:1005B00041014FF4806404F132045FEA915C3FF43E
:1005C000D8AE4FF003025FEADC0C18BF03325FEADB
:1005D000DC0C18BF033202EBDC02C2F1200300FA8C
:1005E00003FC20FA02F001FA03FE40EA0E0021FAB1
:1005F00002F11444BDE600BF70B54FF0FF0C4CF49F
:10060000E06C1CEA11541DBF1CEA135594EA0C0F50
:1006100095EA0C0F00F0DEF82C4481EA030621EA8B
:100620004C5123EA4C5350EA013518BF52EA0335C6
:1006300041F4801143F4801338D0A0FB02CE4FF078
:100640000005E1FB02E506F00042E0FB03E54FF0A8
:100650000006E1FB03569CF0000F18BF4EF0010EA0
:10066000A4F1FF04B6F5007F64F5407404D25FEA9C
:100670004E0E6D4146EB060642EAC62141EA55514F
:100680004FEAC52040EA5E504FEACE2EB4F1FD0C91
:1006900088BFBCF5E06F1ED8BEF1004F08BF5FEA0F
:1006A000500E50F1000041EB045170BD06F00046C1
:1006B00046EA010140EA020081EA0301B4EB5C046E
:1006C000C2BFD4EB0C0541EA045170BD41F4801166
:1006D0004FF0000E013C00F3AB8014F1360FDEBF8B
:1006E000002001F0004170BDC4F10004203C35DA67
:1006F0000C341BDC04F11404C4F1200500FA05F3EA
:1007000020FA04F001FA05F240EA020001F000428A
:1007100021F0004110EBD37021FA04F642EB060100
:100720005EEA430E08BF20EAD37070BDC4F10C042A
:10073000C4F1200500FA04F320FA05F001FA04F2EE
:1007400040EA020001F0004110EBD37041F10001DA
:100750005EEA430E08BF20EAD37070BDC4F12005E5
:1007600000FA05F24EEA020E20FA04F301FA05F24D
:1007700043EA020321FA04F001F0004121FA04F2F5
:1007800020EA020000EBD3705EEA430E08BF20EAC5
:10079000D37070BD94F0000F0FD101F000464000FF
:1007A00041EB010111F4801F08BF013CF7D041EA81
:1007B000060195F0000F18BF704703F00046520085
:1007C00043EB030313F4801F08BF013DF7D043EA56
:1007D0000603704794EA0C0F0CEA135518BF95EA0C
:1007E0000C0F0CD050EA410618BF52EA4306D1D193
:1007F00081EA030101F000414FF0000070BD50EAB2
:10080000410606BF1046194652EA430619D094EA3B
:100810000C0F02D150EA013613D195EA0C0F05D125
:1008200052EA03361CBF104619460AD181EA030179
:1008300001F0004141F0FE4141F470014FF0000031
:1008400070BD41F0FE4141F4780170BD70B54FF0CC
:10085000FF0C4CF4E06C1CEA11541DBF1CEA13554C
:1008600094EA0C0F95EA0C0F00F0A7F8A4EB05042E
:1008700081EA030E52EA03354FEA013100F0888025
:100880004FEA03334FF0805545EA131343EA1263EE
:100890004FEA022245EA111545EA10654FEA0026A3
:1008A0000EF000419D4208BF964244F1FD0404F55C
:1008B000407402D25B084FEA3202B61A65EB0305B8
:1008C0005B084FEA32024FF480104FF4002CB6EB75
:1008D000020E75EB030E22BFB61A754640EA0C00F5
:1008E0005B084FEA3202B6EB020E75EB030E22BF35
:1008F000B61A754640EA5C005B084FEA3202B6EB76
:10090000020E75EB030E22BFB61A754640EA9C0034
:100910005B084FEA3202B6EB020E75EB030E22BF04
:10092000B61A754640EADC0055EA060E18D04FEAC2
:10093000051545EA16754FEA06164FEAC30343EA62
:1009400052734FEAC2025FEA1C1CC0D111F4801F2F
:100950000BD141EA00014FF000004FF0004CB6E728
:1009600011F4801F04BF01430020B4F1FD0C88BFC7
:10097000BCF5E06F3FF6AFAEB5EB030C04BFB6EBD2
:10098000020C5FEA500C50F1000041EB045170BDC5
:100990000EF0004E4EEA113114EB5C04C2BFD4EBF2
:1009A0000C0541EA045170BD41F480114FF0000E76
:1009B000013C90E645EA060E8DE60CEA135594EAF2
:1009C0000C0F08BF95EA0C0F3FF43BAF94EA0C0FF5
:1009D0000AD150EA01347FF434AF95EA0C0F7FF46A
:1009E00025AF104619462CE795EA0C0F06D152EABE
:1009F00003353FF4FDAE1046194622E750EA4106A2
:100A000018BF52EA43067FF4C5AE50EA41047FF4B2
:100A10000DAF52EA43057FF4EBAE12E74FF0FF3C17
:100A200006E000BF4FF0010C02E000BF4FF0010CE8
:100A30004DF804CD4FEA410C7FEA6C5C4FEA430C61
:100A400018BF7FEA6C5C1BD001B050EA410C0CBFB0
:100A500052EA430C91EA030F02BF90EA020F002012
:100A6000704710F1000F91EA030F58BF994208BF79
:100A700090422CBFD8176FEAE37040F00100704736
:100A80004FEA410C7FEA6C5C02D150EA013C07D18D
:100A90004FEA430C7FEA6C5CD6D152EA033CD3D0D8
:100AA0005DF8040B704700BF8446104662468C46D2
:100AB0001946634600E000BF01B5FFF7B7FF002805
:100AC00048BF10F1000F01BD4DF808EDFFF7F4FF2E
:100AD0000CBF012000205DF808FB00BF4DF808EDB9
:100AE000FFF7EAFF34BF012000205DF808FB00BFDC
:100AF0004DF808EDFFF7E0FF94BF012000205DF8FE
:100B000008FB00BF4DF808EDFFF7CEFF94BF0120B2
:100B100000205DF808FB00BF4DF808EDFFF7C4FFAB
:100B200034BF012000205DF808FB00BF4FEA410CF4
:100B30007FEA6C5C02D150EA013C0AD14FEA430CD7
:100B40007FEA6C5C02D152EA033C02D14FF0000014
:100B500070474FF0010070474FEA4102B2F1E043A5
:100B600024BFB3F5001CDCF1FE5C0DD901F0004C94
:100B70004FEAC0024CEA5070B2F1004F40EB8300E4
:100B800008BF20F00100704711F0804F21D113F110
:100B90003872BCBF01F00040704741F480114FEA49
:100BA0005252C2F11802C2F1200C10FA0CF320FAD2
:100BB00002F018BF40F001004FEAC1234FEAD323EF
:100BC00003FA0CFC40EA0C0023FA02F34FEA430359
:100BD000CCE77FEA625307D150EA01331EBF4FF0E2
:100BE000FE4040F44000704701F0004040F0FE40FD
:100BF00040F40000704700BF53B94AB9002908BF4C
:100C000000281CBF4FF0FF314FF0FF3000F074B9E7
:100C1000ADF1080C6DE904CE00F006F8DDF804E053
:100C2000DDE9022304B070472DE9F047089D044632
:100C30008E46002B4DD18A42944669D9B2FA82F28F
:100C400052B101FA02F3C2F1200120FA01F10CFACB
:100C500002FC41EA030E94404FEA1C48210CBEFB03
:100C6000F8F61FFA8CF708FB16E341EA034306FB8C
:100C700007F199420AD91CEB030306F1FF3080F01B
:100C80001F81994240F21C81023E63445B1AA4B268
:100C9000B3FBF8F008FB103344EA034400FB07F70A
:100CA000A7420AD91CEB040400F1FF3380F00A814B
:100CB000A74240F207816444023840EA0640E41B40
:100CC00000261DB1D4400023C5E900433146BDE8EC
:100CD000F0878B4209D9002D00F0EF800026C5E98E
:100CE000000130463146BDE8F087B3FA83F6002EA6
:100CF0004AD18B4202D3824200F2F980841A61EB1E
:100D0000030301209E46002DE0D0C5E9004EDDE73B
:100D100002B9FFDEB2FA82F2002A40F09280A1EB23
:100D20000C014FEA1C471FFA8CFE0126200CB1FB78
:100D3000F7F307FB131140EA01410EFB03F0884271
:100D400008D91CEB010103F1FF3802D2884200F2FE
:100D5000CB804346091AA4B2B1FBF7F007FB101190
:100D600044EA01440EFB00FEA64508D91CEB04042E
:100D700000F1FF3102D2A64500F2BB800846A4EB89
:100D80000E0440EA03409CE7C6F12007B34022FA74
:100D900007FC4CEA030C20FA07F401FA06F31C43A3
:100DA000F9404FEA1C4900FA06F3B1FBF9F8200CB0
:100DB0001FFA8CFE09FB181140EA014108FB0EF0F6
:100DC000884202FA06F20BD91CEB010108F1FF3A46
:100DD00080F08880884240F28580A8F10208614452
:100DE000091AA4B2B1FBF9F009FB101144EA014160
:100DF00000FB0EFE8E4508D91CEB010100F1FF340B
:100E00006CD28E456AD90238614440EA0840A0FBA2
:100E10000294A1EB0E01A142C846A64656D353D078
:100E20005DB1B3EB080261EB0E0101FA07F722FA9C
:100E300006F3F1401F43C5E9007100263146BDE8C5
:100E4000F087C2F12003D8400CFA02FC21FA03F328
:100E5000914001434FEA1C471FFA8CFEB3FBF7F0A9
:100E600007FB10360B0C43EA064300FB0EF69E42CE
:100E700004FA02F408D91CEB030300F1FF382FD267
:100E80009E422DD9023863449B1B89B2B3FBF7F60F
:100E900007FB163341EA034106FB0EF38B4208D9E8
:100EA0001CEB010106F1FF3816D28B4214D9023E29
:100EB0006144C91A46EA004638E72E46284605E747
:100EC0000646E3E61846F8E64B45A9D2B9EB020818
:100ED00064EB0C0E0138A3E74646EAE7204694E7A8
:100EE0004046D1E7D0467BE7023B614432E73046DB
:100EF00009E76444023842E7704700BF30B583B069
:100F00000121042001F0AEF86023009303238DF843
:100F1000053001258DF804508DF80650154C6946B2
:100F2000204601F0DCFA4FF4407300938DF8045032
:100F300000238DF8063002238DF805308DF8075018
:100F40006946204601F0CBFA4FF48071204601F04B
:100F500020FB4FF40071204601F01DFB2A46402182
:100F6000204601F01BFB2A462021204601F016FBFB
:100F700003B030BD0008024010B50B4C0122202107
:100F8000204601F00BFB01224021204601F006FB28
:100F900000222021204601F001FB002240212046B2
:100FA00001F0FCFA10BD00BF0008024010B5084C6B
:100FB00000222021204601F0F1FA012240212046A2
:100FC00001F0ECFA01222021204601F0E7FA10BDE1
:100FD0000008024070B50646002413E0802222413A
:100FE0000F4D32402021284601F0D8FA012240213D
:100FF000284601F0D3FA00224021284601F0CEFA1B
:101000000134E4B2072CE9D9054C012240212046E5
:1010100001F0C4FA00224021204601F0BFFA70BD61
:101020000008024010B50446FFF7A6FF7820FFF73E
:10103000D1FF0020FFF7CEFF2046FFF7CBFFFFF7E1
:10104000B5FF10BD10B50446FFF796FF7820FFF7F7
:10105000C1FF4020FFF7BEFF2046FFF7BBFFFFF7B1
:10106000A5FF10BD10B50C4640F0B000FFF7DAFF49
:10107000200940F01000FFF7D5FF04F00F00FFF744
:10108000D1FF10BD38B5002509E00020FFF7DAFFD9
:101090000134E4B214F0800FF7D00135EDB2072D22
:1010A00005D800212846FFF7DDFF0024F2E738BD10
:1010B000F8B51546461E7600F6B24F1EFF00FFB289
:1010C00039463046FFF7CEFF002409E0A5F12003A2
:1010D0000F4A02EB0313185DFFF7B4FF0134E4B2CB
:1010E000072CF3D9701C3946C0B2FFF7BBFF0024B0
:1010F0000BE0A5F1200304F10802054901EB0313FD
:10110000985CFFF79FFF0134E4B2072CF1D9F8BDDA
:10111000086E0008F8B507460E461546002406E09E
:10112000A119C9B23846FFF7C3FF0134E4B22A5D02
:10113000002AF5D1F8BD0246012002E002FB00F0D2
:1011400019464B1E0029F9D1704708B5002204E06A
:101150000133B3F57A7FFBD30132B2F57A7F01D246
:101160000023F6E7FFF7CAFEAE20FFF75BFFD520AE
:10117000FFF758FF8020FFF755FFA820FFF752FF29
:101180003F20FFF74FFFD320FFF74CFF0020FFF772
:1011900049FF4020FFF746FFA120FFF743FFC8208B
:1011A000FFF740FFDA20FFF73DFF1220FFF73AFF7D
:1011B0008120FFF737FFCF20FFF734FFD920FFF75B
:1011C00031FFF120FFF72EFFDB20FFF72BFF302050
:1011D000FFF728FFA420FFF725FFA620FFF722FF37
:1011E0008D20FFF71FFF1420FFF71CFFAF20FFF734
:1011F00019FFFFF747FF08BD2DE9F84F2DED028BD2
:1012000081468B46B0EE408A16469A46B5EEC00A35
:10121000F1EE10FA13DB2B22FFF74AFF51460A20AA
:10122000FFF789FF07EE900AF8EE677A27EE880A43
:10123000FDEEC07A17EE908A3446012725E02D2274
:10124000FFF736FFB1EE488AE8E704EB0B05EDB295
:10125000E9192E22C9B24846FFF72AFF311B0A209E
:10126000FFF769FFB8FBF0F0194AA2FB0032D20881
:1012700002EB8202A0EB42023032D2B2294648464B
:10128000FFF716FF0027013CE4B2ECB1A6EB0A031E
:101290009C42DAD004EB0B0557FA85F5EDB2311B11
:1012A0000A20FFF748FFB8FBF0F0094AA2FB003222
:1012B000D20802EB8202A0EB42023032D2B22946BF
:1012C0004846FFF7F5FEDEE7BDEC028BBDE8F88F80
:1012D000CDCCCCCCF0B587B00121084600F0C2FEE1
:1012E0000121042000F0BEFE0121102000F0D6FEF6
:1012F0004FF40073049302268DF8146000248DF8D7
:1013000016408DF8156001258DF817501C4F04A963
:10131000384601F0E4F807220921384601F044F983
:10132000802704978DF814508DF816408DF81560BD
:101330008DF81750134E04A9304601F0D0F8394605
:10134000304601F026F94FF4E1330093ADF8044044
:10135000ADF80640ADF80840ADF80C400823ADF8F4
:101360000A3004F1804404F588346946204601F0CF
:1013700037F82946204601F099F807B0F0BD00BFC4
:10138000000002400008024070B506460D461446B3
:1013900000F096FA304600F0ACFA00F0E4FA284685
:1013A00000F0A7FA00F0DFFA204600F0A2FA00F001
:1013B000DAFA00F093FA70BD08B501226B21D02053
:1013C000FFF7E2FF00226C21D020FFF7DDFF0922AA
:1013D0001921D020FFF7D8FF06221A21D020FFF7CD
:1013E000D3FF00221B21D020FFF7CEFF10221C21AB
:1013F000D020FFF7C9FF02223721D020FFF7C4FF1A
:1014000000226A21D020FFF7BFFF08BD08B5702277
:1014100000213C20FFF7B8FF202201213C20FFF7EC
:10142000B3FF002202213C20FFF7AEFF08BD38B514
:1014300004460D4600F044FA204600F05AFA00F047
:1014400092FA284600F055FA00F08DFA00F038FACA
:1014500044F0010000F04DFA00F085FA00F05DFA6A
:101460000446012000F075FA00F038FA204638BD35
:10147000F8B52DED028B3B21D020FFF7D8FF0446B5
:101480003C21D020FFF7D3FF40EA042003B207EE4F
:10149000903AF8EEE77A9FED9C8A67EE887A9B4C4B
:1014A00094ED017A77EEC77A94ED047A67EE877A45
:1014B000974DC5ED007A3D21D020FFF7B8FF0646D5
:1014C0003E21D020FFF7B3FF40EA062003B207EE2B
:1014D000903AF8EEE77A67EE887A94ED027A77EE42
:1014E000C77A94ED057A67EE877AC5ED017A3F21D8
:1014F000D020FFF79CFF06464021D020FFF797FF42
:1015000040EA062003B207EE903AF8EEE77A67EE7B
:10151000887A94ED037A77EEC77A94ED067A67EECF
:10152000877AC5ED027A4321D020FFF780FF064677
:101530004421D020FFF77BFF360236B23043FEF75E
:10154000F1FF6DA3D3E90023FFF780F906460F46AC
:10155000E069FEF7F9FF02460B4630463946FEF7D2
:1015600093FE06460F46A06AFEF7EEFF02460B46C4
:1015700030463946FFF740F861A3D3E90023FFF76F
:101580003BF8FFF7E9FA28614521D020FFF74FFF2C
:1015900006464621D020FFF74AFF360236B23043D6
:1015A000FEF7C0FF54A3D3E90023FFF74FF9064627
:1015B0000F46206AFEF7C8FF02460B463046394602
:1015C000FEF762FE06460F46E06AFEF7BDFF0246E2
:1015D0000B4630463946FFF70FF849A3D3E90023FD
:1015E000FFF70AF8FFF7B8FA68614721D020FFF744
:1015F0001EFF06464821D020FFF719FF360236B2FB
:101600003043FEF78FFF3CA3D3E90023FFF71EF919
:1016100006460F46606AFEF797FF02460B463046C5
:101620003946FEF731FE06460F46206BFEF78CFF6B
:1016300002460B4630463946FEF7DEFF30A3D3E9BB
:101640000023FEF7D9FFFFF787FAA86103213C20AA
:10165000FFF7EDFE064604213C20FFF7E8FE3602C8
:1016600036B240EA060307EE903A94ED0D7AF8EEB2
:10167000E77A77EEC77A94ED107A67EE877AC5ED50
:10168000077A07213C20FFF7D2FE064608213C20BE
:10169000FFF7CDFE360236B240EA060307EE903A77
:1016A00094ED0E7AF8EEE77A77EEC77A94ED117A38
:1016B00067EE877AC5ED087A05213C20FFF7B7FE73
:1016C000064606213C20FFF7B2FE360236B240EA5B
:1016D000060307EE903A94ED0F7AF8EEE77A77EE8C
:1016E000C77A94ED127A67EE877AC5ED097ABDEC78
:1016F000028BF8BDAFF30080FCA9F1D24D626040CF
:10170000000000A046DF913F00008039F46800200F
:101710000000002010B5044600F0D2F8EC2000F0E4
:10172000E8F800F020F9204600F0E3F800F01BF99B
:1017300000F0D4F810BD10B5044600F0C1F8EC205C
:1017400000F0D7F800F00FF9204600F0D2F800F0D2
:101750000AF900F0B5F8ED2000F0CBF800F003F93D
:1017600000F0DBF8012000F0F4F800F0D6F80402F5
:10177000002000F0EEF800F0B1F804F47F4010BD56
:1017800008B51E20FFF7C6FFA220FFF7D4FFC00355
:101790001A4B1880A420FFF7CEFF194B00221A80A5
:1017A000A620FFF7C8FFFEF7BDFE0022154BFEF78F
:1017B00023FF154BC3E90001A820FFF7BCFFFEF78C
:1017C000B1FE00224FF07E53FEF716FF0F4BC3E928
:1017D0000001AA20FFF7AFFF00020D4B1880AC20DC
:1017E000FFF7A9FFFEF79EFE00224FF07A53FEF7A7
:1017F00003FF084BC3E9000108BD00BFDE00002065
:10180000DC0000200000703FE8000020E000002025
:10181000F8000020F000002008B500F007F8FFF7FE
:10182000CBFDFFF7F3FDFFF7ABFF08BD30B583B08D
:101830000121022000F016FC4FF4407500950323AF
:101840008DF8053001238DF804308DF80630054CF5
:101850006946204600F043FE2946204600F099FEE6
:1018600003B030BD0004024008B502464FF4807159
:10187000034800F093FE0020002102F091FD08BD16
:101880000004024008B502464FF40071034800F01E
:1018900085FE0020002102F083FD08BD0004024007
:1018A00010B54FF40071054800F06CFE04460020AE
:1018B000002102F075FD204610BD00BF000402406B
:1018C00008B50120FFF7DEFF0120FFF7CDFF002064
:1018D000FFF7D8FF0020FFF7C7FF08BD08B50020BD
:1018E000FFF7D0FF0120FFF7BFFF0120FFF7CAFF7E
:1018F00008BD38B5054600240CE080202041284072
:10190000FFF7C0FF0120FFF7AFFF0020FFF7ACFF9C
:101910000134E4B2072CF0D938BD38B50120FFF707
:10192000B1FF0024254604E00020FFF79DFF0134AD
:10193000E4B2072C0BD80120FFF796FFFFF7B0FFAA
:101940000128F1D1802323411D43EDB2ECE7284665
:1019500038BD08B5FFF796FF0120FFF785FF00208F
:10196000FFF782FF08BD10B50120FFF78BFF0120B4
:10197000FFF77AFFFFF794FF04460020FFF774FF9C
:10198000204610BD00B583B00121084600F06AFB77
:101990002023009303238DF8053001238DF80430B4
:1019A00000238DF806306946024800F098FD03B028
:1019B0005DF804FB0000024008B52021014800F05A
:1019C000E8FD08BD000002402DE9F0418AB0012188
:1019D000084600F047FB0121022000F043FB0121F3
:1019E000022000F04DFBC023089302248DF8244010
:1019F00000268DF8266003278DF8257001258DF8C7
:101A00002750DFF8D88008A9404600F068FD22463C
:101A10000621404600F0C8FD22460721404600F05E
:101A2000C3FD08978DF824408DF826608DF8257049
:101A30008DF82750274F08A9384600F050FD224660
:101A40003146384600F0B0FD22462946384600F0BF
:101A5000ABFD5323ADF81430ADF8166044F61F63A8
:101A60000693ADF81C601C4C05A9204600F024FB31
:101A70006023ADF80030ADF80250ADF80C60694657
:101A8000204600F073FB6946204600F0ABFB694638
:101A9000204600F0F3FB6946204600F039FC08219F
:101AA000204600F07DFC0821204600F080FC082143
:101AB000204600F085FC0821204600F088FC2946DD
:101AC000204600F037FB2946204600F041FB0AB0D3
:101AD000BDE8F08100040240000400400000024024
:101AE00038B50446084D0146284600F051FC214611
:101AF000284600F04FFC2146284600F04DFC2146C8
:101B0000284600F04BFC38BD0004004008B5FFF744
:101B10005BFF08BD08B5B0F5FA6F07D2B0F57A7F64
:101B200038BF4FF47A70FFF7DBFF08BD4FF4FA605F
:101B3000F9E7000030B583B00121042000F092FAEB
:101B4000032300938DF8053001248DF804408DF8AF
:101B50000640084D6946284600F0C1FC2246214651
:101B6000284600F01BFD22460221284600F016FD03
:101B700003B030BD0008024010B50B4C0122022119
:101B8000204600F00BFD01221146204600F006FD24
:101B900000220221204600F001FD00220121204602
:101BA00000F0FCFC10BD00BF0008024010B5084C5E
:101BB00000220221204600F0F1FC012211462046BD
:101BC00000F0ECFC01220221204600F0E7FC10BDF1
:101BD0000008024070B50646002413E0802222412E
:101BE0000F4D32400221284600F0D8FC0122114658
:101BF000284600F0D3FC00220121284600F0CEFC4C
:101C00000134E4B2072CE9D9054C012211462046E3
:101C100000F0C4FC00220121204600F0BFFC70BD92
:101C20000008024010B50446FFF7A6FF7820FFF732
:101C3000D1FF0020FFF7CEFF2046FFF7CBFFFFF7D5
:101C4000B5FF10BD10B50446FFF796FF7820FFF7EB
:101C5000C1FF4020FFF7BEFF2046FFF7BBFFFFF7A5
:101C6000A5FF10BD10B50C4640F0B000FFF7DAFF3D
:101C7000200940F01000FFF7D5FF04F00F00FFF738
:101C8000D1FF10BD38B5002509E00020FFF7DAFFCD
:101C90000134E4B214F0800FF7D00135EDB2072D16
:101CA00005D800212846FFF7DDFF0024F2E738BD04
:101CB00008B5002204E00133B3F57A7FFBD301328B
:101CC000B2F57A7F01D20023F6E7FFF733FFAE20AB
:101CD000FFF7A8FFD520FFF7A5FF8020FFF7A2FFA1
:101CE000A820FFF79FFF3F20FFF79CFFD320FFF7BF
:101CF00099FF0020FFF796FF4020FFF793FFA120F8
:101D0000FFF790FFC820FFF78DFFDA20FFF78AFF6B
:101D10001220FFF787FF8120FFF784FFCF20FFF716
:101D200081FFD920FFF77EFFF120FFF77BFFDB204B
:101D3000FFF778FF3020FFF775FFA420FFF772FF51
:101D4000A620FFF76FFF8D20FFF76CFF1420FFF731
:101D500069FFAF20FFF766FFFFF794FF08BD0000A3
:101D60002A4B1A6C42F001021A641A6B42F001020B
:101D70001A63A3F560531A6842F008021A609A6861
:101D800042F00C029A601A6A22F0F0021A621A6A91
:101D900042F010021A624FF08043DA6A6FEA124290
:101DA0006FEA0242DA621A8D92B242F053021A8549
:101DB0001A8992B242F060021A811A8992B242F0F4
:101DC00004021A811A8B92B242F480721A831A8B1F
:101DD00092B21A831A8C92B242F010021A849A8933
:101DE00092B242F004029A81094A0A49D160A2F5EE
:101DF0004062902182F81C134FF0805111601A88C4
:101E000092B242F001021A80704700BF00380240CF
:101E100000ED00E00005FA0508B54FF080431B8A8D
:101E200013F0040F21D04FF080439B6B9BB2A3F6BD
:101E3000AC5292B2B2F5FA5F05D8154A0121118071
:101E4000144A00211180124A1288012A0ED04FF044
:101E50008042138A9BB223F004039BB213820E4B81
:101E6000DA8940F2DB539A420ED908BD09490A8843
:101E7000094820F81230531C9BB20B80082BE6D97E
:101E8000034B00221A80E2E70020FFF743FEECE755
:101E9000100100200E010020FC00002082B0002371
:101EA00001930093294A136843F480331360274B4E
:101EB0001B6803F400330093019B01330193009BE3
:101EC0001BB9019BB3F5A04FF1D1204B1B6813F454
:101ED000003F06D001230093009B012B04D002B0E9
:101EE000704700230093F7E7184B1A6C42F08052BA
:101EF0001A6417490A6842F440420A609A689A6074
:101F00009A689A609A6842F480529A60114A5A60BC
:101F10001A6842F080721A600C4B1B6813F0007F45
:101F2000FAD00D4B40F202721A60A3F580639A68F2
:101F300022F003029A609A6842F002029A60034B10
:101F40009B6803F00C03082BF9D1C8E70038024066
:101F50000070004004154007003C024010B5104CD2
:101F6000D4F8883043F47003C4F888300D4B1A68F5
:101F700042F001021A60002199601A6822F084720E
:101F800022F480321A60084A5A601A6822F48022C9
:101F90001A60D960FFF782FF4FF00063A36010BDA5
:101FA00000ED00E0003802401030002410B4294B4E
:101FB0009B6803F00C03042B23D0082B24D013B10F
:101FC000254B036001E0244B0360224CA368C3F35C
:101FD00003132249CB5CDAB20368D3404360A268A2
:101FE000C2F382228A5CD2B223FA02F28260A26831
:101FF000C2F342328A5CD2B2D340C3605DF8044B74
:102000007047174B0360E0E7124B59685A6802F0BB
:102010003F0211F4800F12D0114BB3FBF2F30D4AC3
:102020005268C2F3881202FB03F30A4A5268C2F3F1
:10203000014201325200B3FBF2F30360C5E7064BE5
:10204000B3FBF2F3034A5268C2F3881202FB03F3B4
:10205000EBE700BF003802400024F4002C00002011
:1020600000127A0021B1054A136B184310637047C0
:10207000024A136B23EA00001063704700380240E5
:1020800021B1054A136C184310647047024A136C5F
:1020900023EA0000106470470038024021B1054A6D
:1020A000536C184350647047024A536C23EA000093
:1020B000506470470038024003889BB21B4A90422C
:1020C00012D002F5806290420ED0B0F1804F0BD05A
:1020D000A2F58032904207D002F58062904203D090
:1020E00002F58062904203D123F070034A881343C3
:1020F0000F4A904208D002F58062904204D023F447
:1021000040739BB20A89134303804B68C3620B88F8
:102110000385064B984203D003F58063984201D1B2
:102120008B7A038601238382704700BF0000014041
:102130000010004029B103889BB243F08003038064
:10214000704703889BB223F080039BB203807047E3
:1021500029B103889BB243F00103038070470388D1
:102160009BB223F001039BB20380704710B5038C30
:102170009BB223F001039BB20384038C9BB2B0F8A3
:1021800004E01FFA8EFE028B92B222F073020C88DA
:10219000224323F00203B1F80CC043EA0C0C4B8835
:1021A00043EA0C030E4CA04203D004F58064A04225
:1021B0000FD123F00803CC89234323F004038C8838
:1021C00023432EF4407E0C8A4EEA040E4C8A44EAE5
:1021D0000E0EA0F804E002838A684263038410BDF7
:1021E0000000014000B5038C9BB223F010039BB2AA
:1021F0000384038C9BB2B0F804E01FFA8EFEB0F8A3
:1022000018C01FFA8CFC2CF4E64C0A88120292B219
:102210004CEA020C23F020038A89120192B21A437D
:102220004B881B019BB21343134A904203D002F523
:102230008062904217D123F08003CA89120192B2C2
:10224000134323F040028B881B019BB213432EF4EF
:10225000406E0A8A920092B24EEA020E4A8A9200B8
:1022600092B242EA0E0EA0F804E0A0F818C08A6804
:10227000826303845DF804FB0000014000B5038C19
:102280009BB223F480739BB20384038C9BB2B0F89F
:1022900004E01FFA8EFEB0F81CC01FFA8CFC2CF074
:1022A000730C0A884CEA020C23F400738A89120228
:1022B00092B21A434B881B029BB21343134A9042BB
:1022C00003D002F58062904217D123F40063CA89DB
:1022D000120292B2134323F480628B881B029BB2DA
:1022E00013432EF4405E0A8A120192B24EEA020EA5
:1022F0004A8A120192B242EA0E0EA0F804E0A0F857
:102300001CC08A68C26303845DF804FB00000140BE
:1023100010B5038C9BB223F480539BB20384038CCF
:102320009BB2B0F804E01FFA8EFE828B92B222F4C8
:10233000E64C0A88120292B24CEA020223F40053DD
:10234000B1F80CC04FEA0C3C1FFA8CFC43EA0C0CB1
:102350004B881B039BB243EA0C030C4CA04203D0F6
:1023600004F58064A04209D12EF4804EB1F810C06B
:102370004FEA8C1C1FFA8CFC4EEA0C0EA0F804E00D
:1023800082838A680264038410BD00BF000001409C
:102390004163704781637047C16370470164704750
:1023A000038B9BB223F008030B4303837047038B1B
:1023B0009BB223F40063090289B20B430383704785
:1023C000838B9BB223F008030B4383837047838B7B
:1023D0009BB223F40063090289B20B4383837047E5
:1023E00030B585B004460D46038A9BB223F44053B2
:1023F000CA881343038283899BB223F4B05323F02A
:102400000C03898828896A8901430A431343A381FD
:10241000A38A9BB223F44073AA891343A38268461C
:10242000FFF7C4FD1F4B9C4205D003F580639C421F
:1024300001D0029B00E0039BA28912F4004F1FD140
:1024400003EB830303EB83032A689200B3FBF2F3ED
:10245000154AA2FB031252091101642002FB10333A
:10246000A28912F4004F14D11B0132330E4AA2FB91
:102470000323C3F343130B439BB2238105B030BD49
:1024800003EB830303EB83032A685200B3FBF2F3ED
:10249000DEE7DB003233044AA2FB0323C3F342131B
:1024A0000B43E9E7001001401F85EB5129B18389F7
:1024B0009BB243F400538381704783899BB223F41A
:1024C00000539BB283817047C1F30801818070473C
:1024D0000388194201D00120704700207047002373
:1024E0000F2B4ED830B516E0C2681FFA83FE4FEAB4
:1024F0004E044FF0030E0EFA04FE22EA0E02C260F2
:10250000C26891F807E00EFA0CFC42EA0C02C260C5
:1025100001330F2B34D801229A400C68A243F7D123
:1025200004684FEA430C032202FA0CF26FEA020E2F
:1025300024EA0202026002680C7904FA0CF42243D5
:1025400002600A79013AD2B2012ACDD882680EEA35
:102550000202826082684C7904FA0CF422438260A1
:1025600044689DB24FF0010E0EFA05FE24EA0E04F7
:10257000446044688A79AA4092B222434260B3E739
:1025800030BD70470369194201D001207047002017
:102590007047816170470904816170470AB18161A8
:1025A000704709048161704700B501F007039B0083
:1025B00002FA03FCC908083150F821204FF00F0E31
:1025C0000EFA03F322EA030340F8213050F82120E9
:1025D00042EA0C0240F821205DF804FB28B1064ACB
:1025E000136843F4806313607047034A136823F44D
:1025F00080631360704700BF003C0240054B1B69BD
:10260000002B00DB7047034B034A5A6002F188320B
:102610005A60F7E7003C024023016745024A13690C
:1026200043F0004313617047003C0240124BDB68EB
:1026300013F4803F15D1104BDB6813F0100F12D14B
:102640000D4BDB6813F4807F0FD10B4BDB6813F06D
:10265000E00F0CD1084BDB6813F0020F09D0082003
:1026600070470120704706207047022070470720FE
:1026700070470920704700BF003C024000B583B09E
:1026800009238DF80730FFF7D1FF8DF8070003E02D
:10269000FFF7CCFF8DF807009DF80730DBB2012B68
:1026A000F6D09DF8070003B05DF804FB70B5044652
:1026B00049B101290DD0022902D04FF4407603E040
:1026C0004FF4007600E00026FFF7D8FF092803D07A
:1026D00070BD4FF48076F7E70F4D2B6923F44073FC
:1026E0002B612B691E432E612B6923F0F8032B61AC
:1026F0002869204340F0020028612B6943F48033AD
:102700002B61FFF7BBFF2B6923F002032B612B69C1
:1027100023F0F8032B61DBE7003C024070B505466F
:102720000C46FFF7ABFF092800D070BD0A4E336995
:1027300023F440733361336943F4007333613369C5
:1027400043F0010333612C60FFF798FF336923F0F6
:1027500001033361E9E700BF003C024010B584B0DB
:10276000B34A01210220FEF7D5FCB24A0121032021
:10277000FEF7D0FCB04A01210420FEF7CBFC01207B
:10278000002101F073FEAD4A01210420FEF7C2FCD6
:102790000120002101F06AFEA94A01210420FEF770
:1027A000B9FC0120002101F061FEA64A01210420AC
:1027B000FEF7B0FCA44A01210220FEF7ABFCA34ABD
:1027C00001210320FEF7A6FCA14A01210420FEF707
:1027D000A1FC00231EE09F4A02EB83010020486019
:1027E000991D02EB8101486003F10C0102EB8101AC
:1027F0004860181D02EB80004FF07E51016003F12C
:102800000A0002EB8000016003F1100002EB80027D
:1028100011600133022BDEDD00240AE08E4A012123
:102820000420FEF777FC40F2DC50002101F02CFD83
:102830000134B4F5967F52DAFEF71AFE874B18681A
:1028400004EB44029100864A0A44106059685160C2
:1028500099689160D86904EB44029100814A0A4466
:102860001060196A51605B6A93600520002101F0D5
:102870000BFD312CD2D0632C10D0952C19D0C72C45
:1028800022D0F92CD4D1784A01210420FEF742FC51
:1028900040F2DC50002101F0F7FCC9E7674A012152
:1028A0000420FEF737FC40F2DC50002101F0ECFC84
:1028B000BEE76E4A01210420FEF72CFC40F2DC50FA
:1028C000002101F0E1FCB3E75D4A01210420FEF79D
:1028D00021FC40F2DC50002101F0D6FCA8E7594A67
:1028E00001210420FEF716FC4FF4FA70002101F0DC
:1028F000CBFC5F4A01210220FEF70CFC5D4A01215E
:102900000320FEF707FC524A01210420FEF702FCD7
:10291000002405E0504A01210420FEF7FBFB0134AE
:10292000B4F5967F31DA4D4A106904EB44039900FF
:10293000514B0B4418605169596092699A600A20A2
:10294000002101F0A1FC312CE4D0632C0BD0952C9C
:102950000FD0C72C13D0F92CE1D1434A0121042018
:10296000FEF7D8FBDBE7354A01210420FEF7D2FB56
:10297000D5E73E4A01210420FEF7CCFBCFE7304AE1
:1029800001210420FEF7C6FBC9E72E4A01210420DD
:10299000FEF7C0FB002301930293039300221DE086
:1029A00002EB42039900344B0B4493ED007ADDEDCA
:1029B000017A77EE877ACDED017A93ED017ADDED3C
:1029C000027A77EE877ACDED027A93ED027ADDED29
:1029D000037A77EE877ACDED037A0132B2F5967FEE
:1029E000DEDBDFED267ADDED016A86EEA77A194B94
:1029F00083ED077ADDED026A86EEA77A83ED087A29
:102A0000DDED036A86EEA77A83ED097A084A012193
:102A10000220FEF77FFB1A4A01210320FEF77AFB12
:102A2000184A01210420FEF775FB04B010BD00BF59
:102A3000F87300080C74000820740008347400084F
:102A4000487400085C7400087074000884740008FE
:102A500098740008F4680020AC740008000000209E
:102A60005439002034560020D4740008C074000883
:102A7000E8740008FC740008244800200000964315
:102A80001075000824750008B4EE400AF1EE10FA43
:102A90000CD6B4EEE00AF1EE10FA0ED4B4EEC10A90
:102AA000F1EE10FA0BDDB0EE410A704770EE810ACC
:102AB000B6EE000A20EE800A7047B0EE600A70475A
:102AC00038B54FF0000E75E00132052A1ADCC2EB72
:102AD000C20300EB830303EB8E0393ED007AB0EEA9
:102AE000C77AC1EBC10300EB830303EB8E03D3ED85
:102AF000007AF0EEE77AB4EEE77AF1EE10FAE3DD71
:102B00001146E1E7C1EBC10500EB850505EB8E033E
:102B1000D3ED007AF0EEE77A9FED417AF4EEC77AD2
:102B2000F1EE10FA03D48E4519D125462BE03D482D
:102B300002F080FB38BDCEEBCE0300EB830303EB4A
:102B40008203D3F800C005EB8201D1ED007AC3ED1A
:102B5000007AC1F800C00132062AECDDE5E7002268
:102B6000FAE701EB8302D2ED007A27EEA67A0CEBAE
:102B70008302D2ED007A77EEC77AC2ED007A013394
:102B8000062BEEDD0135052D13DCC5EBC50C00EB86
:102B90008C0C0CEB8E0393ED007ACEEBCE0100EBA8
:102BA000810101EB8E03D3ED007AC7EE276A7346ED
:102BB000E6E7A646BEF1050F04DC0EF1010422464D
:102BC000714682E705240EE0C4EBC40300EB8303E7
:102BD00003EB840292ED007AD3ED066AC6EE877AA3
:102BE000C3ED067A013C002CA4DB631C052BEBDC57
:102BF000C4EBC40200EB8202C3EBC30100EB810112
:102C0000D1ED067A02EB830191ED007A27EE877A07
:102C1000D2ED067A77EEC77AC2ED067A0133E5E7A0
:102C2000BD378635387500082DE9F04F2DED028B44
:102C30008FB005460C46AB4B00229A605A601A6072
:102C4000A94B4FF07E529A605A601A60A74BA84A6F
:102C50001A600026DFEDA78ADFE1A34F97ED007A27
:102C600077EE076A67EE266A9E4890ED006A02EBEF
:102C7000420104EB8101D1ED007A76EE675A66EEEF
:102C8000A56A02EB420C9C4B03EBCC03C3ED006A3C
:102C900077EEC67A77EEA76A67EEA67A67EE277AAE
:102CA000C3ED017A97ED017A77EE076A67EE266A3F
:102CB00090ED016AD1ED017A76EE675A66EEA56A6B
:102CC000C3ED026A77EEC67A77EEA76A67EEA67A58
:102CD00067EE277AC3ED037A97ED027A77EE076AFB
:102CE00067EE266A90ED026AD1ED027A76EE675AB7
:102CF00066EEA56AC3ED046A77EEC67A77EEA76A38
:102D000067EEA67A67EE277AC3ED057A0132B2F54F
:102D1000967FA2DB002015E000EB400203EB4201AE
:102D2000754A02EB8102D2F800C04FF4967202FBA2
:102D30000301724A02EB8102C2F800C00133052B85
:102D4000EADD0130B0F5967F01DA0023F7E70023D2
:102D50009FED6B8A41E06448D0ED007A27EEA77AB8
:102D60006049D1ED007A03EB430204EB8202D2ED1D
:102D7000006A77EEE67A27EE277A67EE877A90ED9B
:102D8000017A67EE076A91ED017A92ED016A37EEFA
:102D9000467A66EE876A27EE267A77EE877A90ED96
:102DA000027A67EE076A91ED027A92ED026A37EED7
:102DB000467A66EE876A27EE267A77EE877AB7EE4E
:102DC000007A77EEC77A4F4A02EB8302C2ED007AAF
:102DD00067EEA77A38EE278A0133B3F5967FBADB20
:102DE000002035E04FF4967202FB0031434A02EBBB
:102DF0008102D2ED007A03EB43020CEB42013E4A22
:102E000002EB810292ED007A27EE877AC0EBC002D6
:102E100002EB0C013C4A02EB8102D2ED007A77EE24
:102E2000877AC2ED007A0133B3F5967FDADB0CF1D5
:102E3000010CBCF1050F0ADCC0EBC00303EB0C0274
:102E4000314B03EB820300221A600023ECE70130D0
:102E5000052802DC4FF0000CEBE700201FE04FF4E8
:102E6000967202FB0031254A02EB8102D2ED007A14
:102E7000244A02EB830292ED007A27EE877AC0EBB8
:102E8000C002214901EB8202D2ED067A77EE877A01
:102E9000C2ED067A0133B3F5967FE0DB01300528F9
:102EA00008DCC0EBC002184B03EB820300229A61DE
:102EB0000023F0E700230CE0134A02EB4312D2EDAB
:102EC000007A0A4991ED007A77EE877AC2ED007AAE
:102ED0000133052BF0DD0C48FFF7F2FD0023DFED99
:102EE000087A1FE064470020704700203C00002063
:102EF000CDCCCC3D0000C84214010020341D002080
:102F000000000000446400207C470020C3EBC301A4
:102F10005A4A02EB810292ED067A27EE077A77EEA3
:102F2000877A0133052BF1DDF4EEE78AF1EE10FA32
:102F30007EDD534B93ED006AF0EE086A86EE267A4A
:102F400083ED007A4D4AD2ED066A4E4991ED007A42
:102F500037EE667A81ED007AD2ED0D6A4A4B93ED39
:102F6000007A37EE667A83ED007AD2ED146A91ED3D
:102F7000017A37EE667A81ED017AD2ED1B6A93ED24
:102F8000017A37EE667A83ED017AD2ED226A91ED0D
:102F9000027A37EE667A81ED027AD2ED296A93EDF4
:102FA000027A37EE667A83ED027AF0EE678A0136AE
:102FB000344B354A1768D3F804A0D2F804B0D3F8DC
:102FC0000880D2F808901868FDF7BEFACDE90C0128
:102FD00018EE100AFDF7B8FACDE90A014846FDF7E8
:102FE000B3FACDE908014046FDF7AEFACDE9060196
:102FF0005846FDF7A9FACDE904015046FDF7A4FAB9
:10300000CDE902013846FDF79FFACDE90001DDE97F
:103010000C2331461D4802F087F8DFED1D7AF4EEEF
:10302000E78AF1EE10FA15DD632E13DC00226EE65E
:10303000134F97ED000AF0EE087A20EE270A87ED8D
:10304000000A9FED141ADFED140AFFF71DFD87ED4E
:10305000000AACE70B4B1A682A605A686A609B68E2
:10306000AB60094B1A68EA605A682A619B686B6119
:103070000FB0BDEC028BBDE8F08F00BF7C47002095
:103080003C00002064470020704700206075000865
:10309000BD378635F90215500000000010B586B026
:1030A000EC46974C0FCCACE80F0094E803008CE89A
:1030B0000300FFF753FB934A01210220FEF72AF891
:1030C000914A01210320FEF725F8904A01210420AE
:1030D000FEF720F88E496846FFF7A6FD0423052277
:1030E0009DED000A01210220FEF786F80423052247
:1030F0009DED030A09210220FEF77EF80423052234
:103100009DED010A01210320FEF776F80423052234
:103110009DED040A09210320FEF76EF80423052221
:103120009DED020A01211846FEF766F804230522E8
:103130009DED050A09211846FEF75EF803200021DF
:1031400001F094F9002313E006AA02EB830252F87F
:10315000180C704A02EB83014860D91C06A800EBEA
:10316000810151F8181C181D02EB80021160013317
:10317000022BE9DD684A01210220FDF7CBFF624AFC
:1031800001210320FDF7C6FF604A01210420FDF75D
:10319000C1FF62496846FFF747FD042305229DED04
:1031A000000A01210220FEF727F8042305229DEDE5
:1031B000030A09210220FEF71FF8042305229DEDD2
:1031C000010A01210320FEF717F8042305229DEDD3
:1031D000040A09210320FEF70FF8042305229DEDC0
:1031E000020A01211846FEF707F8042305229DED87
:1031F000050A09211846FDF7FFFF0320002101F011
:1032000035F9002315E006AA02EB830252F8180CE8
:10321000404A991D02EB81014860D91C06A800EBC9
:10322000810151F8181C03F10A0002EB80021160C1
:103230000133022BE7DD3A4A01210220FDF76AFF44
:10324000314A01210320FDF765FF304A01210420A6
:10325000FDF760FF33496846FFF7E6FC04230522CB
:103260009DED000A01210220FDF7C6FF042305227F
:103270009DED030A09210220FDF7BEFF042305226C
:103280009DED010A01210320FDF7B6FF042305226D
:103290009DED040A09210320FDF7AEFF042305225A
:1032A0009DED020A01211846FDF7A6FF0423052221
:1032B0009DED050A09211846FDF79EFF0320002118
:1032C00001F0D4F8002316E006AA02EB830252F8BC
:1032D000180C104A03F10C0102EB81014860D91C63
:1032E00006A800EB810151F8181C03F1100002EB55
:1032F000800211600133022BE6DD06B010BD00BF75
:10330000F06D0008BC75000898740008247500086A
:1033100054390020F4680020D075000824480020AB
:10332000E47500083456002008B5602202490348BD
:1033300001F0E4FE08BD00BF00000608F4680020AC
:1033400038B5FFF75BF90020FFF748F90221382074
:10335000FFF7ACF9092805D00120FFF73FF9FFF787
:103360005DF938BD064D074C074B9C42F4D82968DF
:103370002046FFF7D3F90928EED104340435F3E7EA
:10338000F4680020000006085F000608F6EE007AE8
:1033900060EE277A10EE103A074AA2EB630307EEBD
:1033A000103A67EE277A67EE277AB7EE080A30EE12
:1033B000670A27EE000A7047DF59375FF8B52DED31
:1033C000068BB0EE40AAF0EE609AB0EE418AB0EE05
:1033D000619AF0EE42AAF0EE628AF5EE401AF1EE42
:1033E00010FA0AD1B5EE402AF1EE10FA05D1F5EE49
:1033F000402AF1EE10FA00F0AD8069EE097A2AEE6B
:10340000AA0A77EE807A28EEA80A37EE800AFFF73C
:10341000BDFF29EE009A6AEE80AA68EE808AA14874
:1034200090ED007AA04BD3ED007A27EE277A9F4AE1
:10343000D2ED007A9E49D1ED006A67EEA67A37EEAA
:10344000677AD2ED006AD0ED007A66EEA76AD1ED18
:10345000007A93ED006A67EE867A76EEA76AD2ED7F
:10346000007A92ED006A67EE867AB6EE006A77EE31
:10347000C67A93ED006AD3ED005A26EE256A77EE00
:10348000867A6AEEA75A28EEA66A35EEC66A68EE14
:10349000878A69EE277A78EEE78A29EE269A6AEE1D
:1034A00087AA79EE6A7A834B93ED007AB5EEC07AFB
:1034B000F1EE10FA40F3EE80184693ED007A27EE15
:1034C000067A7D4BD3ED006A27EE267A7B49D1ED53
:1034D000006A36EE877A81ED007A90ED007A27EE69
:1034E000287AD3ED006A27EE267A754AD2ED006A73
:1034F00036EE877A82ED007A90ED007A27EE277A11
:10350000D3ED006A27EE267A6E4BD3ED006A36EED5
:10351000877A83ED007A91ED007A3AEE07AA92ED70
:10352000007A79EE879A93ED007A38EE078A664B37
:1035300093ED007A27EE066A3AEE06AA93ED007A3A
:1035400067EE288A79EEA89A93ED007A67EE277ADB
:1035500038EE278A584B93ED000AF6EE007A20EEFB
:10356000270A2AEE000AD3ED000A60EEA70A69EEE8
:10357000A00A93ED001A21EE271A28EE011A4B4FEC
:1035800097ED006A474ED6ED006A494D95ED007AF9
:1035900066EEC07A60EE875A77EEE57A424CD4ED5B
:1035A000005A65EE815A77EEE57AD7ED005A75EE4E
:1035B000A77AC7ED007A60EE067A61EE075A77EED9
:1035C000A57AD4ED005A65EEA05A77EEE57AD6EDED
:1035D000005A75EEA77AC6ED007A60EE867A61EE43
:1035E000265A77EEE57AD4ED005A65EE805A77EEEA
:1035F000A57AD5ED005A75EEA77AC5ED007A21EED1
:10360000061A60EEA60A31EE201A20EE070A31EE05
:10361000401AD4ED007A31EE271A84ED001AD7ED66
:10362000007A97ED000A67EE807A96ED000A96ED33
:10363000007A20EE070A77EE807A95ED000A95ED84
:10364000007A20EE070A77EE807A94ED000A94ED76
:10365000007A20EE070A37EE800AFFF797FED7EDD3
:10366000007A67EE807AC7ED007AD6ED007A67EED1
:10367000807AC6ED007AD5ED007A67EE807AC5EDE6
:10368000007AD4ED007A27EE800A84ED000ABDECC2
:10369000068BF8BD0023094A1360094A1360094AE2
:1036A000136044E7B86A0020C06A00205000002080
:1036B000BC6A0020400000204C000020546900201B
:1036C000586900205C69002044000020F0B52DED11
:1036D000108B87B0F0EE40CAB0EE60CAB0EE418AFF
:1036E000F0EE619AF0EE42AAB0EE62BAF0EE438AD2
:1036F000B0EE63AAB0EE449AB5EE403AF1EE10FA9D
:103700000AD1F5EE403AF1EE10FA05D1B5EE404A95
:10371000F1EE10FA00F01082F5EE409AF1EE10FA98
:103720000AD1F5EE40AAF1EE10FA05D1B5EE40BA95
:10373000F1EE10FA00F05F8169EEA97A2AEEAA0A8A
:1037400077EE807A2BEE0B0A37EE800AFFF71EFE2B
:1037500069EE806ACDED026A6AEE805ACDED035AB9
:103760002BEE005A8DED045A68EEA87A2AEE0A0A6A
:1037700077EE807A29EE090A37EE800AFFF706FE17
:1037800068EE808A2AEE00AA29EE009AF04B93EDAB
:10379000007AD3ED007A67EE277ACDED057AD3ED86
:1037A00000EAEC49D1ED007A6EEEA7EA93ED00FA5B
:1037B000E94AD2ED007A2FEE27FA93ED007AE74B33
:1037C000D3ED007A67EE277A91ED00BA91ED007A99
:1037D0002BEE07BAD1ED006A92ED007A66EE876AA9
:1037E000D1ED00AA93ED007A6AEE87AA92ED00EA85
:1037F00092ED007A2EEE07EAD2ED009A93ED007A70
:1038000069EE879AD3ED00DA93ED007A6DEE87DAF0
:10381000F6EE00FA7FEECEBA7BEEEDBA2BEEA87A8A
:1038200036EEE7DA2DEE0A6A37EE067A3FEE2A6ABE
:103830008DED016A26EE096A37EE067A37EE077AD1
:1038400077EEA67A67EEA87A3FEECBBA7BEE6D6A8A
:1038500066EE8A6A77EEA67A79EEEE6A66EE896A95
:1038600077EEA67A77EEA77A27EE077A67EEA77A41
:1038700037EE277A17EE100AFCF766FE41EC100BC4
:1038800002F08CFC51EC100BFDF766F907EE100A04
:103890007AEECFAA6AEEA87A7EEEA99A69EE8A6AD3
:1038A00077EEA67A3BEE4EBA2BEE09EA77EE8E7AE9
:1038B00077EEA77ADDED054A74EEEFFA7FEEADDA2A
:1038C0006BEE87BA6AEEA76A7BEEA6BA2DEE07DA30
:1038D00069EEA76A3DEE26DA9DED016A26EE077ACB
:1038E0006BEE277A77EE277ADDED035A65EEAD6A47
:1038F0009DED045A29EE857A76EEC76A2AEE277A7C
:1039000029EE0D6A37EE467A36EE877A6AEE852A18
:10391000DDED026A66EEADDA72EEEDDA29EE2B9A93
:1039200068EEA77A39EE679A3DEE899A69EEA69A13
:103930006AEEA5AA79EEEA9A68EE8D8A2AEE2BAA9B
:1039400078EECA8A79EEA88A854BD3ED007AF5EE37
:10395000C07AF1EE10FA40F3F2801846D3ED007A07
:1039600067EE877A7F4BD3ED006A67EEA67A7E49D1
:10397000D1ED006A76EEA77AC1ED007AD0ED007A3B
:1039800067EE897AD3ED006A67EEA67A774AD2EDC0
:10399000006A76EEA77AC2ED007AD0ED007A67EE83
:1039A000A87AD3ED006A67EEA67A714BD3ED006A70
:1039B00076EEA77AC3ED007AD1ED007A7CEEA7CA45
:1039C000D2ED007A3CEE27CAD3ED007A38EE278A92
:1039D000684BD3ED007A67EE877A7CEEA7CAD3ED09
:1039E000007A27EE899A3CEE09CA93ED00AA6AEEA6
:1039F000288A38EE288A5B4B93ED000AF6EE007AAF
:103A000020EE270A6CEE80CAD3ED000A60EEA70A0A
:103A10002CEE20CA93ED001A21EE271A28EE018A17
:103A20004B4F97ED001A4B4ED6ED000A4A4D95EDDF
:103A3000000A60EEEC7A2CEE007A77EEC77A474CFB
:103A400094ED007A27EE087A77EEC77A97ED007A40
:103A500077EE277AC7ED007A6CEE817A28EE007A4D
:103A600077EE877A94ED007A27EE0C7A77EEC77AB4
:103A700096ED007A77EE277AC6ED007A6CEE017A41
:103A800028EE207A77EEC77A94ED007A27EE2C7A2A
:103A900077EE877A95ED007A77EE277AC5ED007A92
:103AA00028EE018A2CEE20CA38EE0C8A6CEE80CA11
:103AB00038EE6C8AD4ED00CA38EE2C8A84ED008A88
:103AC000D7ED007A97ED000A67EE807A96ED000A4E
:103AD00096ED007A20EE070A77EE807A95ED000ADF
:103AE00095ED007A20EE070A77EE807A94ED000AD1
:103AF00094ED007A20EE070A37EE800AFFF746FCC5
:103B0000D7ED007A67EE807AC7ED007AD6ED007ABD
:103B100067EE807AC6ED007AD5ED007A67EE807A9E
:103B2000C5ED007AD4ED007A27EE800A84ED000A14
:103B300007B0BDEC108BF0BDFFF740FCF8E70023A9
:103B4000094A1360094A1360094A136040E700BF3D
:103B500050000020B86A0020BC6A0020C06A002023
:103B6000400000204C0000205469002058690020CB
:103B70005C69002044000020F0EE407AB0EE600A5C
:103B8000F4EEE07AF1EE10FA09D4F4EEC17AF1EE37
:103B900010FA02DDB0EE410A7047B0EE670A7047D6
:103BA00038B52DED028BB0EE408AF0EE608A054606
:103BB0000C4680ED000A464B93ED007ADFED457A26
:103BC000B4EEE77AF1EE10FA77DD90ED020A424B9F
:103BD000D3ED007A68EE277A9FED401ADFED400AB8
:103BE00030EE270AFFF7C8FF85ED020AD5ED037A0C
:103BF00027EE880A85ED070A95ED047AD5ED027A5D
:103C000027EE277A85ED087AD5ED057A67EEE87A12
:103C1000C5ED097A30EE070A77EE807AC5ED067AAF
:103C200077EEE88AC4ED008A294B93ED007ADFED48
:103C3000297AB4EEE77AF1EE10FA41DD94ED020A4A
:103C4000254BD3ED007A68EEA77A9FED241ADFEDBD
:103C5000240A30EE270AFFF78FFF84ED020AD4ED25
:103C6000037A68EEA77AC4ED077A94ED047A94EDAE
:103C7000020A27EE007A84ED087A94ED050AD4ED65
:103C8000016A78EEE66A20EE260A84ED090A77EEEC
:103C9000877A30EE270A84ED060AA36A0133A3620D
:103CA0000A2B10D09FED0F1ADFED0F0AFFF764FF0C
:103CB00084ED060ABDEC028B38BD0023836095E7D6
:103CC0000023A360CBE7C4ED018A0023A362E9E7E8
:103CD000606900200040B5444C00002000002042F4
:103CE000000020C200009643000096C310B52DEDE1
:103CF000028B04462B4B93ED008A38EE408A80ED10
:103D0000008A294B93ED007ADFED287AB4EEE77A4A
:103D1000F1EE10FA3EDD90ED020A254BD3ED007A6C
:103D200068EE277A9FED231ADFED230A30EE270A8B
:103D3000FFF722FF84ED020AD4ED037A68EE277ABA
:103D4000C4ED077A94ED047A94ED020A27EE007A26
:103D500084ED087A94ED050AD4ED016A78EE666A7E
:103D600020EE260A84ED090AA36A0133A3620A2B16
:103D700013D077EE877A30EE270A84ED060A9FED9E
:103D80000F1ADFED0F0AFFF7F7FE84ED060ABDEC10
:103D9000028B10BD00238360CEE784ED018A0023EF
:103DA000A362E6E76C690020606900200040B5442A
:103DB0004C00002000002042000020C2000096437A
:103DC000000096C338B52DED0C8BC94B5B88A3F270
:103DD000DC5307EE903AF8EEE77A9FEDC67A67EE8D
:103DE000877AB2EE047AF4EEC77AF1EE10FA40F375
:103DF000A980C14B83ED007ABD4B9B88A3F2DC53B5
:103E000007EE903AF8EEE77A9FEDBA7A67EE877A96
:103E1000B2EE047AF4EEC77AF1EE10FA40F3A18024
:103E2000B64B83ED007AB24B1B89A3F2DC5307EE4D
:103E3000903AF8EEE77A9FEDB27A67EEC77A9FED97
:103E4000B17AF4EEC77AF1EE10FA40F39980AE4BF6
:103E500083ED007AA64BB3F90630B3F5E16F40F37A
:103E60009E80AA4BAA4A1A60AA4DD5ED027AAA4CA6
:103E7000D4ED050AA94B93ED008A9F4B93ED000A00
:103E8000A749A84860EE880A30EE670AFFF788FE67
:103E9000A54B83ED000AD5ED017AD4ED040A974BCA
:103EA00093ED000AA149A24868EE200A30EE670AA5
:103EB000FFF776FE9F4B83ED000A944B93ED007A5B
:103EC000DFED9D7AB4EEE77AF1EE10FA40F38280EE
:103ED0008D4BD3ED007AF0EEE77AB1EE047AF4EE92
:103EE000C77AF1EE10FA75D5944B1B7853B1934B0A
:103EF00000221A702A68924B1A600023914A93603C
:103F0000914A93608E4B93ED000A824BD3ED007A79
:103F100030EE670ADFED8D7AB4EEE70AF1EE10FAC3
:103F20004CD5DFED8B7A30EE270A7B4BD3ED060ABA
:103F30008449854868EE200AFFF732FE854B83ED01
:103F4000000A5EE0BAEE047AF4EEC77AF1EE10FAF7
:103F500003D5694B83ED007A4EE7674BC3ED007ADA
:103F60004AE7BAEE047AF4EEC77AF1EE10FA03D516
:103F7000624B83ED007A56E7604BC3ED007A52E75F
:103F80009FED757AF4EEC77AF1EE10FA03D55E4B29
:103F900083ED007A5EE75C4BC3ED007A5AE7B3F538
:103FA0007A7F03DA594B6D4A1A605DE707EE903A63
:103FB000F8EEE77A554BC3ED007A55E7DFED687A06
:103FC000B4EEE70AF1EE10FAAFDDDFED617A30EE24
:103FD000670AAAE7594B1B78012B07D0574B0122E0
:103FE0001A700023574A9360574A93604A4B93EDE7
:103FF000060A544828EE000AFFF778FE554B83ED79
:10400000000A424BD3ED00BA474B93ED008A7BEE9A
:10401000888A484B93ED00BA38EE8B0A4D4BD3EDAE
:1040200000AA30EE2A0A4F4B93ED009A9FED4EAA5C
:10403000DFED4E9AB0EE4A1AF0EE690A30EE090A48
:10404000FFF79AFDB0EE40CA3BEEC88A7BEE087AD5
:1040500077EEEA7AB0EE4A1AF0EE690A39EE270AEC
:10406000FFF78AFDF0EE40CA38EE4B8A3AEE888AB6
:10407000B0EE4A1AF0EE690A39EE080AFFF77CFD45
:10408000B0EE40DA78EECB8A78EEEA8AB0EE4A1AE1
:10409000F0EE690A39EE280AFFF76EFDB0EE408AAD
:1040A000DFED337AF4EEE7BAF1EE10FA64DD314C6D
:1040B000FCEECC7A17EE901A2046FEF769F9FCEE7A
:1040C000EC7A17EE901A2046FEF764F9FCEECD7AF2
:1040D00017EE901A2046FEF75FF9FCEEC87A17EE4D
:1040E000901A2046FEF75AF9BDEC0C8B38BD00BF84
:1040F000FC0000200AD7A33C686900206469002006
:10410000CDCCCC3D000048426C69002060690020A5
:104110000000E144A06A002000000020F8750008BB
:10412000D8690020046A002074690020806900209A
:10413000AC690020706900200040B5448C6A002002
:10414000306A0020346A0020606A0020000034C316
:104150000000B4437C690020000048C200007A449B
:1041600000003443786900200000FA4400007A44DB
:1041700000807C4400040040124CFCEEEB7A17EE09
:10418000901A2046FEF704F90F4DD5ED007AFCEEAB
:10419000E77A17EE901A2046FEF7FCF8D5ED007A84
:1041A000FCEEE77A17EE901A2046FEF7F5F8D5ED0B
:1041B000007AFCEEE77A17EE901A2046FEF7EEF84A
:1041C00092E700BF000400406069002010B584B091
:1041D00001210420FDF754FF0023ADF80C30ADF8A9
:1041E00006304FF6FF7302935323ADF80430074CAB
:1041F00001A92046FDF760FF01212046FDF79AFF47
:1042000001212046FDF7A4FF04B010BD00080040C6
:1042100008B5144A4FF0824EC2F80CE00023136137
:10422000DFF860C0C2F814C00F4A1048D0601361B4
:104230000F4951610F4AC2F80CE01361C2F814C073
:104240000D4AD060136151610C4AC2F80CE0136151
:10425000C2F814C00A4AD06013615161FFF7B6FF7B
:1042600008BD00BF046A0020D86900206666663F6A
:104270006666E63FAC69002080690020606A002025
:10428000346A0020CDCC4C3E30B589B004460D4692
:1042900050EA010328D16EE04FF0E022136923F0C9
:1042A00004031361019B3C49A1FB03135B0A4FF418
:1042B000FA7101FB03F353614FF0E02300229A618E
:1042C0001A6942F001021A614FF0E0231B6913F4EE
:1042D000803FF9D04FF0E022136923F0010313610E
:1042E000B4F5FA7445F1FF3540F2F5139C4275F1CF
:1042F000000317D36846FDF759FE019A274B9A42EF
:10430000CAD24FF0E022136943F004031361019B0A
:104310002149A1FB03139B094FF4FA7101FB03F33D
:104320005361C9E704A8FDF741FE059A1B4B9A4269
:1043300023D24FF0E022136943F004031361059B7D
:104340001549A1FB03139B0903FB04F454614FF0CF
:10435000E02300229A611A6942F001021A614FF0CB
:10436000E0231B6913F4803FF9D04FF0E02213697A
:1043700023F00103136109B030BD4FF0E02213694F
:1043800023F004031361059B0349A1FB03135B0A9C
:1043900003FB04F45461DAE7D34D621000127A0093
:1043A00050EA01035DD02DE9F04385B080460C460C
:1043B0004FF47A720023FCF71FFC81460F464FF43E
:1043C0007A72002340462146FCF716FC15461E462D
:1043D000B8F57A7F74F1000305D256EA050307D1D8
:1043E00005B0BDE8F08348463946FFF74DFFF4E7D6
:1043F0006846FDF7DBFD019A1A4B9A4222D24FF034
:10440000E022136943F004031361019B1649A1FBE9
:1044100003139B0C03FB05F555614FF0E0230022CD
:104420009A611A6942F001021A614FF0E0231B6998
:1044300013F4803FF9D04FF0E022136923F0010319
:104440001361CDE74FF0E022136923F004031361F9
:10445000019B0549A1FB03135B0D03FB05F55561AA
:10446000DBE7704700127A0083DE1B4338B5044651
:104470000D4607E04FF47A700021FFF705FF013C7D
:1044800045F1FF3554EA0503F4D138BD2DE9F04775
:104490002DED068B82B00546DFF8B881D8ED007AA5
:1044A00077EEA77A674C94ED008A27EE888ADFF8CA
:1044B000A8A1DAED007A77EEA77ADFF8A09199ED5E
:1044C000007A67EE877A38EE278AD4ED007AB8EE64
:1044D000009A67EE897A94ED007A67EE877A99ED13
:1044E000007A37EE077AD9ED006A27EE267A77EE62
:1044F000C77AF7EE008A77EEA87A17EE900AFCF7F3
:1045000023F841EC1A0B18EE100AFCF71DF8B0EE78
:104510004A1AF0EE6A1A41EC100B01F03DFE8DEDE7
:10452000000B494B1868FCF70FF806460F46024689
:104530000B46DDE90001FCF75FF8FCF70DFB286096
:1045400098ED007A27EE097AD9ED007A27EE277ADE
:10455000DAED007A77EEA77AD4ED006A67EEA67AF4
:1045600077EE277A17EE900AFBF7EEFF41EC100B7F
:1045700001F0DEFD53EC102B30463946FCF73CF8D9
:10458000CDE90001314B1868FBF7DEFF02460B4610
:10459000DDE90001FBF778FEFCF7DEFAA860D4ED58
:1045A000007A77EEA77A99ED008A27EE888ADAED0D
:1045B000007A77EEA77A98ED007A67EE877A38EE80
:1045C000278AD8ED007A67EE897A98ED007A67EE4F
:1045D000877A94ED007A37EE077AD4ED006A27EEF9
:1045E000267A77EEC77A77EEA87A17EE900AFBF76D
:1045F000ABFF41EC190B18EE100AFBF7A5FFB0EE6C
:10460000491AF0EE691A41EC100B01F0C5FD53ECAC
:10461000102B30463946FBF7EFFF06460F460C4B92
:104620001868FBF791FF02460B4630463946FBF708
:104630002BFEFCF791FA686002B0BDEC068BBDE87A
:10464000F08700BFBC6A0020F8750008C46A00202B
:10465000B06A0020B86A002050000020C06A002024
:104660002DE9F041FDF77AFCA748FDF79FFCFDF727
:1046700089F9FDF7D1F8FCF768FDFDF719FBFCF7A8
:1046800029FEFDF76DFBFDF741FAFDF795F9FEF701
:104690004BFEFFF7BDFD8BE0002586E0FCF7E8FE52
:1046A0009A4A136801331360142B3AD0984BD3ED18
:1046B000097AF8EE677ADFED976A87EEA67A964A6E
:1046C00082ED007A00225A62944B93ED040AD3EDF6
:1046D000050A93ED061AD3ED001A93ED012AD3EDE6
:1046E000022A93ED073AD3ED083A93ED094AFEF713
:1046F000EDFFFFF767FB8A4E3046FFF7C7FED6EDAA
:10470000027A9FED887AF4EEC77AF1EE10FA0EDCA9
:10471000D6ED016AF4EEC76AF1EE10FA08DD002565
:1047200006E000F05DFC794B00221A60BEE7002530
:104730007D4B93F90030B3F1FF3F1FD03BB97B496C
:1047400000228A657A480260CA657A490A60784A16
:1047500092ED007A77EE877AC2ED007A704A92ED98
:10476000017A744AD2ED006A37EE267A82ED007A39
:1047700001335BB26C4A1370642B4BD0012C59DDB2
:104780006D4B9A8940F26C739A420ED90020FDF766
:10479000C1F9654B00221A7001200021FFF766FE67
:1047A000013C64B2002CEBD12546002D7FF476AF9E
:1047B000624A05210120FCF7ADFC5F4B5B8940F2AA
:1047C0004B4293423BD85E4A01210220FCF7A2FCF7
:1047D0005C4A01210320FCF79DFC5B4A0121042077
:1047E000FCF798FC0024544B9A8840F26C739A4270
:1047F00023D9514B5A8840F24B439A423FF64CAF73
:1048000001200021FFF732FE013464B2022CEAD10C
:104810000125CAE7DFED4D6A87EEA66A4C4B83EDB2
:10482000006AC7EE267A4B4BC3ED007A1346FF228F
:104830001A70A3E7013464B2A2E70025B5E7B3F527
:10484000C86F2DD3444A01210220FCF763FC3D4A86
:1048500001210320FCF75EFC404A01210420FCF703
:1048600059FC354B9A8940F26C739A4200F26F837F
:104870000023002B9CD03A4A01210220FCF74AFC7D
:10488000384C224601210320FCF744FC224601213A
:104890000420FCF73FFCFEF753FDFEF745FD87E7DC
:1048A0002D4A01210220FCF735FC2F4A012103206B
:1048B000FCF730FC244A01210420FCF72BFC1E4BA2
:1048C0009A8940F26C739A4200F23D8300270026D9
:1048D000B0463446D9E2254A01210220FCF71AFCF1
:1048E000234A01210320FCF715FC224A0121042060
:1048F000FCF710FC104B9A8940F26C739A4200F25C
:104900008E82002C50D1BAE2906A0020AC6A00205E
:1049100000080040002474494C00002000000020E2
:10492000A06A00200000B44248000020F468002083
:10493000C86A0020B46A0020FC000020FC75000852
:10494000087600081C760008307600080000C8428F
:10495000C46A0020B06A002044760008647700082A
:104960007877000814770008587600086C760008FD
:104970008076000894760008D5ED137AB7EE007AB9
:1049800077EEC77AC5ED137A01200021FFF76EFD9F
:10499000BD4B5A8840F24B439A4200D800244FF452
:1049A000FA700021FFF770FCB74B5A8940F24B4375
:1049B0009A4200F2B780002C00F0B480B34A012183
:1049C0000220FCF7A7FBB24A01210320FCF7A2FB5F
:1049D000B04A01210420FCF79DFBAF4D03230822C0
:1049E00095ED130A06210220FCF706FC032308229A
:1049F00095ED140A06211846FCF7FEFB0323082256
:104A000095ED150A06210420FCF7F6FB9E4B1B8949
:104A100040F24B429342AFD9A3F24D4292B2622A86
:104A200020D9A3F2B14292B2C62A2DD9A3F2416293
:104A300092B2C62A3AD9A3F2097292B2622A47D92F
:104A400040F26C729342A3D9934BD3ED137AB7EE35
:104A5000007A77EE877AC3ED137A01200021FFF701
:104A600005FD95E78C4DE86CFBF76EFD82A3D3E95D
:104A70000023FBF709FCFCF76FF8E8644FF4FA70C9
:104A80000021FFF701FC83E7834DE86CFBF75CFD39
:104A90007BA3D3E90023FBF7F7FBFCF75DF8E864A1
:104AA0004FF4FA700021FFF7EFFB71E77A4DE86CE5
:104AB000FBF74AFD72A3D3E90023FBF7E7FBFCF702
:104AC0004BF8E8644FF4FA700021FFF7DDFB5FE775
:104AD000714DE86CFBF738FD67A3D3E90023FBF7C2
:104AE000D5FBFCF739F8E8644FF4FA700021FFF7C2
:104AF000CBFB4DE7D5ED147AB7EE007A77EEC77AA7
:104B0000C5ED147A01200021FFF7B0FC5E4B5A88F6
:104B100040F24B439A4200D800244FF4FA7000212F
:104B2000FFF7B2FB584B5B89A3F2B1439BB240F253
:104B30005622934200F2CE80002C00F0CB80574AE0
:104B400001210220FCF7E6FA554A01210320FCF777
:104B5000E1FA504A01210420FCF7DCFA4E4D032310
:104B6000082295ED130A06210220FCF745FB0323DA
:104B7000082295ED140A06211846FCF73DFB032395
:104B8000082295ED150A06210420FCF735FB3E4B63
:104B90001B8940F24B429342ACD9A3F24D4292B2F0
:104BA000622A20D9A3F2B14292B2C62A2DD9A3F229
:104BB000416292B2C62A3AD9A3F2097292B2622A2B
:104BC00047D940F26C729342A0D9334BD3ED147A9B
:104BD000B7EE007A77EE877AC3ED147A01200021D0
:104BE000FFF744FC92E72C4D286DFBF7ADFC22A3A8
:104BF000D3E90023FBF748FBFBF7AEFF28654FF432
:104C0000FA700021FFF740FB80E7234D286DFBF78A
:104C10009BFC1BA3D3E90023FBF736FBFBF79CFFB0
:104C200028654FF4FA700021FFF72EFB6EE71A4D4E
:104C3000286DFBF789FC12A3D3E90023FBF726FBC1
:104C4000FBF78AFF28654FF4FA700021FFF71CFB81
:104C50005CE7114D286DFBF777FC07A3D3E9002330
:104C6000FBF714FBFBF778FF28654FF4FA7000217F
:104C7000FFF70AFB4AE700BF9A9999999999B93FBA
:104C80009A9999999999A93FFC000020A876000863
:104C9000B0760008B8760008F4680020C0760008F6
:104CA000C8760008D5ED157AB7EE007A77EEC77AA8
:104CB000C5ED157A01200021FFF7D8FBAA4B5A88D1
:104CC00040F24B439A4200D800244FF4FA7000217E
:104CD000FFF7DAFAA44B5B89B3F5E16F7FF611AE0B
:104CE000002C3FF40EAEA14A01210220FCF712FA7B
:104CF0009F4A01210320FCF70DFA9E4A012104205E
:104D0000FCF708FA9C4D0323082295ED130A0621AF
:104D10000220FCF771FA0323082295ED140A0621FC
:104D20001846FCF769FA0323082295ED150A0621B7
:104D30000420FCF761FA8C4B1B8940F24B429342F2
:104D4000B0D9A3F24D4292B2622A20D9A3F2B14265
:104D500092B2C62A2DD9A3F2416292B2C62A3AD99A
:104D6000A3F2097292B2622A47D940F26C7293425E
:104D7000A4D9814BD3ED157AB7EE007A77EE877A16
:104D8000C3ED157A01200021FFF770FB96E77A4DFD
:104D9000686DFBF7D9FB70A3D3E90023FBF774FA26
:104DA000FBF7DAFE68654FF4FA700021FFF76CFA42
:104DB00084E7714D686DFBF7C7FB69A3D3E9002356
:104DC000FBF762FAFBF7C8FE68654FF4FA70002142
:104DD000FFF75AFA72E7684D686DFBF7B5FB60A301
:104DE000D3E90023FBF752FAFBF7B6FE68654FF4F0
:104DF000FA700021FFF748FA60E75F4D686DFBF736
:104E0000A3FB55A3D3E90023FBF740FAFBF7A4FE6D
:104E100068654FF4FA700021FFF736FA4EE73C461A
:104E20006FE5DFF87881424601210220FCF772F934
:104E3000524D2A4601210320FCF76CF92A46012134
:104E40000420FCF767F9FEF729F942460121022008
:104E5000FCF760F94A4A01210320FCF75BF92A4676
:104E600001210420FCF756F94FF4FA700021FFF7F6
:104E70000BFA4FF0000802E0B8F1000FD1D13A4B25
:104E80005A8840F24B439A425FD9002F3FF490ACCE
:104E900064200021FFF7F8F9334B5B8940F24B4265
:104EA00093427FF618ADB3F5C86F16D2354A01218B
:104EB0000220FCF72FF9344A01210320FCF72AF9DC
:104EC000324A01210420FCF725F9274B9A8940F248
:104ED0006C739A42D0D9B846CEE72A4A0121022003
:104EE000FCF718F92A4A01210320FCF713F9294A93
:104EF00001210420FCF70EF91B4B9A8940F26C73D8
:104F00009A4206D93E4604E04FF4FA700021FFF7BA
:104F1000BBF9002EB3D0204A01210220FCF7FAF899
:104F2000164D2A4601210320FCF7F4F82A460121F8
:104F30000420FCF7EFF80C4B5A8840F24B439A429E
:104F4000E2D80026E0E70127C1E400279DE701231E
:104F50008FE400BFAFF300809A9999999999B93F6E
:104F60009A9999999999A93FFC000020C076000868
:104F7000B0760008D0760008F468002014770008A6
:104F800028770008D8760008EC76000894760008A8
:104F9000807600083C77000850770008007700080A
:104FA0007047FEE7FEE7FEE7FEE770477047704791
:104FB0007047000070B50E46154600240AE04021F7
:104FC0000648FDF785FA0028F9D0315D0348FDF762
:104FD0007BFA0134AC42F2DB284670BD0010014080
:104FE00008B5164B9B6816490B60164B1B684B6047
:104FF000154B1B688B60154B1B68CB60144BD3EDB6
:10500000057A144B93ED007A67EE877AC1ED047A46
:10501000114BDA694A61114AD2ED097AF8EE677AE2
:10502000C1ED067A5B6ACB6120220020FFF7C2FF48
:1050300004220B490020FFF7BDFF08BDA06A002035
:10504000CC6A002068690020606900207469002033
:1050500000000020F8750008D86900200008004012
:1050600054000020DFF830D00C480D490D4A0023D1
:1050700002E0D458C4500433C4188C42F9D30A4A0D
:105080000A4C002301E013600432A242FBD300F07B
:1050900011F8FFF7E5FA70470080012000000020BA
:1050A000BC000020A8780008C0000020006B002091
:1050B000FEE7000070B50D4D0D4C641BA4100026DA
:1050C000A64209D10B4D0C4C01F086FE641BA410C6
:1050D0000026A64205D170BD55F8043B984701361D
:1050E000EEE755F8043B98470136F2E7A078000850
:1050F000A0780008A0780008A47800080A4491422B
:1051000000F1FF3300D1704710B511F8014B03F8DF
:10511000014F9142F9D110BD02440346934200D1A0
:10512000704703F8011BF9E70FB40A4B13B51C686D
:1051300024B1A36913B9204600F05EFA05AB049AC6
:10514000A1680193204600F067FC02B0BDE8104062
:1051500004B070475800002070B50E46054618B1DF
:1051600083690BB900F048FAAB69AC6813B92846FB
:1051700000F042FA2C4B9C4220D16C68636EDB0736
:1051800005D4A389980502D4A06D00F0D3FAA389B1
:1051900019071DD52369DBB1013EA36816F8011F6D
:1051A000013BA36039BB002B38DA22460A2128468E
:1051B00000F048F8013011D00A2511E01B4B9C4249
:1051C00001D1AC68DAE71A4B9C4208BFEC68D5E71E
:1051D0002146284600F088F80028DDD04FF0FF3542
:1051E000636EDA0705D4A3899B0502D4A06D00F095
:1051F000A2FA284670BD002B04DAA2699A4206DCA6
:105200000A2904D023685A1C22601970C5E7224677
:10521000284600F017F80130BFD1DFE723680A25E0
:105220005A1C22601D70DBE7B0770008D0770008B9
:1052300090770008024B01461868FFF78DBF00BF4A
:1052400058000020F8B50E461446054618B183698B
:105250000BB900F0D1F9214B9C422BD16C68A369AA
:10526000A360A3891A072FD523696BB3236920682C
:10527000C01A6369F6B28342374604DC21462846E9
:1052800000F026F930BBA368013BA36023685A1CD9
:1052900022601E7063690130834204D0A389DB075A
:1052A00006D50A2E04D12146284600F011F988B906
:1052B0003846F8BD0A4B9C4201D1AC68CFE7094B98
:1052C0009C4208BFEC68CAE72146284600F00CF86B
:1052D0000028CBD04FF0FF37EAE700BFB0770008D7
:1052E000D077000890770008324B70B51D680646ED
:1052F0000C4625B1AB6913B9284600F07DF92E4B59
:105300009C420FD16C68A389B4F90C2019072CD4E6
:10531000DD0611D40923336042F04003A3814FF02E
:10532000FF303EE0254B9C4201D1AC68EBE7244BBB
:105330009C4208BFEC68E6E7580712D5616B41B1A3
:1053400004F14403994202D0304600F05BFA002396
:105350006363A38923F02403A3810023636023698B
:105360002360A38943F00803A38123694BB9A38970
:1053700003F42073B3F5007F03D02146304600F0DC
:1053800001FAA089B4F90C2010F001030AD000231F
:10539000A36063695B42A361236943B910F0800095
:1053A000BAD170BD810758BF6369A360F4E70020DC
:1053B000F7E700BF58000020B0770008D07700085A
:1053C000907700088A892DE9F041054610070C46C0
:1053D00058D44B68002B05DC0B6C002B02DC002042
:1053E000BDE8F081E66A002EF9D0002312F4805265
:1053F0002F682B6032D0606DA3895A0705D563688A
:10540000C01A636B0BB1236CC01A00230246E66A14
:10541000216A2846B047431CA38906D129681D2963
:105420002CD82A4ACA40D60728D500226260D9045F
:105430002269226004D5421C01D12B6803B9606542
:10544000616B2F600029CAD004F14403994202D055
:10545000284600F0D7F900206063C1E7216A0123E4
:105460002846B047411CC7D12B68002BC4D01D2B48
:1054700001D0162B01D12F60B1E7A38943F040037F
:10548000A381ADE70F69002FA9D093070E6808BF6D
:105490004B690F6018BF0023A6EB07088B60B8F1BB
:1054A000000F9CDD216AA66A43463A462846B0476B
:1054B000002806DCA38943F04003A3814FF0FF30AE
:1054C0008EE70744A8EB0008E9E700BF0100402091
:1054D00038B50B6905460C4613B90025284638BD7A
:1054E00018B183690BB900F087F8144B9C421BD1AB
:1054F0006C68B4F90C30002BEFD0626ED00704D486
:10550000990502D4A06D00F015F928462146FFF751
:1055100059FF636EDA070546E0D4A3899B05DDD405
:10552000A06D00F008F9D9E7054B9C4201D1AC68A9
:10553000DFE7044B9C4208BFEC68DAE7B07700086D
:10554000D077000890770008002310B50446C0E922
:105550000033C0E90433836081814366C281836183
:10556000194608225C30FFF7D7FD054B6362054BF7
:10557000A362054BE362054B2462236310BD00BFA9
:10558000C15F0008E35F00081B6000083F6000087F
:10559000014900F0AFB800BFD154000870B56822CF
:1055A0004D1E55430E4605F1740100F097F904466F
:1055B00040B10021C0E900160C30A06005F168027E
:1055C000FFF7AAFD204670BD014800F0B3B800BF48
:1055D000ED6A0020014800F0AEB800BFED6A00207F
:1055E000014800F0A7B800BFEE6A0020014800F0B3
:1055F000A2B800BFEE6A002010B50446FFF7F0FF26
:10560000A3691BB1BDE81040FFF7F0BFC4E9123336
:105610002365134B134A1B68A262A34204BF0123F4
:10562000A361204600F020F86060204600F01CF8DE
:10563000A060204600F018F80022E06004216068B5
:10564000FFF782FFA06801220921FFF77DFFE068D4
:1056500002221221FFF778FF0123A361D2E700BFE6
:105660008C77000891550008F8B50746FFF7ACFFA6
:105670001E4B1E68B36913B93046FFF7BDFF4836AD
:10568000D6E90134013B03D533680BB33668F7E73D
:10569000B4F90C50D5B9164BE36004F158006566B7
:1056A00000F047F8FFF796FFC4E90155C4E9045537
:1056B0002560A5610822294604F15C00FFF72CFD56
:1056C000C4E90D55C4E912552046F8BD6834D9E740
:1056D00004213846FFF762FF044630600028D5D128
:1056E000FFF778FF0C233B60EEE700BF8C770008E4
:1056F0000100FFFF2DE9F8430646884600F1480403
:105700000027D4E90195B9F1010905D52468002CD9
:10571000F7D13846BDE8F883AB89012B07D9B5F935
:105720000E30013303D029463046C0470743683561
:10573000E9E770477047704770B50E46B1F90E1033
:10574000002996B014461D4608DAB6F90C3000223E
:105750002A601A0610D44FF480630EE06A4600F007
:1057600095FC0028F1DB019A02F47042A2F5005387
:105770005A425A412A60EEE740230020236016B0C7
:1057800070BD00008B8973B59D0706460C4607D592
:1057900004F14703236023610123636102B070BDFC
:1057A00001AB6A46FFF7C8FF00990546304600F096
:1057B00095F848B9B4F90C309A05EFD423F00303F7
:1057C00043F00203A381E3E70D4BB362A38920609A
:1057D00043F08003A381009B6361019B20615BB167
:1057E000B4F90E10304600F063FC28B1A38923F011
:1057F000030343F00103A381A0890543A581CDE7FD
:105800009155000837B5002944D051F8043C019067
:10581000002BA1F10404B8BFE41800F06BFC1E4A91
:105820000198136833B96360146003B0BDE8304079
:1058300000F066BCA34208D9256861198B4201BFFC
:1058400019685B6849192160EDE71A465B680BB17E
:10585000A342FAD911685518A5420BD124682144F6
:105860005418A3421160E0D11C685B685360214466
:105870001160DAE702D90C230360D6E725686119C5
:105880008B4204BF19685B68636004BF49192160DB
:105890005460CAE703B030BDF06A002070B50E4E08
:1058A0000C463168054611B900F07AFB306021469C
:1058B000284600F075FB431C0AD0C41C24F00304E6
:1058C000A04207D0211A284600F06AFB013001D11E
:1058D0004FF0FF34204670BDF46A00202DE9F041FE
:1058E000CD1C25F0030508350C2D38BF0C25002DE7
:1058F000074601DBA94205D90C233B600026304650
:10590000BDE8F0812E4E00F0F5FB33681C4634BB39
:1059100029463846FFF7C2FF431C04464DD1346880
:105920002646002E40D123683146384604EB030852
:1059300000F036FB80453AD1216803356D1A25F019
:10594000030508350C2D38BF0C2529463846FFF7CE
:10595000A5FF01302BD023682B4423600EE0226882
:10596000521B1ED40B2A16D96119A342256018BFF9
:105970005960636808BF316062514B60384604F17A
:105980000B0600F0BDFB26F00706231DF21AB6D069
:105990009B1BA350B3E76268A3420CBF32605A60FE
:1059A000ECE723466468B2E734467668B9E70C232F
:1059B0003B60384600F0A4FBA1E72560DEE700BFAE
:1059C000F06A00209368013B002B10B4936008DA62
:1059D0009469A34201DB0A2903D15DF8044BFFF768
:1059E00031BC1368581C1060197008465DF8044BF0
:1059F0007047F8B506460F461446D518AC4201D19B
:105A0000002007E014F8011B3A463046FFF7DAFFA2
:105A1000431CF3D1F8BD00002DE9F04F0D469DB0B9
:105A200014469846064618B183690BB9FFF7E4FDA2
:105A3000894B9D421BD175686B6ED90705D4AB8924
:105A40009A0502D4A86DFFF775FEAB891B0701D537
:105A50002B69EBB929463046FFF746FCC0B16B6EA7
:105A6000DC070ED54FF0FF301DB0BDE8F08F7B4B4B
:105A70009D4201D1B568DFE7794B9D4208BFF568CB
:105A8000DAE7AB899805EDD4A86DFFF754FEE9E796
:105A90000023099320238DF82930CDF80C80302382
:105AA000DFF8C0818DF82A304FF0010923469A466D
:105AB00013F8012B0AB1252AF9D1BAEB040B0BD04C
:105AC0005B46224629463046FFF793FF013000F03F
:105AD000AA80099A5A4409929AF80030002B00F0E3
